:020000040000FA
:0600000002011D022204B2
:03002B00021C7C38
:0300530002227A0C
:03006B00021C4A2A
:100083000220B3E5C754F84401F5C7790122000003
:100093000080FB120086B90003020107E47921788E
:1000A30008B800028004F709D8FCE479297802B87B
:1000B30000028004F709D8FCE490028178F1790703
:1000C3008002F0A3D8FCD9FA781A90014D7A01BACC
:1000D30000028007E493A3F608DAF9900971AA8273
:1000E300AB8390014E78C379048015E493A3AC826B
:1000F300AD838A828B83F0A3AA82AB838C828D83A8
:10010300D8E9D9E775825F7583AD740312012F7542
:100113008291758300740012012F75D00075813FA1
:10012300751881751902759F00020096C09FF59F8F
:10013300E473D09F22D083D082C09FE493C0E07445
:100143000193C0E0740293F59F2201FFFF0A41630C
:1001530063656C20456E61626C65000002140041AA
:100163006363656C2052616E676500001010104177
:100173006363656C20582D436F6F7264696E61749D
:10018300650000416363656C20592D436F6F726492
:10019300696E6174650000416363656C205A2D4389
:1001A3006F6F7264696E61746500000239900100BB
:1001B300001A900235900100007309026590030054
:1001C30000A0020231900100007409023590010081
:1001D300008209026390010000830902319001004B
:1001E3000085090235900100009209026190000028
:1001F30000A102022F90030000A40202319001002B
:100203000095090235900100009309025F900000F8
:1002130000A202022F90030000AA02023190010003
:1002230000A9090235900100009409025D900000C5
:1002330000A302022F90030000B0020231900100DC
:1002430000BD09110199010F1264040102399001E3
:10025300000002900235900100006E0A02579001DF
:1002630000006F0A022F90030000BE020269900192
:100273000000700A020202020202020202010D00E1
:100283000000100102399001000005900235900131
:1002930000009A0A025190010000C5020235900144
:1002A30000009B0A024F90010000138F023590015A
:1002B30000009C0A024D90010000F78E0235900168
:1002C30000009D0A024B90010000A38E02359001AD
:1002D30000009E0A0249900100007F8E02359001C2
:1002E30000009F0A024790010000B58E023590017D
:1002F3000000A00A024590010000918E0235900192
:100303000000A10A024390010000058F023590010D
:100313000000A20A024190010000A30A01E80305BC
:100323003F100A0100050953796E630201060702B3
:1003330003180218041853796E63000000000000CC
:1003430000000000000000000000005208000058F8
:10035300085E08FF0001307503020106000000007B
:10036300000000000000000000000000000000008A
:100373000000000000000000FFFF0600800CE803FF
:100383000A04120239900100001190023590010015
:1003930000A60B022D90030000A204023990010075
:1003A300001490023590010000A70B022D9002006B
:1003B30000A3040239900100001790023590010058
:1003C30000A80B022190010000A404022F90030057
:1003D30000A504104B657920507265737320537424
:1003E300617465000239900100000E90023590019E
:1003F3000000F90B021F90000000AB04022F9003D2
:100403000000AC04023190010000FA0BFF0000B4BD
:10041300000028002800283075A000A000A000A03C
:100423000000080008E001F00010001000100010A8
:10043300001000100050005000500010001000D0B9
:10044300070000000000000F0001000500307507E1
:10045300001000010081FF00000000FF760B940BE9
:100463007C0BFF02020208025000A0000000E80318
:100473000239900100000B90023590010000890CB5
:10048300022B90010000E4040235900100008A0C65
:10049300022990010000FA040235900100008B0C40
:1004A300022790010000FC040235900100008C0C2F
:1004B300022590080000FD040235900100008D0C18
:1004C3000223900100008E0CFF0100FF20023990EF
:1004D3000100000890023590010000F20C025B90CD
:1004E3000000000000022F900300004A05A611A699
:1004F30011A611A611A611A611A611A611A611A641
:1005030011A611A611A61182149A147C1412013893
:10051300CBD602120138D5D60212013813D70212F4
:1005230001385CD70212013896D702120138F0D78E
:100533000212013811D8021201381AD802120138F6
:1005430067D80212013890D8021201389AD80212E1
:10055300013806D90212013898D902120138E2D9BA
:100563000212013818DA02120138A4DA0212013831
:10057300E5DA021201381CDB021201382EDB02120B
:1005830001384DDB0212013856DB0212013823DC3D
:100593000212013863A80312013800AD03120138B7
:1005A300FA9803120138309903120138669903123D
:1005B3000138B19A0312013857FF011201386DFF58
:1005C3000112013877FF01120138C1FF011201380E
:1005D300CCEF02120138E1EF0212013891F002125E
:1005E3000138D1F002120138EAF00212013825F184
:1005F3000212013872F102120138A4F10212013819
:10060300E6F102120138E7F30212013859F402123B
:1006130001386CA70312013895A703120138C4A748
:1006230003120138DCA7031201381EA80312013894
:100633000080031201385B800312013878800312B3
:100643000138878103120138D28103120138908265
:10065300031201388583031201382B8E03120138EC
:10066300628E03120138818E031201382C8F03121C
:100673000138C18F03120138499003120138EFFF8B
:1006830001120138F6FF0112013856A50312013891
:10069300B3A503120138CBA503120138E9A5031250
:1006A300013804A60312013841A6031201384FA6EC
:1006B30003120138E993031201380E94031201382F
:1006C300389403120138B7AD03120138E142001226
:1006D3000138464500120138E746001201389B47AE
:1006E300001201382E4800120138B34800120138B5
:1006F300D848001201382E4C00120138B44C0012B5
:100703000138E74D00120138214E00120138564ED0
:1007130000120138165000120138735000120138CC
:10072300BC500012013827510012013898510012B1
:100733000138CA5100120138E251001201382B531B
:10074300001201383B53001201385654001201388D
:10075300785400120138AE54001201386256001268
:100763000138EF56001201382E5700120138525843
:100773000012013810AB0312013821AB0312013808
:10078300C6AB031201380DAE031201384CAE03128F
:100793000138E27F001201385AA9031201386AA90D
:1007A300031201387FA90312013833AA0312013857
:1007B30068A603120138EDA60312013853A70312EA
:1007C300013814A3031201383BA30312013891A388
:1007D30003120138A3A303120138F3A30312013850
:1007E30031A40312013834A403120138D3F80212DE
:1007F3000138EAF80212013864F90212013848FAA2
:10080300021201381FFC0212013884FC0212013863
:10081300D1FC02120138F87F001201389D7D0012CD
:100823000138387F00120138997F00120138DF7FC9
:100833000012013805AC0212013828AE0212013849
:100843007FB00212013899B102120138B4B2021218
:100853000138D2B2021201381FB4021201385EB459
:1008630002120138A2B40212013817A00312013890
:1008730069A003120138F3A0031201385AA103122D
:100883000138B59603120138DF9603120138AD978C
:100893000312013888980312013866C7021201381F
:1008A3002DC80212013864C8021201388EC8021220
:1008B3000138EEC80212013844C902120138A9C92D
:1008C3000212013841CA0212013850CB0212013818
:1008D300E7CC0212013874CD02120138DBCD0212CB
:1008E3000138F2CD021201380CCF021201384ACF7F
:1008F30002120138A7DC0112013828E00112013885
:10090300B0E10112013807E20112013826E20112B7
:100913000138A4E2011201383AE4011201381FE55B
:10092300011201382DE90112013803EA01120138DD
:10093300058B03120138838B03120138A08B03123A
:100943000138298C03120138548C03120138E68CC8
:1009530003120138F28D03120138EB9A03120138A6
:10096300309B03120138849B03120138079C031246
:1009730001387F9C03120138B89C03120138CF9CC5
:1009830003120138009D031201383B9D0312013805
:10099300659D031201388F9D03120138A69D031232
:1009A3000138BD9D03120138D49D03120138FD9D0A
:1009B30003120138109E03120138269E03120138D8
:1009C300399E03120138609E031201380198021206
:1009D30001380599021201383D99021201386099D4
:1009E300021201386B99021201388E9902120138F2
:1009F3009D9A02120138729B02120138ED9B02127A
:100A03000138759C02120138B09C02120138E79C30
:100A130002120138759D021201384E9E02120138EE
:100A2300AE9E02120138B99E02120138389F02129B
:100A330001383B9F021201383E9F02120138CD9FBD
:100A430002120138D09F0212013800A002120138AD
:100A53002AA00212013818A102120138CAA10212F7
:100A630001380FEB0212013837EB0212013865EB44
:100A7300021201389CEB02120138FAEB0212013820
:100A830045EC0212013890EC02120138D0EC02124C
:100A9300013816ED0212013844ED0212013801EE5D
:100AA300021201380BEE0212013818EE021201385D
:100AB3004BEE0212013817EF0212013823EF021234
:100AC30001383BEF0212013845EF0212013839AA0F
:100AD3000312013847AA031201385FAA031201382F
:100AE30077AA031201381BB101120138C7B10112F1
:100AF300013842B20112013863B3011201389FB3C6
:100B03000112013848B4011201382FB5011201381E
:100B130093B601120138EAB6011201386BB701121C
:100B230001385BB801120138A8B8011201382EB997
:100B33000112013860B90112013874BB0112013886
:100B4300B6BB01120138D4BB0112013857BC0112E4
:100B530001382BBD01120138F3BD01120138A8CFB2
:100B6300021201387BD00212013824D1021201385B
:100B730077D10212013827D202120138B3D20212FE
:100B830001389FD302120138CED302120138E1D4C7
:100B93000212013829D502120138FED5021201389A
:100BA3003AD60212013856D6021201387CAC03122F
:100BB30001386C8703120138828703120138A88732
:100BC30003120138C48803120138CE880312013896
:100BD300038A03120138FB8A0312013851DC021223
:100BE300013881DD02120138B4DD02120138FEDD65
:100BF30002120138C5DF021201382CA1011201389B
:100C030096A101120138F5A20112013805A30112C0
:100C1300013832A30112013889A30112013832A429
:100C23000112013839A50112013803A60112013856
:100C330063A701120138A6A7011201384BA80112BC
:100C4300013898A801120138BEA801120138CCAAB4
:100C530001120138D1AA01120138D6AC01120138B0
:100C630023AD0112013896AD01120138C9AD01124D
:100C730001386BAE0112013814AF011201384CAFC9
:100C8300011201384FAF0112013897AF0112013839
:100C9300D7AF011201382EB0011201381691031299
:100CA30001382E91031201387691031201388C9189
:100CB30003120138D39103120138E792031201386A
:100CC300749303120138BF93031201388028001272
:100CD30001388C2800120138C728001201380C296A
:100CE30000120138CC2900120138522A00120138AF
:100CF300B72A00120138E32A001201381C2B001214
:100D030001385A2D001201383E2F001201382431C8
:100D130000120138673200120138B534001201386D
:100D2300C735001201381237001201382238001279
:100D330001383F38001201387A38001201389C38E4
:100D430000120138FF3800120138C03D001201388B
:100D5300553E00120138A63E00120138CD3E001266
:100D630001381F3F001201383D3F00120138973F01
:100D730000120138804000120138F6410012013898
:100D83007A420012013878E10212013882E102123C
:100D93000138C5E102120138E0E10212013870E2C4
:100DA3000212013898E202120138D5E20212013828
:100DB3000CE30212013835E302120138AAE30212EE
:100DC3000138BFE302120138D4E30212013805E40B
:100DD3000212013819E4021201383EE4021201380A
:100DE30078E402120138A4E402120138DCE40212AE
:100DF300013886E502120138CFE502120138F9E520
:100E03000212013824E6021201383DA4031201380C
:100E13000080021201382E80021201387C810212F6
:100E230001385C82021201387B8202120138F88297
:100E3300021201383B8302120138918402120138F5
:100E4300528502120138D987021201387A880212B8
:100E530001387089021201386D8A02120138C78B7A
:100E630002120138528C02120138B9A1031201385F
:100E730022A20312013876A2031201389DA20312A3
:100E83000138CEA20312013866F402120138D3F4FA
:100E9300021201381AF50212013832F60212013831
:100EA3002EF70212013811F802120138FDBE0212A8
:100EB30001383FBF0212013811C002120138EAC0E3
:100EC30002120138E4C102120138C6C2021201380B
:100ED3002FC302120138E5C30212013859C40212AA
:100EE3000138C5C402120138EEC40212013868C5C4
:100EF3000212013801C60212013866C60212013815
:100F03007BC602120138C1C602120138DAC60212C8
:100F130001383FC70212013842C702120138E4FC0C
:100F2300021201380CFD021201384AFD0212013887
:100F330008FE021201386FFE021201388BFE021204
:100F43000138B3FE02120138E3FE02120138F2FE49
:100F5300021201386FFF0212013895FF02120138A5
:100F63006C90011201380A92011201382594011282
:100F730001386194011201388E940112013873957E
:100F830001120138BA9501120138FE950112013898
:100F93001096011201385096011201387D96011204
:100FA3000138C896011201380897011201383697A3
:100FB300011201388897011201381898011201387B
:100FC300B69A01120138CC9C011201380A9D011214
:100FD30001389B9E01120138E09E01120138579F90
:100FE30001120138A19F01120138C79F0112013874
:100FF30084B50212013803B602120138C5BB0212CE
:101003000138D4BC021201383CBE02120138D3BEEF
:1010130002120138775800120138C0580012013803
:10102300ED58001201382059001201382D590012D1
:1010330001383959001201384B5900120138325A1C
:1010430000120138905A00120138C55A00120138B3
:10105300085C00120138555C00120138795C0012FB
:101063000138E65C00120138A45D001201385D5EB0
:1010730000120138CA5E001201387C5F0012013889
:101083008C5F00120138136000120138D260001225
:101093000138FF6000120138786100120138D56110
:1010A300001201381F6200120138B56200120138C4
:1010B300806300120138356400120138AA640012FB
:1010C30001380B6500120138756500120138AE65F1
:1010D30000120138506600120138606700120138AF
:1010E300A06700120138BD6700120138DC670012E7
:1010F3000138236800120138486800120138756806
:1011030000120138EF68001201383069001201380B
:10111300546A00120138046B001201385B6B001231
:101123000138C56B00120138DE6B001201383BA297
:10113300021201388EA2021201389AA20212013859
:101143006FA30212013896A302120138D1A302122F
:1011530001383DA40212013879A402120138B2A465
:1011630002120138CAA4021201381FA50212013863
:1011730038A50212013881A50212013894A5021282
:101183000138AEA502120138C4A502120138F7A630
:10119300021201383EA80212013840A90212013896
:1011A3003AAA02120138F37F00120138A6EA0112AB
:1011B3000138D6EA011201389EEE01120138F5EF2B
:1011C30001120138BEF0011201383EF2011201385A
:1011D3000FF3011201384CF3011201386FF30112BE
:1011E3000138ADF301120138B6F30112013800F4EE
:1011F300011201380AF401120138B4F40112013862
:101203008DF501120138E1F50112013843F601129F
:10121300013896F601120138C5F60112013802F7BA
:1012230001120138106C00120138776F0012013877
:101233007D6F00120138FF740012013878790012B3
:1012430001384E7D00120138D283031201384884DD
:10125300031201385E84031201389F84031201389C
:10126300D984031201385285031201388D85031284
:1012730001380086031201383E860312013847867F
:10128300031201385386031201386F8603120138A3
:101293009A8603120138B08603120138D9860312E5
:1012A30001383C87031201384CE6021201385FE62D
:1012B3000212013879E602120138A2E6021201385D
:1012C300E5E60212013824E70212013862E702124E
:1012D3000138C7E702120138DCE702120138E7E7F9
:1012E30002120138F4E7021201380BE80212013846
:1012F30019E80212013824E80212013830E8021218
:10130300013843E8021201384EE80212013871E84D
:101313000212013818E90212013828E902120138D1
:1013230042E9021201385FE9021201387BE9021235
:101333000138A0E902120138ABE902120138C0E911
:1013430002120138D4E90212013835EA02120138D7
:101353003BEA0212013841EA0212013847EA02125B
:1013630001385FEA0212013892EA021201387DCE97
:101373000112013801CF01120138B0CF0112013837
:101383000FD10112013830D3011201381CD40112DC
:10139300013851D40112013873D40112013822D516
:1013A300011201381AD70112013843D7011201384B
:1013B300D5D70112013807D80112013814D8011208
:1013C30001386BD80112013891D801120138FEDAC5
:1013D3000112013801DC0112013859DC0112013814
:1013E3000CC00112013816C101120138FDC10112EE
:1013F300013807C20112013829C20112013835C26E
:1014030001120138CEC301120138FDC301120138A4
:1014130019C50112013872C501120138D8C601126B
:101423000138B7C70112013813C80112013880C847
:1014330001120138BBC801120138FAC80112013880
:10144300B3CB01120138CDCB0112013859CC0112B3
:10145300013867CC01120138C0CC01120138CECC5F
:101463000112013841CD01120138A5CD0112013815
:10147300EFCD01120138D38C02120138F58C021220
:1014830001381B8F0212013830920212013848933F
:1014930002120138FB9302120138DD940212013863
:1014A300729E03120138979E03120138099F03129B
:1014B3000138DDF701120138E6F701120138EFF7C1
:1014C30001120138C6F80112013877FA0112013806
:1014D300ADFA01120138E7FA011201381DFB0112BE
:1014E300013857FB011201388BFB01120138B7FB9E
:1014F3000112013800FC011201383AFC01120138D3
:1015030083FC01120138DBFC0112013810FD0112CA
:1015130001386BFD01120138A5FD01120138F6FDFA
:10152300011201382CFE0112013866FE0112013846
:1015330094FE01120138B7FE01120138D1AB031238
:101543000138FDAB0312013858AC0312013862AC09
:101553000312013872AC0312013856AE031201387C
:10156300DDFF02E066701008A3E066700A08A3E0DE
:1015730066700408A3E06622C3E7960809E79608A5
:1015830009E7960809E79622C3E09608A3E09608C0
:10159300A3E09608A3E09622C008C3E096F50808E6
:1015A300A3E096420808A3E096420808A3E0964504
:1015B300087001D3D00822080808EAC0E0EBC0E0B5
:1015C30086F0E7A4FA180986F0E7A42AFA18098630
:1015D300F0E7A42AFA180986F0E7A42AFA1986F094
:1015E300E7A4FBE5F02AFA190886F0E7A42BFBE54C
:1015F300F03AFA190886F0E7A42BFBE5F03AFA185B
:10160300180986F0E7A4C5F02BFBE43AFA1908E7BA
:10161300C5F0C6A426F6E5F03BFBE43AFA1886F0DB
:10162300E7A4F6E5F00826F6E43B08F6E43A08F604
:10163300D0E0FBD0E0FA22E4CFC0E0E4CEC0E0E4A7
:10164300CDC0E0E4CCC0E075F020C3E633F608E695
:1016530033F608E633F608E633F6181818EC33FCCD
:10166300ED33FDEE33FEEF33FFC3EC9709ED97093E
:10167300EE9709EF97191919400FFFEC97FC09ED45
:1016830097FD09EE97FE191906D5F0BEECF709EDA3
:10169300F709EEF709EFF7191919D0E0FCD0E0FDCF
:1016A300D0E0FED0E0FF226016080808C6C313C6C8
:1016B30018C613C618C613C618C613C6D5E0EA2241
:1016C3007009080808226016181818C6C333C6081C
:1016D300C633C608C633C608C633C6D5E0EA22E613
:1016E30027F60809E637F60809E637F60809E63764
:1016F300F622E026F608A3E036F608A3E036F6085D
:10170300A3E036F622E026F008A3E036F008A3E0D3
:1017130036F008A3E036F022C3E697F60809E69709
:10172300F60809E697F60809E697F622C3E096F06D
:1017330008A3E096F008A3E096F008A3E096F02251
:10174300E056F608A3E056F608A3E056F608A3E031
:1017530056F622E056F008A3E056F008A3E056F050
:1017630008A3E056F022E0F608A3E0F608A3E0F6AB
:1017730008A3E0F622E6F008A3E6F008A3E6F008E3
:10178300A3E6F022E0FAA3E0FBA3E0FCA3E0FD2242
:10179300EAF0A3EBF0A3ECF0A3EDF022CAC0E0E67D
:1017A300F0A308DAFAD0E0FA22CAC0E0E0A3C582C7
:1017B300CCC582C583CDC583F0A3C582CCC582C504
:1017C30083CDC583DAE6D0E0CA22C3E498F8E4996E
:1017D300F912180E8026C3E49AFAE49BFBE920E78A
:1017E300E912180EE498F8E499F922C3E498F8E4AE
:1017F30099F912180EE498F8E499F9C3E49AFAE413
:101803009BFB22EB20E7CFE920E7E0B90010BB0008
:1018130008E88AF084F8AAF022E4FBC8FA22EB7005
:10182300227B10C833C8C933C9335007C39AC3DBFB
:10183300F280069A50012ADBEAC833F4C8C933F4AC
:10184300C9FA2275F008E4C833C8C933C933C99A41
:10185300C99B5004C92AC93BD5F0ECFBC833F4C873
:10186300E4C9FA22600D08C6A2E713C618C613C658
:10187300D5E0F322600C08C6C313C618C613C6D539
:10188300E0F422700422600D18C6C333C608C633C1
:10189300C6D5E0F41822251810AF08F51840021534
:1018A300198008F51840021519D2AF22C0D02518A7
:1018B30010AF08F518500205198008F518500205F5
:1018C30019D2AFD0D0222518F58210AF08F51840F1
:1018D3000215198008F51840021519D2AF8519832E
:1018E300222518F582E43519F58322E4732518C5FA
:1018F30082C0E0E51934FFC583C0E0E518C39582D3
:1019030024F810AF08858319858218800885831908
:10191300858218D2AFCEF0A3E520F0A37808E608BD
:10192300F0A3DEFAEFF0A3E58124FAF8E608F0A3CA
:10193300E608F0A3E608F0A30808E608F0A3E60823
:10194300F0A315811581D0E0FED0E0F81581158153
:101953001581E8C0E0EEC0E0222518C582C0E0E5AD
:101963001934FFC583C0E0E518C3958224F910AF8D
:10197300088583198582188008858319858218D282
:10198300AFCEF0A3E520F0A37808E608F0A3DEFAD3
:10199300EFF0A3E58124FBF8E608F0A3E608F0A343
:1019A3000808E608F0A3E608F0A315811581D0E046
:1019B300FED0E0F815811581E8C0E0EEC0E0228595
:1019C3001983851882E0A3FEE0A3F5207808E0A33D
:1019D300F608DFFAE0A3FFE0A3C0E0E0A3C0E0E085
:1019E300A3C0E0E0A3C0E0E0A3C0E010AF0885829D
:1019F300188583198008858218858319D2AFD0830F
:101A0300D082020135851983851882E0A3FEE0A305
:101A1300F5207808E0A3F608DFFAE0A3FFE0A3C00F
:101A2300E0E0A3C0E0E0A3C0E0E0A3C0E010AF08A3
:101A33008582188583198008858218858319D2AF1A
:101A4300D083D08222C0D02518C582C0E0E51934E6
:101A5300FFC583C0E0E518C3958224F310AF088562
:101A630083198582188008858319858218D2AFC8A7
:101A7300F0A3E9F0A3EAF0A3EBF0A37908E709F0F8
:101A8300A3D8FAECF0A3EDF0A3EEF0A3EFF0A3D00C
:101A9300E0F0A3D0E0F0A3D0E0F0A3E520F0A3E5CD
:101AA300F0F0A322851983851882E0C0E0A3E0F952
:101AB300A3E0FAA3E0FBA37808E0F608A3DFFAE0CB
:101AC300FCA3E0FDA3E0FEA3E0FFA3E0C0E0A3E0EE
:101AD300C0E0A3E0F5D0A3E0F520A3E0A3F5F01068
:101AE300AF08858319858218800885831985821834
:101AF300D2AFD082D083D0E0F8D0E0327404800635
:101B0300740280027401C0E0F4041218C9D0E01218
:101B1300179F227404800474028000CCC0E0EDC0DF
:101B2300E0E518C39CCCAD1950011D10AF068C180D
:101B33008D1980068C188D19D2AF1217ACD0E0FD29
:101B4300D0E0FC22D083D082E9C0E0E493A3C38633
:101B5300F0C5F095F0F908E493A386F0C5F095F08D
:101B6300700BE493A3C3994005E9048002A3E475D1
:101B7300F002A42582F582E5F03583F583D0E0F900
:101B8300E493A3C0E0E493C0E022D083D082ECC00E
:101B9300E0EDC0E0E493A3FCE493A3FDED4C600D02
:101BA300121BD9EC24FFFCED34FFFD80EFE493A37B
:101BB300FCE493A3FDED4C600D121C18EC24FFFC18
:101BC300ED34FFFD80EFD0E0FDD0E0FCE493A3C053
:101BD300E0E493C0E022C0E0C3E493960874019369
:101BE3009618400FE49366700808740193661870A2
:101BF300007019A3A3C3E49396087401939618A3E2
:101C0300A3400DD0E0D0E0D0E0021BC9A3A3A3A35F
:101C1300A3A3D0E022C0E0C0F088F0E4936670088C
:101C23000874019366187000A8F0A3A3700BD0F09A
:101C3300D0E0D0E0D0E0021BC9A3A3D0F0D0E022D3
:101C4400C2AF02000022C0E074F2121A48A2AFE44C
:101C540033FED2AFE589A2E04006E589A2E1500354
:101C64001207DA758900758900C2C5751A00EEA2DB
:101C7400E092AF7F01021AA7C0E0C0D0E8C0E0E95B
:101C8400C0E0E5A8D2AFC2C7751A00A2E7A2E792E6
:101C9400AFD0E0F9D0E0F8D0D0D0E03274F512192A
:101CA4005CEAFEEBFFEE2434F8EF3400F98808898F
:101CB40009EE2435121DCCF8EE2437121DCCF50A9A
:101CC400EC850AF0A4FCAAF0850AF0EDA42AFDE84C
:101CD4002CF8E43DF97A257B0012180EEA85088277
:101CE400850983F074075AF87401B800028004C3AC
:101CF40033D8FCFBEA131313541FF8EE28F8EF341F
:101D040000F9E8245DF582E9121DCF5B6003EA80E7
:101D14001CEE2436121DCCF5F0EA84A8F0EE28F867
:101D2400EF3400F9E82438F582E9121DCFF97F0475
:101D3400021A0874F512195CEAFEEBFFEE24341261
:101D44001DCCC0E0EE2435F582EF3400F583D0E0FD
:101D5400F08E828F83A3A3A3A3A3E0FAA3E0FB8E58
:101D6400828F83A3A3A3A3A3A3A3E0FCA3E0FDEC1E
:101D7400C39AF50AED9BF50BEE247FF508EF3400CA
:101D8400F509850882F583E06401702BEE2480F563
:101D940082EF3400F583121B1A121DD57402121837
:101DA400AFE960137C0D7D07EEFAEFFB1210CE85D0
:101DB4000882850983E4F0AC0AAD0BEEFAEFFB125E
:101DC4001CA0122869021D32F582EF3400F583E06D
:101DD40022C082C083851882851983E0F8A3E0F9C4
:101DE400C3EA9CEB9D5010C3EC98ED99401BC3EAE9
:101DF40098EB995014800EC3EA98EB994007C3EC12
:101E040098ED994004790180027900D083D0822230
:101E1400EAC39CFAEB9DFB2274ED12195C9005D386
:101E2400E064086005E06407702C9061C8E06026F7
:101E3400900601E0F874FF68601CE875F003A4C81C
:101E4400AAF02AF9740328FE740639FF8E828F8360
:101E5400A3A3A3E070057900021FBCEE2468F5106B
:101E6400EF3400F511906060E0851082851183F0F5
:101E7400750A76750B07750800750900E5D914F520
:101E84000EE5D95403F50F601CEE2482F50CEF34F3
:101E940000F50D7403650F6058E50E6013EE2467BA
:101EA400121DCC700B793DEEFAEFFB1210F280A6F6
:101EB400900771E064016026850C82850D83E060E3
:101EC40004780480027800850E08E508C398FA9522
:101ED400E0FB120F728A088B09EA45097006121397
:101EE40050021E5A850C82850D83E070048A0A8B89
:101EF4000B78008016E5D9C0E08812E50A2512F5B2
:101F040082E50B3400F583D0E0F008E8C3950E4079
:101F1400E4850C82850D83E0602874FC250EF50EA3
:101F2400780A121B03AC0EA90FEEFAEFFB1211A0F4
:101F340074021218AFE9700AAA08AB0912087002F9
:101F44001EA97403650F6058850E0C750D00780C7E
:101F5400121B03AC0AAD0BAA08AB0912116474027C
:101F64001218AF851082851183E0F87480687005BB
:101F7400750C7F8002880CE50CF50A780A121B07A1
:101F8400E50FF50A780A121B07A90EAC08AD0990F3
:101F94000601E0FA7B00120E0A74021218AF8013D5
:101FA4009005D3E06408600BAC0AAD0BEEFAEFFBCE
:101FB40012123612135C79017F0C021A0874F312A0
:101FC400195C74FC121899EAFEEBFF8908A2AFE4CD
:101FD40033F509C2AFEE2463F50AEF3400F50B8044
:101FE40010AA0AAB0B12111C120870900714E0041B
:101FF400F0850A82850B83E0F8A3E0F9E849602FB5
:10200400E82402FAE93400FBEA2402F50CEB34007C
:10201400F50D780C121B038A828B83E0FCA3E0F994
:10202400EEFAEFFB12111074021218AFE960B290CD
:102034000714E06057900715E0F8900714E0C39880
:10204400500C740265087044900716E0603E8E825E
:102054008F83A3A3A3A3E08518828519831220A0EC
:1020640074021218E4E81220A0900713E028F07418
:10207400021218E4AC82AD83851882851983AA8282
:10208400AB837901120E16900714E4F0E509A2E07F
:1020940092AF74041218AF7F06021A08F0A3E4F09A
:1020A400900714E0F82200008521878522C622C00B
:1020B400E074EF121A48A2AFE433FEC2AF759B007E
:1020C400906182E0A2E05012E591A2E0500C75917B
:1020D400FE740165217003121E1CE0A2E55051E557
:1020E40091A2E5504B7591DF9005D3E0640760053C
:1020F400E06408702374016521703579019006014C
:10210400E0FA75F003A4CAA8F028FB74032AFA7451
:10211400063BFB121FC18018E0640D70139005F597
:10212400E004F064287002E4F07A00E0F91213622B
:10213400906182E0A2E640030221DAE591A2E64042
:10214400030221DA7591BF9005D3E064057008128B
:102154001278121284800312127E7521001212F07A
:10216400E99005D4F079001212E41210387A017B58
:10217400009005D2E0F912056A907803E064427099
:1021840055900775E014F0704DC2AF12219200789B
:102194002AD0E0F618D0E0F6E59F540770057509DB
:1021A400FF800375097FC4C0E07829E6F50808E6D6
:1021B4005509F509740B7808121877D0E02508F84A
:1021C400906270E0A2E740F8E8C333906272F09046
:1021D4006270E0D2E0F0906181E0A2E35009E5E9A9
:1021E400A2E3500375E9F7A3E0A2E75009E591A241
:1021F400E7500375917FEEA2E092AF7F04021AA725
:10220400C0E0C0D0C082C083906183E0A2E05009E6
:10221400E5BFA2E0500375BFFEE0A2E15009E5BFAF
:10222400A2E1500375BFFDE0A2E25009E5BFA2E2BE
:10223400500375BFFBE0A2E35009E5BFA2E35003DE
:1022440075BFF7E0A2E45009E5BFA2E4500375BFEF
:10225400EFE0A2E55009E5BFA2E5500375BFDFE05A
:10226400A2E65009E5BFA2E6500375BFBFD083D0F4
:1022740082D0D0D0E032C0E074F2121A48E5A7A2AE
:10228400E4500FE5A1A2E4500953A7EF75A1EF12A2
:1022940022CEE5A7A2E5500CE5A1A2E5500653A77E
:1022A400DF75A1DFE5A7A2E15009E5A1A2E1500392
:1022B40075A1FDE5A7A2E2500CE5A1A2E2500653E8
:1022C400A7FB75A1FB7F01021AA774F812195C75AC
:1022D40021019005D3E0640670077A007B00121296
:1022E40060A2AFE433FED2AF9005D9E06401701868
:1022F4007A207B009005D2E0F91205F47A207B0065
:102304009005D2E0F9120570906182E0D2E6F09077
:102314000772E0602185C62280169005D8E064012A
:102324007008E5C654F84405F5C653BEFC1220AC4B
:102334007401652160E4EEA2E092AF7F01021A0805
:102344008E238F2485822885832785188285198387
:10235400E0CEA3E0CF852882852783EBC9EAC8EDC8
:10236400CBECCA75F010C3E833C8E933C9EA33CA01
:10237400EB33CBC3EA9EF526EB9FF525B35004ABB4
:1023840025AA26EC33CCED33CDD5F0DAAE23AF2439
:102394002274E912195C74FA121899EAFEEBFF8CA4
:1023A400088D099005D3E024F7C3940550067510F1
:1023B400010224C01211D68A0A8B0BEA450B700362
:1023C4000224BD1212968A0C8B0D121296EA650C29
:1023D4007003EB650D60ECEEFCEFFD85188285194A
:1023E40083AA82AB8312129C850A82850B83A3A3E2
:1023F400780C121769908F92780C12174385188203
:102404008519837814121769908F927814121743E0
:10241400780C791412157B501F780C791412171B41
:10242400908F76780C12159B4047850C10850D1102
:10243400850E12850F138045908F768514108515AF
:10244400118516128517137810790C12171B781042
:1024540012159B501C751000751100751200751330
:10246400017810791412171B7810790C1216E28077
:102474000C7510017511007512007513007409783C
:10248400101216C3908FC6780C1217697810790C45
:1024940012163A9005D3E06408600AE06406600509
:1024A400E064057020908F7A781012159B50169076
:1024B4008F9E78101216F5800C751000751100753A
:1024C4001200751300850882850983781012177825
:1024D40074061218AF7F10021A0874F712195C12EE
:1024E40012AE900770E064017010906245E4F0A3AE
:1024F400F053F4F343FE0C5390F312124EE5C6541A
:10250400804449F5C6E59E547F644970F89061851E
:10251400740FF090076EE0F47002A3E0602C75086D
:102524000175090090076EE07808121886E508F432
:10253400FAA3E0600814600A14600C800DEA52806B
:102544008008EA52908003EA52A079007F02021ABE
:102554000874F712195CE9FEEAFF74016E700C7AD4
:10256400807B009005D2E0F912056A902878E49304
:10257400F46008E493F912101A800953C680E59EAA
:10258400547F70FA121254900770E06401700312C1
:10259400105090076EE0F47002A3E0602A75080101
:1025A40075090090076EE07808121886AA08A3E05F
:1025B400600814600A14600C800DEA42808008EA06
:1025C40042908003EA42A01211D68A088B09A80817
:1025D400A909E8496017E5E170FCE82414F582E9EB
:1025E4003400F583E0F874FF68600288E174016FD9
:1025F400700A7A019005D2E0F91205C402255074DC
:10260400F112195C8A088B098C0A8D0B908F9278D1
:1026140008121743740F1218E4780C121769908F7C
:1026240092780C1217437808790C12157B908F76E8
:1026340050107808790C12171B780812159B401457
:10264400800E780C790812171B780C12159B500415
:102654007901800279007F08021A0874ED12195C6E
:102664008A088B098C0A8D0B908F92780812174375
:1026740074131218E4780C121769908F92780C1264
:102684001743780C790812157B40117808790C12DD
:10269400171BAA08AB09AC0AAD0B80227510007594
:1026A40011007512007513017810790C12171B783C
:1026B4001079081216E2AA10AB11AC12AD137F0CFC
:1026C400021A08908F9278081217698A828B83788D
:1026D400081217567F04021A0874F512195C8C82CA
:1026E4008D8378081217698A828B83780812172FD2
:1026F400122731C3E098F0A3E099122723401E90DB
:102704008FE278081217698A828B83780812170877
:102714008E828F83E02420F0A3E0344EF080A4F076
:102724008E828F83C3E09420A3E0944E22EA240493
:10273400F8EB3400F9E8FEE9FF8C828D83A3A3A3B0
:10274400A3E0F8A3E0F98E828F832274F512195C5A
:10275400E9FE900728E0FAA3E0FBEEC333F8E43384
:10276400F974E728F582748E39F583E02AF508A315
:10277400E03BF5097808121B03908F861217871225
:10278400234474021218AF8A088B098C0A8D0B74C7
:102794001078081216AAAA08AB097F04021A087452
:1027A400F112195C8A0C8B0D8C0E8D0F740F12189C
:1027B400E4E0FAA3E0FB74111218E4E0F508A3E0E6
:1027C400F5097808121B03EA2401F508EB3400F537
:1027D40009E4F50AF50B780C79081215BA908FB252
:1027E4007808121769780C79081215BAAA0CAB0D7F
:1027F400AC0EAD0F12234474021218AF8B09EA45D4
:102804000960047A0180027A00EC2AFCED3400FDB0
:1028140074131218E4E0F8A3E0F9E8FEE9FFECF819
:10282400EDF97A717B0212180E88088909E4F50A19
:10283400F50B8E828F837808121778ECF8EDF97A0D
:10284400717B0212180E8A088B0974057808121815
:10285400868E828F83A3A3A3A3E508F0A3E509F0E2
:102864007F08021A08C082C083E9906000F0D08318
:03287400D08222ED
:10287800FFFFFFFFFFFFFFFFC082C083E9900CF15D
:10288800F0022B0F74F71218F0E9900512F07C4A49
:102898007D057AFF7BFF120D5C90051374FFF0A392
:1028A800F0A3E4F0A3F07905120CE4900512E0F926
:1028B800120C067A7A7B0D120F247F010219C2745A
:1028C800F41218F08A088B09EB54806030900512D6
:1028D800E0F91205528A0A8B0BAE0AAF0BEE4F6075
:1028E800138E828F83E064B07003120CFCEEFAEF53
:1028F800FB120540AA08E5096480FB80047A007B86
:1029080000022ADE74F21218F074FC121899EAFE1A
:10291800EBFFEE4F603874021218E4EEF0A3EF12EA
:102928002D43ECF0A3ED122D43AA82AB83120C00C9
:10293800E9F508707374121218E41238F7E50A45BD
:102948000B60658E828F831229BAEE4F7005750869
:102958000280557A067B001205AC8A0C8B0DA80CF8
:10296800A90DE8497005750813803D88828983E4BC
:102978001229C4A3A3EEF0A3EF123D90E50AF0A339
:10298800E50BF0900518122A4C9005186017E0FC2A
:10299800A3E08003EAFCEBFD8C828D83122A4C7045
:1029A800F38C828D8312381CA90874041218AF02A4
:1029B8003F92A3A3A3A3E0FEA3E0FF22F0A3F08825
:1029C8008289832274F21218F0890AE975F017A433
:1029D800FEAFF0900517E4F0900515122A4C600A36
:1029E8001205B2900515E4F0A3F0EEFAEFFB12051C
:1029F800AC8A088B09EA4509602FEEFCEFFD7900E7
:102A080012052E900515E508F0A3E509F07B008076
:102A180008122A36E4F0A3F00BEBC3950A40F2E55E
:102A28000A900517F0790080027913023F92EB753E
:102A3800F017A4F8A9F0900515E028FAA3E0398A60
:102A480082F583221235B2EA4B2274F41218F0751B
:102A58000800750900740C1218E4123D64FEE9FFC1
:102A6800800CE5082401F508E5093400F509C3E5FB
:102A7800089CE5099D503285080A85090B7403787E
:102A88000A121886EA250AF8EB350BF98882898339
:102A9800A3A3A3A3A3A31238F7EE650A7003EF65F7
:102AA8000B70BFE8FAE9FB80047A007B008027748A
:102AB800F41218F07900EAA2E0501B750840750975
:102AC8008F7808121B037C047D007AF37B0C120CB0
:102AD800DE74021218AF7F040219C2C082C083904C
:102AE8000518122B16601C88828983A3A3E06A70DC
:102AF80003A3E06B8882898370E8A3A3A3A312359C
:102B0800AE80047A007B00D083D082020135124067
:102B180065E8492274EE1218F074FC121899EAFE5E
:102B2800EBFF851882851983E4F0A3F0EE240212E6
:102B38003800EE2405122D31EE2404F50EEF123183
:102B480016E024FE603924FC604624FE605224FE10
:102B5800605E24FE7003022C3624FE7003022CAE45
:102B680024FE7003022CBD24FE7003022CCC24FC2E
:102B78007003022CDB24FE7003022CEA022D27903E
:102B880005317417F0A3E4122D4B12097E022D278C
:102B9800851882851983AC82AD83120D02022CF749
:102BA800851882851983AC82AD83120D08022CF733
:102BB800850C08850D0974021218E4AC82AD838572
:102BC80008828509831235AE120C248A0C8B0DAC51
:102BD8000CAD0DEC4D6042E4F50CF50D780C121BB4
:102BE80003750C31750D05780C121B03750C3275C5
:102BF8000D05780C121B0374081218E4121B1A79BD
:102C0800161235A8120D4474081218AFE9F50C70A5
:102C18000B1235A4120996800F750C018508828560
:102C28000983122D3912381C850C08022CFA7402FB
:102C38001218E4AC82AD83850C82850D831235AE03
:102C4800120C248A108B11AC10AD11EC4D60438529
:102C58000C82850D83A3A3121B1A751031751105FB
:102C68007810121B037510327511057810121B03AA
:102C780074081218E4121B1A79161235A8120D449A
:102C880074081218AFE9F509700B1235A412099CE3
:102C9800800F750901850C82850D83122D39123834
:102CA8001C850908804C851882851983AC82AD8300
:102CB800120D0E803A851882851983AC82AD831275
:102CC8000D14802B851882851983AC82AD83120D73
:102CD8001A801C851882851983AC82AD83120D2059
:102CE800800D851882851983AC82AD83120D26E983
:102CF800F508E50860298E828F83A3E06414601FBD
:102D0800850E82850F83E0900531122D43124061B4
:102D180090053212381CE508A3122D4B120978EEE3
:102D2800FAEFFB120CA2023708F50CEF3400F50D90
:102D38002212406585188285198322F085188285BC
:102D4800198322F07C317D05850A82850B83123533
:102D5800B22274EE1218F074FC1218998A0A8B0BBE
:102D68008C0E8D0FEA2405F508EB3400F5097C1567
:102D78007D0079007A317B0512052EE5082402F5DD
:102D88000CE509122D3485188285198385821085F2
:102D980083117810121B03850882850983A3A3A3D6
:102DA800A312325E121B03E5082405F510E5093469
:102DB80000F5117810121B03850C82850D831235DE
:102DC800B8120C1E74061218AF8A108B11AE10AF11
:102DD80011E50A2402F50AE50B123803EE4F7003D9
:102DE800022F20801774021218E41235AE888289E7
:102DF80083EAF0A3EBF0900531E004F0900531E0B0
:102E0800C394054003022F20E4F510F51178101241
:102E18001B0375101A7511057810121B0375101B0A
:102E28007511057810121B0374061218E4121B1A88
:102E38007910EEFCEFFD1235A8120D447408121833
:102E4800AFE9705E850882850983A3A3A3A3A3A322
:102E5800A3E0F890051AE068704812325E121B036E
:102E68007C1B7D05E5082408FAE5093400FB1205FA
:102E78002874021218AFE960298E828F83A3A3A356
:102E8800A31235AE900531E0F510740278101218CF
:102E98008674322510F58274053511F583EAF0A39E
:102EA800EBF074021218E4858210858311781012F1
:102EB8001B0374021218E4121B1A850C82850D83F9
:102EC800124076120C2A74041218AF8A108B11AEB5
:102ED80010AF11900531E0F51075110074027810EB
:102EE80012188674312510F874053511F98882890D
:102EF80083A3122A4C7003022DE4E82403F8E93472
:102F080000F9EE4F6003022DED8882898374FFF08B
:102F1800A3F0900531E004F0900531E0600A123525
:102F2800A412098A7900800B8508828509831238E2
:102F380013790A02370874EA1218F074FE12189905
:102F48008C128D13EA2405F50CEB1241E01229BE10
:102F5800750800750900EA2402F510EB3400F51134
:102F680085188285198385820A85830B780A121B46
:102F780003850C82850D83A3A3A3A3123120121B02
:102F880003E50C2405F50AE50D123803780A121B2F
:102F980003850C82850D83124074120C1E74061270
:102FA80018AF8A0A8B0BEA450B70030230D1EA246A
:102FB80004F50EEB1231161229BE8A828B83A3A365
:102FC800A3E0F98510828511831235AE120C0CE945
:102FD800F50960030230D1E4F514F5157814121BD5
:102FE8000375141A7515057814121B0375141B75CF
:102FF80015057814121B0374061218E4121B1A79AB
:1030080013AC0AAD0B8510828511831235AE120DF3
:103018004474081218AFE9F50960030230D190052D
:103028001AE0F8E5087009E02402900532F08017EC
:10303800900532E0FCE82402FAE43400FBEA6C7004
:1030480001EB60030230D5850882AA8212325594BA
:103058001412324D5073850E82850F83E0C0E074E0
:10306800332A12310DD0E0F00508850E82850F83D2
:10307800A3E0C0E085080A7433250A12310DD0E0B8
:10308800F0050890051A123120121B037C1B7D05E0
:1030980085080A7433250AFA74053400FB120516EC
:1030A80074021218AF90051AE02508F50874FF6E2F
:1030B800700374FF6F6012EE24010EEF3400FFE519
:1030C80008C394145003022F68E50860131234995A
:1030D8008510828511831235AE120990790080140B
:1030E800E509700375090A851282851383EEF0A33A
:1030F800EFF0A90974021218AF7F0E0219C28508F1
:103108000C7433250CF58274053400F583223400E1
:10311800F50F850E82F58322123DA32274EE121854
:10312800F074FE1218998C0E8D0FEA2405F50CEB3D
:10313800122D34750B00900531E4F0F50AEA2402EB
:10314800F508EB3400F5098049900531E0FA90055F
:103158001AE0F8123255941712324D400D9005318D
:10316800E0F87416C39890051AF012325E121B0329
:103178007C1B7D0574322AFA74053400FB1205168F
:1031880074021218AF90051AE0F8900531E028F0A3
:10319800050AE50C2416F582E50D123111E0F8E573
:1031A8000AC3984003023236900531E0C3941650A2
:1031B8007DE50AC333F8E433F9E50C28FEE50D395B
:1031C800FF851882851983AC82AD838E828F831226
:1031D80035AE120C248A108B11AC10AD11EC4D7069
:1031E80005750B018043E4F510F5117810121B03E7
:1031F80075101A7511057810121B0375101B7511BF
:10320800057810121B0374061218E4121B1A79169B
:103218008508828509831235AE120D447408121888
:10322800AFE9F50B700302315112380F80107C3171
:103238007D058508828509831235AE1209A2A90B7E
:10324800740202370AE99400C365D03322EA28F8E9
:10325800E43400F9E822E0F51075110078102274C2
:10326800EA1218F074FC1218998A0C8B0D8C128DC6
:1032780013EA2405F50AEB123803750800750900EE
:10328800E50A2402F510E50B3400F5117402121852
:10329800E485820E85830F780E121B03850A8285CA
:1032A8000B83A3A3A3A3123D4F121B03E50A240516
:1032B800F50EE50B3400F50F780E121B038510820E
:1032C8008511831238091235A8120C1E74061218BB
:1032D800AF8A0E8B0FAE0EAF0FE50C2402F50EE58C
:1032E8000D3400F50F80408882898374FFF005084B
:1032F80012310674FFF0050890051AE0F50C750DFB
:1033080000780C121B037C1B7D0585080C74332583
:103318000CFA74053400FB12051674021218AF90EB
:10332800051AE02508F508EE4F60718E828F83A399
:10333800A3A3E0F9850E82850F831235AE120C0C1B
:10334800E9F509EE2404122D31E97044E4F514F589
:10335800157814121B0375141A7515057814121BA9
:103368000375141B7515057814121B0374081218BD
:10337800E4121B1A7911EEFCEFFD850E82850F838E
:103388001235AE120D4474081218AFE9F50960271A
:10339800850C82850D8312348F12381CE508700362
:1033A800023475123499850E82850F831235AE1258
:1033B80009A8790002348A850882AA82EA90051A47
:1033C8007009E02404900532F08022E0F89005327C
:1033D800E0F514E82404FCE43400FDEC6514700105
:1033E800ED70C0123255941212324D50B6850C82CF
:1033F800850D83E0C0E074332A12310DD0E0F0056A
:1034080008850C82850D83A3E0C0E0123106D0E068
:103418001234AB85820C85830D780C121B0374045F
:103428001218E4121B1A8510828511831240761235
:103438000C2A74041218AF8A0C8B0DAE0CAF0D85D4
:10344800080C7433250CF874053400F9EE4F70033A
:103458000232EF851882851983E0888289831234C5
:10346800ABA3E0C0E0123106D0E00232FDE50970FE
:103478000375090A850A82850B8312348F12381C5A
:10348800A90974040230FE124065851282851383EF
:1034980022900532E0F5F0E50884900531F07C31A2
:1034A8007D0522F005088518828519832274EC129F
:1034B80018F074FE1218998A088B098C0E8D0FEA81
:1034C8002405FEEB3400FF851882851983AC82AD94
:1034D800838E828F831235AE120C248A0A8B0BEEF0
:1034E8002418122D31EA450B700302357F1236F18C
:1034F80050328518828519831235AE120D388A101C
:103508008B11EA4511606B7912AC0AAD0B85088204
:103518008509831235AE8510828511831218EEE96C
:10352800F50A7058E4F50AF50B780A121B038E8227
:103538008F83A3A3E0F50A780A121B03EE24031273
:103548003800780A121B038E828F831235B8120D49
:103558004A74061218AFE9F50A7021850C82850DA8
:1035680083E0701F8508828509831235AE1209AE83
:103578008011750A0E8009750A018004E50A600346
:1035880012380F850C82850D83E060047900800273
:10359800A90A74021218AF7F0C0219C27C317D058A
:1035A800850A82850B831235B222E0FAA3E0FB225A
:1035B800E0FCA3E0FD8508828509831235B22274F8
:1035C800EE1218F074FE1218998A088B098C0C8D6B
:1035D8000DEA2405FEEB3400FF750E008518828580
:1035E8001983AC82AD838E828F831235AE120C2480
:1035F8008A0A8B0BEA450B70030236DD1236F1504E
:10360800358518828519831235AE120D388A0E8BCE
:103618000FEA450F605E7912AC0AAD0B850882850A
:1036280009831235AE850E82850F831218EEE9F5EF
:103638000E60030236E08508828509831238F7AAEE
:103648000AFB120D2C8A108B11A810A911E84970D9
:103658001E7AFF7BFF120D2C8A108B11A810A9115E
:10366800E849606C88828983E50AF0A3E50BF07568
:103678000A008007750E0E805F050A900517E0FAAC
:10368800E50AC39A504AE50A75F017A4FAABF08820
:10369800828983A3A3E02AFAA3E03BFB8A828B8377
:1036A800123809EC4D70D2750A17750B00780A129A
:1036B8001B03EEFCEFFD12051674021218AFEEFCA8
:1036C800EFFD8508828509831235AE1209B480148E
:1036D800750E098003750E0112405D850C82850DFB
:1036E8008312381CA90E023248E5082402F508E5C1
:1036F800093400F5098A828B83A3A3A3E0A2E522FB
:1037080074041218AF7F0A0219C274EC1218F08CF4
:10371800108D11EA2405F50CEB122D34750F00EA13
:103728002402F50AEB123803850A82F5831235AEB6
:10373800120D2C8A088B09EA450970030237F575C2
:103748000E008071850C82850D83E06401704F8EB8
:10375800828F83A3A3121B1A8E828F83A3A3A3A392
:10376800E0F5127513007812121B03EE2405F5120A
:10377800EF3400F5137812121B031235A8120D4A04
:1037880074061218AFE9F50F6014850C82850D8355
:10379800E4F012405D85108285118312381C7C1775
:1037A8007D007900EEFAEFFB12052E8E828F83E4FE
:1037B800F0A3F0050E900517E0F8E50EC398501E2B
:1037C800E50E75F017A4F8A9F0850882850983A38A
:1037D800A31241EA123809EC4D600302374C850800
:1037E8008285098374FFF0A3F0E50F70061235A8EF
:1037F8001209BAA90F02359FF50AEF3400F50B221A
:10380800A3E0FCA3E0FD228E828F83124065850E23
:1038180082850F83E8F0A3E9F022C082C083900577
:1038280013E06A7003A3E06B70067A137B058004CB
:103838007A007B00022B0FC082C08378008C828DB7
:1038480083E06A7003A3E06B7010E875F003A4F8D6
:10385800A9F0EC28FAED39FB8015088C828D83A33A
:10386800A3A3E06A7003A3E06B60DF7A007B000229
:103878002B0F74F61218F0120CF68A828B83E582ED
:10388800458370067A007B008007A3A3A3A31235A3
:10389800AE023F0E74F21218F0E9FE740E1218E42C
:1038A8001238F774101218E4123D6F8C828D83E081
:1038B80064027036A312406BF50CA3E0F9A80C74EF
:1038C800026870037429697021750C02750D0078FF
:1038D8000C121B037808121B03780A121B03EEF95B
:1038E800120D6E74061218AF80027901023F92E041
:1038F800F50AA3E0F50B2274E81218F074FB12180D
:1039080099E9851882851983F08A168B17ECFEEDE4
:10391800FF751000741D1218E4124061741D12180E
:10392800E412381C8E828F83A3A3A3E0A2E4502D57
:10393800741D1218E41235AE120D388A828B83E595
:103948008245837003023D40790AEEFCEFFDAA161A
:10395800AB171218EEE9F5106003023D43741F120D
:1039680018E4123D6F74211218E41238F774231208
:1039780018E4E0F50EA3E0F50F8E828F83E0640271
:103988006003023CEEA3124061850882850983A387
:10399800858212858313EE2406122D31888289834D
:1039A800E0FAA3E0F9EA2400F514E439F5157814EF
:1039B800121B8D010000280128E33907000228A8FE
:1039C8003A0328153A0029DF3B01290A3C0229ABB2
:1039D8003B0329DF3B0429893CEE3CE50E450F609B
:1039E80003023CE9850C82850D83123D64FAE9FBEC
:1039F8008A828B83E0850A82850B83123D9A121B8B
:103A0800038A828B83A3E0FCA3E0023C73E50E45A6
:103A18000F6003023CE9850A82850B837401F0126A
:103A28003D77850882850983F07C007D008E828F32
:103A380083A3A3A3A3E02401FAA3E03400FB120CA0
:103A480024EA4B60418A828B83E02402F8850A824B
:103A5800850B83E028F0EA2404F8EB3400F9888227
:103A68008983E0851282851383123DAC123D9A1238
:103A78001B038A828B83123808E5082403FAE509B8
:103A88003400FB023C78850A82850B83E02404F02D
:103A98007C047D007900AA12AB1312052E023D4367
:103AA800E50E450F6003023CE9123D77FEA3E0FFF7
:103AB800850A82850B837404F0EE85088285098364
:103AC800F0EF851282851383F074031218E4AC8238
:103AD800AD83EEFAEFFB120C248A0C8B0DEA450D30
:103AE8007003023B8C8A828B83A3A31229BA7401C8
:103AF8001218E485820E85830F780E121B03740555
:103B08001218E4121B1A7CFF7DFF120C2A7404128F
:103B180018AF8B0FEA450F7033850C82850D831221
:103B28003D4F121B03850C82850D83A3121B1A7C43
:103B3800027D007A377B90120A5674041218AFE996
:103B4800700A74011218E474FFF0A3F08E828F8358
:103B5800E064027039750C02750D00780C121B03B5
:103B68008E828F83123808E5082404FAE5093400A8
:103B7800FB12051674021218AF850A82850B83E0C2
:103B88002402800974011218E4EEF0A3EFF0740126
:103B98001218E4123D60F074011218E4A3123D58A3
:103BA800023CE3E50E450F6003023CE9850C828583
:103BB8000D83123809AA16AB17120D62850A828581
:103BC8000B837402F0EA850882850983F0851282E6
:103BD800851383EB023CE6E50E450F6003023CE9E2
:103BE800123D77F8A3E0F9850A82850B837402F009
:103BF800E8850882850983F0E985128285138302A6
:103C08003CE6850C82850D831235AE120510EAFC60
:103C18008C82A882C3950EE4950F405FE8650E700C
:103C280002E50F70047C008022851882851983E0E4
:103C3800FAE50E2AFAE50F3400FBC3EA98EB940084
:103C48005003E08005E50ECCC39CFCEC850A828518
:103C58000B83F08C0A750B00780A121B03850C8203
:103C6800850D83E0250EFCA3E0350FFDAA08AB09FE
:103C780012051674021218AF023D43751007023D73
:103C880043E50E450F705A850C82850D83124061FD
:103C9800850A82850B8374071229C6123D5812299A
:103CA800C6A3E0851282851383F0E82402FAE9347A
:103CB80000FB8A828B83123D58123D87123D60A318
:103CC800123D90123D69F0E82405F8E93400F988BE
:103CD800828983123D69A3123DACA3A3A3A3F080FC
:103CE8005A75100B8055741D1218E41235AE120C5B
:103CF800F68A828B83E5824583603D124061880C99
:103D0800890DE8450D6031780E121B03780A121BE5
:103D1800037808121B0374061218E4E0F9EEFCEFAE
:103D2800FDAA16AB17850C82850D831218EE740652
:103D38001218AFE9F510800375100EA9107405125A
:103D480018AF7F100219C2E0F50E750F00780E2229
:103D5800E085088285098322123DB622124065E873
:103D680022123DB6A3A322E0F508A3E0F5092285B7
:103D78000C82850D83E0F8A3E0F5838882E022A316
:103D8800A3F08A828B83A322F088828983A3A3A3CA
:103D9800A322F08A828B83123DA322E0F50A750BD9
:103DA80000780A22F088828983A3123DB622E08532
:103DB8000882850983A3A32274EE1218F074FE12F8
:103DC80018998A0A8B0BECFAEDFB74141218E4E0CC
:103DD800F510A3E0F51174161218E4E0FE74181239
:103DE80018E4E0F50EA3E0F50F851882851983AC79
:103DF80082AD83120C248A0C8B0DEA450D6049852F
:103E080018828519831235AE120CF68A828B83E5E7
:103E1800824583602FA3A3123D6FE50845096024FE
:103E2800780E121B037810121B03EEF9AC0CAD0DC3
:103E3800AA0AAB0B8508828509831218EE7404124E
:103E480018AF8006790E8002790102324874F612A2
:103E580018F074FE121899740C1218E4123D648557
:103E68001882851983F074011218E4E9F0E4F50862
:103E7800F5097808121B037508027808121B0374E9
:103E8800041218E48582088583097808121B031236
:103E98000D4A74061218AF74021218AF806874F7CE
:103EA8001218F0EAFEEBFF89087C4A7D05120D62C4
:103EB800EA5402600BA908EEFAEFFB120C18800214
:103EC80079010228C274F61218F074FF6A7003743C
:103ED800FF6B70168C828D83123F13E4F08C828DF9
:103EE80083A3A3A3123F13A38018120D328A088B51
:103EF80009A808A909E849600D8882898374FF1216
:103F080029C4A3A3E4F07F020219C274FFF0A3F04E
:103F18008C828D83A3A32274F61218F0120D328AB4
:103F2800828B83E58245836006A3A3E0FA80027A48
:103F3800007B0080D174F21218F08A088B09ECFE1D
:103F4800EDFF740E1218E4E0F50A120D328A0C8B9C
:103F58000DA80CA90DE8497026EEFCEFFD7AFF7B51
:103F6800FF120D328A0C8B0DA80CA90DE8497004BC
:103F78007911801688828983E508F0A3E509F0881D
:103F8800828983A3A3E50AF079007F060219C27427
:103F9800EE1218F0EAFEEBFF8C088D09890C7414F8
:103FA8001218E412406174161218E41235AE750D39
:103FB80000E84960030240557402650C6003024042
:103FC8005074121218E412406BFCA3E0F9EC2400C0
:103FD800F50EE439F50FEAF4F8EBF4F9EC58F8E5E6
:103FE8000F59F9E849705CE5082406F8ED3400F942
:103FF800880A890B8882F583124076120D628A102E
:104008008B11E50E65107004E50F65116042780E9E
:10401800121B03850A82850B83124076120D687481
:10402800021218AFE9F50D7027780E121B038508E8
:1040380082850983A3A3124074120D80740212189A
:10404800AF800D750D808008750D0D8003750D0B03
:10405800A90D02370D8E828F8312406522E0F8A3E6
:10406800E0F92212406588828983E022A3A3E0FC5C
:10407800A3E0FDEEFAEFFB2274E81218F074E712E1
:104088001899851882851983EAF0A3EBF08C168DB0
:1040980017890E75080075090074311218E4E0F5E7
:1040A80012A3E0F51374331218E4E0F514A3E0F555
:1040B8001574351218E4E0F50FE50975F003A4F856
:1040C800A9F08518828519831241EAE0F47003A3E8
:1040D800E0F470030241CDEE2402F50CEF1241E04A
:1040E800E070030241CD85160A85170B780A121B6A
:1040F80003AC14AD15AA12AB13120CEA7402121811
:10410800AF8A0A8B0BEA450B70030241CDE4F51028
:10411800F5117810121B0374061218E485821085B5
:1041280083117810121B0374091218E48582108514
:1041380083117810121B03851282851383A3A3A30E
:10414800A3121B1A7914AC0AAD0B8E828F83123519
:10415800AE120D4474081218AFE97069850A828599
:104168000B83A3A3A3A312406174021218E41238AC
:104178001C850C82850D83E0A2E05018A90E7402FC
:104188001218E4AC82AD838E828F831235AE120C86
:104198003CE94208850C82850D83E0A2E15026E5C2
:1041A8000FF50A780A121B07A90E74031218E4AC5B
:1041B80082AD838E828F831235AE120C3674011253
:1041C80018AFE942080509E509C394025003024003
:1041D800C1A9087419023D473400F50D850C82F514
:1041E8008322E028FEA3E039FF8E828F832274F2B7
:1041F8001218F0EAFEEBFF890B7401650B600E7470
:1042080002650B706A7901120F42E97062EEFAEFEB
:10421800FB120D2C8A088B09EA45096047750A00CC
:10422800800B7C177D00790012052E050A90051772
:10423800E0F8E50AC3985021E50A75F017A4F8A933
:10424800F0850882850983A3A3E028FAA3E039FB57
:104258008A828B83122B1670C9850882850983741C
:10426800FFF0A3F07C4A7D05EEFAEFFB120D5C022D
:104278003F9274F21218F08A088B09ECFEEDFF7475
:104288000E1218E41238F7900CF1E0F4603D7A0948
:104298007B0012053AEA4B60328A828B8374B1F054
:1042A800A3E4123D89A3123D87A3E508F0A3E5091D
:1042B8001242D6EEF0A3EF1242D6A3A3E50AF0A36A
:1042C800E50BF0900CF1E0F9120546023F92F08AF6
:1042D800828B83A3A3A3A3A32274F01218F074FA09
:1042E800121899890BECFEEDFF750A008A088B09F4
:1042F8007808121B470004101445244342435C43CA
:1043080074439243AA43CD43E543F9432344AB4462
:10431800BC44D344EE441445144539447401650B38
:10432800600302450F8E828F83E0F8C39403400335
:1043380002450FE8900B420244EB7402650B6003E0
:1043480002450F8E828F83124C11900B43E8F0A325
:10435800E90244EB7401650B600302450F12453C0A
:10436800400302450FE89002CE0244EB7401650B4E
:10437800600302450F8E828F83E0F8C394054003E3
:1043880002450FE89002CF0244EB7401650B60030D
:1043980002450F12453C400302450FE89002D00247
:1043A80044EB7410650B600302450F75081075091E
:1043B800007808121B037AD17B02120516740212C8
:1043C80018AF0245357401650B600302450F1245AD
:1043D8003C400302450FE89002E10244EB7401659A
:1043E8000B600302450F8E828F83E0900B460244D8
:1043F800EB7404650B600302450F8E828F83780C83
:10440800121769908F86780C12159B500302450F7E
:104418009002E3780C121778024535E960030245EB
:104428000F120BC4E9700512073280609003768082
:104438006E7407650B600302450F75080675090061
:104448007808121B038E828F83A3AC82AD8374021B
:104458001218E4AA82AB8312051C74021218AF7CEE
:10446800007D00851882851983AA82AB838E828F8E
:1044780083E0F91206D8E9F508C3940A4003024517
:1044880032120BC4E9700CA90812073879501208C7
:10449800EE806F74772508F58274033400F5837411
:1044A8000180407401650B705E12453C5059E890DC
:1044B80002E2802F7401650B704D8E828F83E0F8C5
:1044C800C3940A5042E8900B4580187401650B703C
:1044D800368E828F83E0F874F928C3940A5028E84E
:1044E800900B47F080477401650B701B900375E0D3
:1044F800F88E828F83E0900375F0E87030E06401F5
:10450800702B1207268026750A188021C3EA942783
:10451800EB940050157402650B700F8E828F831216
:104528005010120A62E9F50A8003750A02A90A7492
:1045380006024C068E828F83E0F8C394022274F040
:104548001218F074CC1218998C0A8D0B742012185A
:10455800E4AC82AD8375838F75824674061217ACFE
:1045680074201218E4AC82AD831206D8E9F50874F9
:10457800441218E4E0FEE9C3940A40030246B47505
:10458800F006E9A4F50974261218E4AC82AD837A22
:104598000E74202509F91208E8E970097432121816
:1045A800E4E0FF80027F00900B42E0640270047434
:1045B800018001E4F50D780D121B07EEFDEFFCA953
:1045C80008AA0AAB0B12075C74011218AF7C147DA1
:1045D800007900740C1218E4AA82AB8312052E74B9
:1045E8000C1218E4AC82AD837A1074242509F912F0
:1045F80008E8E9703C7C1079FF740C1218E4AA8270
:10460800AB8312058EE97029741C1218E4AC82ADD4
:10461800837A0474252509F91208E8740C1218E441
:10462800AC82AD83EFA2E0E433F9AA0AAB0B120A1D
:10463800EC851882851983AC82AD837A0C74702559
:1046480008F91208E8E97053851882851983AA8247
:10465800AB83120708750800E50875F003A4F8A9EC
:10466800F0851882851983E58228F8E583124E1AA9
:1046780012500A601D88828983A3A3E0F50E750F86
:1046880000780E121B03AA0AAB0B120D507402120B
:1046980018AF0508E508C3940440BDEFA2E1500C2B
:1046A8009002CDE0F9AA0AAB0B120D5674046E7095
:1046B80027900B42E06402701F7A009002E1E060EC
:1046C800010A9002CEE06004780480027800E84A8B
:1046D800F9AA0AAB0B120BAC79007434024C0674BD
:1046E800F01218F0EAFEEBFF8C088D09750A0AE94A
:1046F800600C146009146037146079024796120739
:104708001AE9F50AC3940A4003024796E5084509E1
:10471800607C750E06750F00780E121B03EEFCEF19
:10472800FDAA08AB0912051674021218AF805F754E
:104738000B00750E06750F00780E121B03EEFCEFCA
:10474800FDE50B75F00EA4F8A9F074EF28FA7402D1
:1047580039FB12052874021218AFE9600C850B0AA0
:10476800E50AC3940A50278016050BE50BC3940A83
:10477800501C80BE120720E9F50AC3940A500FE5C1
:104788000845096009AA08AB09A90A120714A90A69
:10479800024C0974F41218F0890875091574FF6A37
:1047A800700374FF6B70277E00AC087A027B00EE02
:1047B800F91206F6E960037509000EEEC3940A4083
:1047C800E8E50860537A4A7B07120F54804A120FB3
:1047D800368A0A8B0BAE0AAF0BEE4F60387C007D31
:1047E80000EE2405FAEF3400FB8E828F83A3A3A387
:1047F800A3E0F91206D8E9C3940A500CAC087A026F
:104808007B001206F6750900E508600CEEFAEFFB6E
:1048180012074A8003750914A9098005740E121835
:10482800AF7F040219C274F21218F0ECFEEDFF75A6
:104838000815740E1218E4E0F50AA3E0F50B74FFEE
:104848006A700374FF6B7021750900AC0AAD0BEE3A
:10485800FAEFFBA9091206FCE960037508000509CF
:10486800E509C3940A503F80E2120F368A828B838F
:10487800E5824583602D7C007D00E5822405FAE50C
:10488800833400FBA3A3A3A3E0F91206D8E9C394D9
:104898000A5013AC0AAD0BEEFAEFFB1206FC7508D2
:1048A800008003750814A90802564CC082C0839082
:1048B80002E7EAF0A3EBF09002CDE0FC7D007A2657
:1048C8007B00120A629002CDE0F9120CCC0254A7C8
:1048D80074F01218F074EC121899EAFEEBFFEE244B
:1048E8000CF50CEF3400F50DEE2405F50EEF340051
:1048F800F50FEE2409F50AEF3400F50BEE2403F565
:1049080008EF3400F5098E828F83A3A3E024FA70A0
:1049180003024BAA24FD7003024AC514700302491E
:10492800B114601024FD7003024A9C147003024AFB
:10493800F9024C021258476048E0F5838882124C0D
:1049480011880E890FE8450F6037850C82850D8325
:10495800E0F50C780C121B07EE240BF582EF124DD4
:10496800E1F9850A82850B831250100A0A0AAB09FD
:10497800850E82850F831218EE74011218AF024C4F
:1049880002850A82850B83121B1A9002E31217878D
:10499800120AFE74021218AFE97003024C02790180
:1049A800850A82850B83024B758E828F83A385824D
:1049B8000A85830BE06003024A7F850E82850F8398
:1049C800E0A2E04003024A7F90038112584A600344
:1049D800024A7F7C0E7D007900851882851983AA9A
:1049E80082AB8312052E850C82850D83125472EAE0
:1049F8004B6010750C06750D00780C121B03EA2429
:104A080010801B12546C120F36EA4B7003024C02D2
:104A1800750C06750D00780C121B03EA2405FCEBD7
:104A28003400FD74021218E4AA82AB8312051674CE
:104A3800021218AF850E82850F83E0A2E25004D2DD
:104A4800F08002C2F0A2F0E433F8740C1218E4E02B
:104A580048F0EEFCEFFD851882851983AA82AB83A6
:104A680012070EE970117A027B009002CDE0F9126C
:104A7800056A7900024C041258477003024C02126E
:104A88004C177003024C02850A82850B83E0FC797F
:104A980001024B9E1258477003024C02124C0E89B9
:104AA8000BE8450B7003024C028E828F83A3E0FC57
:104AB800790212546C8882850B83024BA57C007D99
:104AC80000EE2404FAEF3400FB850882850983E0B0
:104AD800F91206D8E9F8C3940A4003024C02EE24FE
:104AE8000AFCEF124FE6E8A42425F91208E2024C6A
:104AF8000212546C9002E2E06007900B45E0F980E6
:104B08006F900B42E0700479058065120F368A0CAD
:104B18008B0DA80CA90DE82404F50CE93400F50D5B
:104B28008E828F83A3A3A3A3A3A3A3E0A2E05046EE
:104B3800E8497003024C02850C82850D83E0FE6013
:104B480035850A82850B83E05410702A740E12187A
:104B5800E4AC82AD83E82405FAE93400FBEEF912EF
:104B680006D8E97011790385088285098312547281
:104B7800120AF8024C02AC0EAD0F850C82850D832B
:104B8800E0F912546C120756125847606D124C1710
:104B980060687C00790012546C8E828F831218EE44
:104BA8008058120BC4E97052900376E064017015C6
:104BB800120732900376E4F07C0AFDF97A777B03DA
:104BC80012052E802D750A00850A0874772508FEBF
:104BD80074033400FF8E828F83E06401700BA90A8E
:104BE8001207388E828F83E4F0050AE50AC3940A17
:104BF80040D679501208EE1207267901741412185B
:104C0800AF7F080219C2124C26E0F8A3E0F922127D
:104C18004C26E0F8A3E0F9E8FEE9FFEE4F22E0F5C4
:104C2800838882A3A32274F41218F074F2121899DC
:104C3800EAFE8C0B75F006E9A42420F50885188295
:104C4800851983AC82AD837A0EF91208E8E97057AA
:104C58007C0679FF851882851983AA82AB831205A1
:104C68008EE97043740C1218E4124C11E8F509E54A
:104C78000B6005EE42098004EEF45209850982AA08
:104C880082E86A7001E9601B740C1218E4EAF0A368
:104C9800E4F0851882851983AC82AD837A0EA90861
:104CA8001208E279018002790002482474F212188D
:104CB800F074E6121899890A8A088B09ECFEEDFF50
:104CC800740C1218E4AC82AD837A0E75F006E9A470
:104CD8002420F91208E8E96003024DD47C0679FF24
:104CE800740C1218E4AA82AB8312058EE9600302E1
:104CF8004DD47470250AF50B851882851983AC820A
:104D0800AD837A0CF91208E8E96003024DD08518E2
:104D180082851983AA82AB83120708E508450970C2
:104D28002C7C0C7900851882851983AA82AB8312A2
:104D3800058EE96003024DD07C0C7D007900851852
:104D480082851983AA82AB8312052E805D8518821D
:104D5800851983AC82AD83AA08AB091207028A0CB5
:104D68008B0DA80CA90DE8497028EE4F605E8518D8
:104D780082851983AC82AD837A007B00120702EA30
:104D8800F8EBF9EA4B604588828983E508F0A3E5EA
:104D980009F0124DDBFAEE6A7001EF602BEEF04F6E
:104DA800700888828983E4F0A3F0851882851983C6
:104DB800AA82AB83120708851882851983AC82AD55
:104DC800837A0CA90B1208E2790180027900741A1F
:104DD800025649E82402F582E93400F583E022749A
:104DE800F71218F07F00EF75F003A4F8A9F0EC288B
:104DF800F8ED124E1AE06A7003A3E06B7006E8FA49
:104E0800E9FB800B0FEFC3940440DB7A007B0002C0
:104E180051C539F9888289832274F71218F07E0007
:104E2800EE75F003A4F8A9F0EA28F8EB124E1AE0A0
:104E3800F4FCA3E0F4FD88828983ECF0A3EDF01282
:104E48004DDBF4F00EEEC3940440D50251C574F264
:104E58001218F074F4121899EAFEEBFF8C088D0909
:104E680090038112584A7051EE4F7003024FDFECE5
:104E780045097003024FDF12071AE9900B48F0C387
:104E8800940A4035750B007C0679FFE50B75F00E2A
:104E9800A4FAABF074E92AFA74023BFB12058EE916
:104EA8006005850B0A800C050BE50BC3940A40D7F7
:104EB800750A0AE50A900B48F0900B48E0C3940A7B
:104EC8004003024FDF75F006E0A4FB9003811258FF
:104ED8004A706FEEFCEFFD7A0E74202BF91208E28F
:104EE8007C0C7D0079FF851882851983AA82AB83A3
:104EF80012052E851882851983AC82AD837A0C90B1
:104F08000B48E02470F91208E2750C0E750D007854
:104F18000C121B03EEFCEFFD900B48E075F00EA49D
:104F2800F8A9F074E928FA740239FB12051674021C
:104F38001218AF900381E508F0A3E509F0790002A3
:104F48004FE1E0C82406125003601A7A1B74212B23
:104F5800F91208E2124FEF2406F582E83400F583CF
:104F6800E4F0A380D7124FEF240A12500360107A9E
:104F78001B74222BF91208E2124FEF240A80DA126E
:104F88004FEF240C12500360107A1074232BF9127F
:104F980008E2124FEF240C80C0124FF81250036041
:104FA8002A7A1074242BF91208E2124FF8F582E8D5
:104FB800124DE12410FCA3E0124FE6900B48E0A448
:104FC8002425F91208E2124FF8808E900375E060EC
:104FD800031207621207507901740C025649340013
:104FE800FD7A0475F00622900381E0F8A3E0C82258
:104FF800900381E0F8A3E0C8240822F582E8340091
:10500800F583125010EC4D22E0FCA3E0FD2274F46D
:105018001218F074F2121899EAFEEBFFE9C3940A29
:105028005004EE4F70047902803E851882851983FA
:10503800AC82AD837A0E75F006E9A42420F9120833
:10504800E8E9F5087020750A06750B00780A121B46
:105058000374021218E4AC82AD83EEFAEFFB12057A
:105068001674021218AFA90802482474F41218F032
:10507800EAFEEBFF750800750A06750B00780A1240
:105088001B03EEFCEFFDE50875F00EA4F8A9F0741B
:10509800E928FA740239FB12052874021218AFE9DC
:1050A8006004A908800B0508E508C3940A40C8797C
:1050B8000A02482974F71218F074F0121899EAFED7
:1050C800EBFF750800851882851983AC82AD837A59
:1050D8001075F006E508A42423F91208E8E9702CF5
:1050E8007C1079FF851882851983AA82AB83120503
:1050F8008EE97018EEFCEFFD851882851983AA8267
:10510800AB83120ACEE97004A908800B0508E508EC
:10511800C3940A40B0790A74101218AF0251C574CA
:10512800F71218F0750800E50875F00EA4F8A9F054
:1051380074E928FE740239FFEEFCEFFD7A0E75F073
:1051480006E508A42420F91208E8E9602C7C067D0D
:105158000079FFEEFAEFFB12052E7C067D0079FF41
:10516800EE2406FAEF3400FB12052EEE240CF5822D
:10517800EF3400F583E4F0A3F00508E508C3940ACA
:1051880040A5900375E06003120762120750802D56
:1051980074F71218F07E007F007C0679FFEF75F037
:1051A8000EA4FAABF074E92AFA74023BFB12058EDE
:1051B800E970010E0FEFC3940A40DEEEF97F010299
:1051C80019C274F71218F07E00EEF91207380EEEC5
:1051D800C3940A5003E960F180E374F31218F07481
:1051E800CB121899E9FE900B48E06E701B7A017B90
:1051F800009002CDE0F91205707A027B009002CD92
:10520800E0F912057012076E75F006EEA4FF74201F
:105218002FF50874271218E4AC82AD837A0EA9081A
:105228001208E8E9600302531C7C0679FF74271210
:1052380018E4AA82AB8312058EE9600302531C7C32
:105248000E7D0079FF74271218E4AA82AB83120539
:105258002E7C1B7D0079FF740C1218E4AA82AB83A4
:1052680012052E7C0C7D0079FF851882851983AA8A
:1052780082AB8312052E74271218E4AC82AD837AB0
:105288000EA9081208E2E9F508740C1218E4AC82B9
:10529800AD837A1B74212FF91208E2E9F509740C21
:1052A8001218E4AC82AD837A1B74222FF91208E23B
:1052B800E9F50A740C1218E4AC82AD837A107423F1
:1052C8002FF91208E2E9F50B740C1218E4AC82AD60
:1052D800837A1074242FF91208E2E9F50C740C1281
:1052E80018E4AC82AD837A0474252FF91208E2E938
:1052F800FF851882851983AC82AD837A0C74702E71
:10530800F91208E2E9F8E509450A450B450C4F484A
:1053180042088003750800A90874351218AF7F0584
:105328000219C274F71218F0E99002CDF01207269C
:105338000251C574F41218F0EAFEEBFF54807003B2
:105348000253D39002CDE0F91205528A088B09EA7C
:105358004509607078018A828B83E02450603D148F
:10536800600624E1604F8052A3A3A3A3E0704E8A95
:10537800828B83A3A3A3A3A3A3A3121B1A8A828B42
:1053880083A3A3A3A3A31250108A828B83A3A3127F
:1053980054721206E474021218AF8021A3A3A3A3C7
:1053A800E0641E701879008A828B83A3A31254725A
:1053B8001206DE80081206F0E9F8E86007AA08ABD2
:1053C80009120540EEFAEF64808065EE540260230E
:1053D8007C007D007A007B0012070EE960117A01DB
:1053E8007B009002CDE0F912056AEE6402803F7AF4
:1053F800028046EEA2E0503F125446125472120741
:1054080068E9602F125847601F124C0E88088909F6
:10541800E8450960137C00790112544612547285DC
:1054280008828509831218EE12076EEE6401FAEFFE
:10543800FB80087A0180027A007B000248299003E9
:1054480081E0F8A3124C26A3227F020219C2C0826F
:10545800C0839002CDE0F98A828B83A31254721222
:105468000D56803B850882850983E0FAA3E0FB227C
:10547800C082C08374FF12189912072CE9C39402E2
:10548800851882851983400474028002740AF0AC7E
:1054980082AD837A017905120BDC74011218AFD042
:1054A80083D08202013574F21218F074E812189948
:1054B800EAFEEBFF890A8C088D097C187D007900CB
:1054C800851882851983AA82AB8312052E851882D6
:1054D800851983EEF0A3EFF09002CFE0C0E07402EC
:1054E8001218E4D0E0F09002D0E0C0E07403121883
:1054F800E4D0E0F0900B47E0C0E074171218E4D055
:10550800E0F074151218E4E054FEF8A3E0F9900BEB
:1055180046E0A2E0E433FAE84AF874151218E412F7
:105528005658A2E15004D2F08002C2F0E854FDFAC5
:10553800A2F0E43333F8EA48F874151218E4125666
:1055480058A2E35004D2F08002C2F0E854F7FAA25D
:10555800F0E433F50C750D007403780C12188612FC
:1055680056511218E4125658A2E45004D2F08002A0
:10557800C2F0E854EFFAA2F0E433F50C7404780CA6
:105588001218861256511218E4125658A2E5500401
:10559800D2F08002C2F0E854DFFAA2F0E433F50C4E
:1055A8007405780C1218861256511218E4125658BF
:1055B800A2E25004D2F08002C2F0E854FBFAA2F052
:1055C800E433F50C7402780C12188612565112182E
:1055D800E4E8F0A3E9F09002D0E0601D750C1078C3
:1055E8000C121B037CD17D0274061218E4AA82AB4C
:1055F8008312051674021218AF9002E1E06011E5FB
:105608000A600974151218E4E04402F07801800277
:10561800780074141218E4E048F09002CEE06004B8
:1056280078048002780074141218E4E048F0AC089A
:10563800AD09851882851983AA82AB83120AF27490
:10564800181218AF7F060219C2EA450CF874152221
:10565800E8F0A3E9F0900B46E02274F31218F07416
:10566800E5121899EAFEEBFF8C098D0A74281218C6
:10567800E4E0F50C75F006E9A4F87408650A70040E
:1056880074228002742128F50B7C1B7D007900852B
:105698001882851983AA82AB8312052E8518828504
:1056A8001983AC82AD837A1BA90B1208E8E9703222
:1056B800741A1218E4E024F9C3940A5025E50CF58D
:1056C8000B780B121B0774011218E4AC82AD83E54A
:1056D80009A2E0E433F9EEFAEFFB120B04740112AD
:1056E80018AF741B02532374F71218F0120DCE75FD
:1056F8000800E50875F00EA4F8A9F074E928FE740E
:105708000239FF7C0679FFEEFAEFFB12058EE9708D
:1057180009EEFAEFFB7900120DD40508E508C394E9
:105728000A40CF0251C574F61218F074FD12189988
:10573800EAFEEBFF90038312584A703975088575A5
:1057480009037808121B0375080275090078081206
:105758001B0375082F7509907808121B037CFF7DC1
:10576800FF7A017B00120C1E74061218AF90038397
:10577800EAF0A3EBF090038312584A700302583101
:10578800E4F508F5097808121B0374041218E48577
:1057980082088583097808121B0374041218E485AB
:1057A80082088583097808121B03900385121B1A47
:1057B800790290038312583F120D4474081218AFEF
:1057C800E97034851882851983E0FA74011218E4A7
:1057D800E0F9EA2400F508E439F509EA4509601713
:1057E8007808121B03900383125449A312583F12DE
:1057F80006E474021218AFE4F508F5097808121BDC
:1058080003900385121B1A7CFF7DFF9003831254BB
:1058180072120C2A74041218AF900383EAF0A3EBF7
:10582800F090038312584A70047901800279007459
:10583800031218AF025451125010EEFAEFFB2290E7
:1058480002E7E0F8A3E0F9E84922C082C0839003A8
:105858008112584A601090038112547212054090C8
:105868000381E4F0A3F0900B48740AF00254A7C037
:1058780082C0839061907404F0A37448F0A3E4F0AC
:105888009061807440F09061BC7407F090618774F7
:1058980069F09061B67416F0790012103E79021220
:1058A8001044902878E493F46006E493F912101AEF
:1058B8007905121344025C72C082C083E9540FF95F
:1058C800906185E0696012E5C654804449F5C6E5F3
:1058D8009E547F644970F8E9F053C680E59E547F72
:1058E80070FA025C7274F71218F0E5A8FE53A87EED
:1058F800121026C2BA539AFEC289759B00C2C21200
:10590800102C75A91175B905121032D2BA439A0133
:1059180074805E42A8026209C082C083906181E4FB
:10592800F0A3025C6F75E90075910075BF00020174
:1059380035C082C083906181E4F0A374C0F0A3E411
:10594800025C71C082C08374F81218999005D51250
:105958006BA27003025A2A9005D5E054406023795F
:1059680008851882851983AA82AB8312113A851893
:1059780082851983AA82AB83120DF29005D5E05473
:10598800BFF0E054806010790C7A967B0712113AC8
:105998009005D5E0547FF0E0A2E0500F7900121096
:1059A8003E120DF89005D5E054FEF0E05402600F69
:1059B800790112103E120DF89005D5E054FDF0E083
:1059C8005404600F7900121044120DFE9005D5E0C2
:1059D80054FBF0E05408600F7901121044120DFED8
:1059E8009005D5E054F7F0E05410600F79021210DA
:1059F80044120DFE9005D5E054EFF0E05420600FFE
:105A08007903121044120DFE9005D5E054DFF0A37F
:105A1800E05401600D121050120E049005D6E054A7
:105A2800FEF074081218AF025C72C082C083E9608D
:105A38000514602A804F90619A7433F0A37455F06E
:105A48009061A0743AF0900770E064017009C29107
:105A58009005D77467802D9005D774618026906172
:105A68009A743FF0A3745AF09061A0747FF0900785
:105A780070E064017009D2919005D7747180059027
:105A880005D7746AF0025C72C082C083E9600B14A7
:105A9800600D14601714600C802090287C8015908D
:105AA800287D8010900770E06401700590287E8042
:105AB8000390287FE493906186F0025C7274EE1282
:105AC80018F074F4121899851882851983AC82AD80
:105AD8008375838F75825E74041217AC90287C934B
:105AE800F46003025BEF907808E0C394025003026D
:105AF8005BCF74041218E4AC82AD8375838F758212
:105B08002074081217ACFC7EFF7FFF8E0C7D008C82
:105B18008285820E800F74086D606D74096D6068EF
:105B2800740A6D60638D087509007402780812188C
:105B380086125BF9121769A909E50AC9F888107471
