:020000040000FA
:0600000002011D02233F76
:03002B00021C00B4
:030053000223B2D3
:03006B00021BCEA7
:100083000221ABE5C754F84401F5C779012200000A
:100093000080FB120086B90003020107E47921788E
:1000A30008B800028004F709D8FCE479297802B87B
:1000B30000028004F709D8FCE490028178F1790703
:1000C3008002F0A3D8FCD9FA781A90014D7A01BACC
:1000D30000028007E493A3F608DAF9900971AA8273
:1000E300AB8390014E78C379048015E493A3AC826B
:1000F300AD838A828B83F0A3AA82AB838C828D83A8
:10010300D8E9D9E77582B37583B8740312012F75E3
:100113008291758300740012012F75D00075813FA1
:10012300751881751902759F00020096C09FF59F8F
:10013300E473D09F22D083D082C09FE493C0E07445
:100143000193C0E0740293F59F2201FFFF0A41630C
:1001530063656C20456E61626C65000002140041AA
:100163006363656C2052616E676500001010104177
:100173006363656C20582D436F6F7264696E61749D
:10018300650000416363656C20592D436F6F726492
:10019300696E6174650000416363656C205A2D4389
:1001A3006F6F7264696E617465000002D78101002C
:1001B30000D18102DD810100007309021D82030069
:1001C30000A00202EB81010000740902DD8101003D
:1001D300008209021B82010000830902EB810100F6
:1001E30000850902DD8101000092090219820000E5
:1001F30000A10202F781030000A40202EB810100C7
:1002030000950902DD8101000093090217820000B5
:1002130000A20202F781030000AA0202EB8101009F
:1002230000A90902DD810100009409021582000082
:1002330000A30202F781030000B00202EB81010078
:1002430000BD09110199010F1264040102D7810154
:100253000000C28102DD810100006E0A020B8201EF
:1002630000006F0A02F781030000BE0202FB810156
:100273000000700A020202020202020202010D00E1
:100283000000100102D781010000D48102DD810149
:1002930000009A0A020582010000C50202DD810105
:1002A30000009B0A02FD81010000158102DD81012E
:1002B30000009C0A021182010000F98002DD810125
:1002C30000009D0A02E981010000A58002DD810191
:1002D30000009E0A02E781010000818002DD8101A6
:1002E30000009F0A02E581010000938002DD810185
:1002F3000000A00A02E381010000B78002DD810152
:100303000000A10A02E181010000078102DD8101F1
:100313000000A20A02DF81010000A30A01E803052D
:100323003F100A0100050953796E630201060702B3
:1003330003180218041853796E63000000000000CC
:1003430000000000000000000000005208000058F8
:10035300085E08FF0001307503020106000000007B
:10036300000000000000000000000000000000008A
:100373000000000000000000FFFF0600800CE803FF
:100383000A041202D781010000CE8102DD8101003F
:1003930000A60B02F381030000A20402D78101002F
:1003A30000CB8102DD81010000A70B02F381020073
:1003B30000A30402D781010000C88102DD8101008E
:1003C30000A80B02F581010000A40402F7810300D9
:1003D30000A504104B657920507265737320537424
:1003E3006174650002D781010000C58102DD8101CE
:1003F3000000F90B020182000000AB0402F7810345
:100403000000AC0402EB81010000FA0BFF0000B412
:10041300000028002800283075A000A000A000A03C
:100423000000080008E001F00010001000100010A8
:10043300001000100050005000500010001000D0B9
:10044300070000000000000F0001000500307507E1
:10045300001000010081FF00000000FF760B940BE9
:100463007C0BFF02020208025000A0000000E80318
:1004730002D781010000BF8102DD81010000890CE8
:1004830002F981010000E40402DD810100008A0C0D
:10049300020D82010000FA0402DD810100008B0CD1
:1004A300021382010000FC0402DD810100008C0CB8
:1004B300022182080000FD0402DD810100008D0C91
:1004C3000209820100008E0CFF0100FF2002D78188
:1004D300010000BC8102DD81010000F20C020382F5
:1004E300000000000002F7810300004A055E115E70
:1004F300115E115E115E115E115E115E115E115E81
:10050300115E115E115E11F2130A14EC131201381D
:1005130062DF021201386CDF02120138AADF021215
:100523000138F3DF021201382DE00212013887E0AF
:1005330002120138A8E002120138B1E002120138B8
:10054300FEE00212013827E10212013831E1021202
:1005530001389DE1021201382FE20212013879E2DB
:1005630002120138AFE2021201383BE302120138F2
:100573007CE302120138B3E302120138C5E302122D
:100583000138E4E302120138EDE302120138BAE460
:1005930002120138B7B30312013854B803120138F9
:1005A300D1A30312013807A4031201383DA4031297
:1005B300013888A50312013856FF011201386CFF78
:1005C3000112013876FF01120138C0FF0112013810
:1005D300D4F302120138E9F30212013899F402123A
:1005E3000138D9F402120138F2F4021201382DF560
:1005F300021201387AF502120138ACF50212013801
:10060300EEF502120138EFF70212013861F8021217
:100613000138C0B203120138E9B20312013818B32A
:100623000312013830B30312013872B303120138D5
:100633005E8803120138B98803120138D688031281
:100643000138E58903120138308A03120138EE8A32
:1006530003120138E38B03120138BD9603120138EC
:10066300F49603120138139703120138BE9703124D
:100673000138539803120138DB980312013890AC08
:100683000312013819AD0312013829AD03120138E1
:1006930041AD0312013861AD03120138F8AD031205
:1006A300013806AE03120138EEFF01120138F5FFDF
:1006B300011201387B9C03120138A09C03120138FC
:1006C300CA9C031201380BB903120138055D0012ED
:1006D30001386A5F001201380B6100120138BF61F3
:1006E30000120138526200120138D7620012013839
:1006F300FC6200120138526600120138D8660012FB
:1007030001380B68001201384568001201387A6815
:10071300001201383A6A00120138976A0012013850
:10072300E06A001201384B6B00120138BC6B0012F7
:100733000138EE6B00120138066C001201384F6D60
:10074300001201385F6D001201387A6E0012013811
:100753009C6E00120138D26E0012013886700012AE
:100763000138137100120138527100120138767288
:100773000012013864B60312013875B6031201384A
:100783001AB70312013861B903120138A0B9031271
:100793000138DC7F00120138AEB403120138BEB455
:1007A30003120138D3B40312013887B50312013899
:1007B300BCB10312013841B203120138A7B20312CC
:1007C30001387AAF03120138A1AF03120138F7AF32
:1007D3000312013809B00312013859B0031201386A
:1007E30097B0031201389AB0031201384D840312F3
:1007F3000138648403120138DE8403120138C28590
:1008030003120138998703120138FE870312013856
:100813004B8803120138F87F00120138479F0312F7
:100823000138E2A00312013843A10312013889A160
:10083300031201380EBE0212013838C00212013809
:100843008FC202120138A9C302120138C4C40212B2
:100853000138E2C4021201382FC6021201386EC6F3
:1008630002120138B2C602120138EEAA031201388D
:1008730040AB03120138CAAB0312013831AC031287
:1008830001388CA103120138B6A10312013884A2E6
:10089300031201385FA303120138FDCF021201389E
:1008A300C4D002120138FBD00212013825D1021242
:1008B300013885D102120138DBD10212013840D24E
:1008C30002120138D8D202120138E7D302120138DA
:1008D3007ED5021201380BD60212013872D60212EB
:1008E300013889D602120138A3D702120138E1D7A1
:1008F300021201380080021201388183021201388A
:100903000985021201386085021201387F850212BF
:100913000138FD8502120138938702120138788865
:1009230002120138868C021201385C8D02120138E2
:10093300979303120138159403120138329403126A
:100943000138BB9403120138E694031201387895F9
:1009530003120138849603120138C2A50312013829
:1009630007A6031201385BA603120138DEA60312A1
:10097300013856A7031201388FA703120138A6A71F
:1009830003120138D7A70312013812A80312013842
:100993003CA80312013866A8031201387DA803128C
:1009A300013894A803120138ABA803120138D4A864
:1009B30003120138E7A803120138FDA80312013816
:1009C30010A90312013837A903120138D4B3021254
:1009D3000138D8B40212013810B50212013833B508
:1009E300021201383EB50212013861B50212013814
:1009F30070B60212013845B702120138C0B70212AD
:100A0300013848B80212013883B802120138BAB863
:100A13000212013848B90212013821BA0212013810
:100A230081BA021201388CBA021201380BBB0212CE
:100A330001380EBB0212013811BB02120138A0BBF0
:100A430002120138A3BB02120138D3BB02120138D0
:100A5300FDBB02120138EBBC021201389DBD02122C
:100A6300013817EF021201383FEF021201386DEF20
:100A730002120138A4EF0212013802F00212013807
:100A83004DF00212013898F002120138D8F0021228
:100A930001381EF1021201384CF10212013809F239
:100AA3000212013813F20212013820F20212013845
:100AB30053F2021201381FF3021201382BF3021210
:100AC300013843F3021201384DF3021201388DB598
:100AD300031201389BB503120138B3B50312013871
:100AE300CBB50312013850CC01120138FCCC0112F2
:100AF300013877CD0112013898CE01120138D4CED6
:100B0300011201387DCF0112013864D0011201387E
:100B1300C8D1011201381FD201120138A0D201122B
:100B2300013890D301120138DDD30112013863D4A7
:100B33000112013895D401120138A9D601120138E6
:100B4300EBD60112013809D7011201388CD70112F3
:100B5300013860D80112013828D9011201383FD871
:100B63000212013812D902120138BBD9021201381C
:100B73000EDA02120138BEDA021201384ADB02121F
:100B8300013836DC0212013865DC0212013878DDE7
:100B930002120138C0DD0212013895DE021201385B
:100BA300D1DE02120138EDDE02120138D0B7031292
:100BB3000138FE8F031201381490031201383A9062
:100BC3000312013856910312013860910312013860
:100BD3009592031201388D9303120138E8E402124F
:100BE300013818E6021201384BE60212013895E685
:100BF300021201385CE80212013861BC01120138AB
:100C0300CBBC011201382ABE011201383ABE0112CF
:100C1300013867BE01120138BEBE0112013867BF39
:100C2300011201386EC00112013838C101120138B6
:100C330098C201120138DBC20112013880C30112CC
:100C43000138CDC301120138F3C30112013801C6C3
:100C53000112013806C6011201380BC8011201380E
:100C630058C801120138CBC801120138FEC801125D
:100C73000138A0C90112013849CA0112013881CAD9
:100C83000112013884CA01120138CCCA0112013899
:100C93000CCB0112013863CB01120138A89903125E
:100CA3000138C09903120138089A031201381E9AB9
:100CB30003120138659A03120138799B0312013834
:100CC300069C03120138519C03120138782A001242
:100CD3000138842A00120138BF2A00120138042B7C
:100CE30000120138C42B001201384A2C00120138BB
:100CF300AF2C00120138DB2C00120138142D001226
:100D03000138522F001201383631001201381C33DA
:100D1300001201385F3400120138AD360012013879
:100D2300BF37001201380A39001201381A3A00128B
:100D33000138373A00120138723A00120138943AF6
:100D430000120138F73A00120138B83F0012013897
:100D53004D40001201389E4000120138C540001278
:100D630001381741001201383541001201388F4113
:100D730000120138784200120138EE4300120138A4
:100D83007244001201380FEA0212013819EA021202
:100D930001385CEA0212013877EA0212013807EBE4
:100DA300021201382FEB021201386CEB02120138E8
:100DB300A3EB02120138CCEB0212013841EC021210
:100DC300013856EC021201386BEC021201389CEC2C
:100DD30002120138B0EC02120138D5EC02120138CC
:100DE3000FED021201383BED0212013873ED0212CE
:100DF300013821EE0212013851EE021201389AEE47
:100E030002120138C4EE02120138EFEE0212013869
:100E1300A3B003120138D39B02120138019C0212C2
:100E230001384F9D021201382F9E021201384E9E47
:100E330002120138CB9E021201380E9F02120138B2
:100E430064A00212013825A102120138ACA30212D8
:100E530001384DA40212013843A50212013840A6FD
:100E6300021201389AA70212013825A8021201388A
:100E73001FAE0312013888AE03120138DCAE031231
:100E8300013803AF0312013834AF031201386EF88F
:100E930002120138DBF80212013822F9021201387A
:100EA3003AFA0212013836FB0212013819FC021217
:100EB300013894C702120138D6C702120138A8C8F4
:100EC3000212013881C9021201387BCA02120138A9
:100ED3005DCB02120138C6CB021201387CCC021260
:100EE3000138F0CC021201385CCD0212013885CDF5
:100EF30002120138FFCD0212013898CE02120138D6
:100F0300FDCE0212013812CF0212013858CF02125D
:100F1300013871CF02120138D6CF02120138D9CF6E
:100F230002120138DBFC0212013803FD0212013800
:100F330041FD02120138FFFD0212013866FE021262
:100F4300013882FE02120138AAFE02120138DAFECB
:100F530002120138E9FE0212013866FF021201385B
:100F63008CFF0212013846AB0112013824AD011285
:100F7300013856AF0112013892AF01120138BFAFE9
:100F830001120138A9B001120138F4B0011201387D
:100F93003FB10112013851B10112013891B101126F
:100FA3000138C6B10112013814B20112013843B23B
:100FB3000112013866B201120138B3B201120138CD
:100FC30038B30112013852B50112013891B7011239
:100FD3000138D2B70112013874B901120138B5B919
:100FE3000112013828BA0112013879BA0112013805
:100FF30054BB011201389B7200120138997300121D
:101003000138327A00120138537C001201381E7EF7
:1010130000120138867F00120138D94400120138CA
:10102300884500120138B54500120138FB4500120E
:1010330001383147001201385F4700120138F54883
:10104300001201386F49001201388A490012013831
:10105300054A001201385F4B00120138BF4C0012E1
:101063000138C54D00120138264F001201383F4F99
:10107300001201389D4F001201388B5000120138C5
:10108300BE50001201382E5100120138A85100122F
:101093000138F25100120138BC5200120138915349
:1010A30000120138705400120138FB540012013849
:1010B300695500120138DD55001201380856001237
:1010C3000138C756001201382C580012013849580C
:1010D30000120138685800120138595900120138BA
:1010E3007E5900120138A85900120138235A001200
:1010F30001387D5A00120138E65B00120138945C16
:1011030000120138D55C00120138FF8D021201383C
:101113004D8E02120138598E02120138378F021296
:101123000138688F02120138998F02120138199021
:1011330002120138519002120138A39002120138B1
:10114300E09002120138FD92021201382395021237
:1011530001380E9702120138F898021201386D2AED
:1011630000120138339701120138639701120138D5
:101173003C9E01120138C19F01120138BEA5011224
:101183000138A6A601120138E3A60112013806A709
:101193000112013837A70112013840A701120138A3
:1011A3004AA70112013838A8011201382EA90112E9
:1011B300013824820112013823860112013829865D
:1011C30001120138648D011201387D920112013838
:1011D300308C03120138C68C03120138DC8C0312E5
:1011E3000138528D03120138C68D03120138048E63
:1011F30003120138788E03120138F18E031201387D
:10120300FA8E03120138068F031201381B8F031263
:101213000138598F031201386F8F03120138CE8FB3
:10122300031201380080031201380D8003120138C4
:10123300278003120138668003120138A480031249
:1012430001380981031201381E81031201382981F3
:10125300031201383681031201384D81031201381C
:101263005B81031201386681031201387281031214
:1012730001388181031201388C8103120138AF8157
:1012830003120138568203120138668203120138B1
:101293008082031201389D8203120138B98203123E
:1012A3000138DE8203120138E98203120138FE821B
:1012B30003120138128303120138738303120138B6
:1012C3007983031201387F83031201388583031264
:1012D30001389D8303120138D08303120138B2E928
:1012E3000112013836EA01120138E5EA0112013828
:1012F30044EC0112013865EE0112013851EF01127D
:10130300013886EF01120138A8EF0112013857F0B6
:10131300011201384FF20112013878F2011201383B
:101323000AF3011201383CF30112013849F30112A7
:101333000138A0F301120138C6F30112013833F664
:101343000112013836F7011201388EF70112013804
:1013530041DB011201384BDC0112013832DD01128D
:1013630001383CDD011201385EDD011201386ADD0E
:101373000112013803DF0112013832DF0112013893
:101383004EE001120138A7E0011201380DE201120B
:101393000138ECE20112013848E301120138B5E3E8
:1013A30001120138F0E3011201382FE40112013870
:1013B300E8E60112013802E7011201388EE7011253
:1013C30001389CE701120138F5E70112013803E8FF
:1013D3000112013876E801120138DAE80112013806
:1013E30024E901120138A6A802120138C8A8021282
:1013F3000138EEAA0212013803AE021201381BAF04
:1014030002120138CEAF02120138B0B00212013815
:1014130049A9031201386EA903120138E0A9031286
:101423000138DCF701120138E5F701120138EEF754
:1014330001120138C5F80112013876FA0112013898
:10144300ACFA01120138E6FA011201381CFB011251
:10145300013856FB011201388AFB01120138B6FB31
:1014630001120138FFFB0112013839FC0112013866
:1014730082FC01120138DAFC011201380FFD01125E
:1014830001386AFD01120138A4FD01120138F5FD8E
:10149300011201382BFE0112013865FE01120138D9
:1014A30093FE01120138B6FE0112013825B703126B
:1014B300013851B703120138ACB703120138B6B77C
:1014C30003120138C6B703120138B07F0012013886
:1014D300D4FF02E066701008A3E066700A08A3E078
:1014E30066700408A3E06622C3E7960809E7960836
:1014F30009E7960809E79622C3E09608A3E0960851
:10150300A3E09608A3E09622C008C3E096F5080876
:10151300A3E096420808A3E096420808A3E0964594
:10152300087001D3D00822080808EAC0E0EBC0E045
:1015330086F0E7A4FA180986F0E7A42AFA180986C0
:10154300F0E7A42AFA180986F0E7A42AFA1986F024
:10155300E7A4FBE5F02AFA190886F0E7A42BFBE5DC
:10156300F03AFA190886F0E7A42BFBE5F03AFA18EB
:10157300180986F0E7A4C5F02BFBE43AFA1908E74B
:10158300C5F0C6A426F6E5F03BFBE43AFA1886F06C
:10159300E7A4F6E5F00826F6E43B08F6E43A08F695
:1015A300D0E0FBD0E0FA22E4CFC0E0E4CEC0E0E438
:1015B300CDC0E0E4CCC0E075F020C3E633F608E626
:1015C30033F608E633F608E633F6181818EC33FC5E
:1015D300ED33FDEE33FEEF33FFC3EC9709ED9709CF
:1015E300EE9709EF97191919400FFFEC97FC09EDD6
:1015F30097FD09EE97FE191906D5F0BEECF709ED34
:10160300F709EEF709EFF7191919D0E0FCD0E0FD5F
:10161300D0E0FED0E0FF226016080808C6C313C658
:1016230018C613C618C613C618C613C6D5E0EA22D1
:101633007009080808226016181818C6C333C608AC
:10164300C633C608C633C608C633C6D5E0EA22E6A3
:1016530027F60809E637F60809E637F60809E637F4
:10166300F622E026F608A3E036F608A3E036F608ED
:10167300A3E036F622E026F008A3E036F008A3E064
:1016830036F008A3E036F022C3E697F60809E6979A
:10169300F60809E697F60809E697F622C3E096F0FE
:1016A30008A3E096F008A3E096F008A3E096F022E2
:1016B300E657F60809E657F60809E657F60809E675
:1016C30057F622E056F608A3E056F608A3E056F6CE
:1016D30008A3E056F622E056F008A3E056F008A36C
:1016E300E056F008A3E056F022E0F608A3E0F6087F
:1016F300A3E0F608A3E0F622E6F008A3E6F008A3C9
:10170300E6F008A3E6F022E0FAA3E0FBA3E0FCA3E3
:10171300E0FD22EAF0A3EBF0A3ECF0A3EDF022CA84
:10172300C0E0E6F0A308DAFAD0E0FA22CAC0E0E0AB
:10173300A3C582CCC582C583CDC583F0A3C582CCA6
:10174300C582C583CDC583DAE6D0E0CA22C3E49857
:10175300F8E499F91217918026C3E49AFAE49BFB03
:10176300E920E7E9121791E498F8E499F922C3E430
:1017730098F8E499F9121791E498F8E499F9C3E415
:101783009AFAE49BFB22EB20E7CFE920E7E0B900DC
:1017930010BB0008E88AF084F8AAF022E4FBC8FA38
:1017A30022EB70227B10C833C8C933C9335007C337
:1017B3009AC3DBF280069A50012ADBEAC833F4C8E5
:1017C300C933F4C9FA2275F008E4C833C8C933C968
:1017D30033C99AC99B5004C92AC93BD5F0ECFBC84D
:1017E30033F4C8E4C9FA22600D08C6A2E713C61889
:1017F300C613C6D5E0F322600C08C6C313C618C6C9
:1018030013C6D5E0F422700422600D18C6C333C694
:1018130008C633C6D5E0F41822251810AF08F5180A
:10182300400215198008F51840021519D2AF22C0DD
:10183300D0251810AF08F518500205198008F518BF
:1018430050020519D2AFD0D0222518F58210AF0867
:10185300F518400215198008F51840021519D2AF82
:10186300851983222518F582E43519F58322E4735B
:101873002518C582C0E0E51934FFC583C0E0E5182B
:10188300C3958224F810AF088583198582188008D0
:10189300858319858218D2AFCEF0A3E520F0A37813
:1018A30008E608F0A3DEFAEFF0A3E58124FAF8E6F0
:1018B30008F0A3E608F0A3E608F0A30808E608F09A
:1018C300A3E608F0A315811581D0E0FED0E0F8155A
:1018D3008115811581E8C0E0EEC0E0222518C5829C
:1018E300C0E0E51934FFC583C0E0E518C395822441
:1018F300F910AF08858319858218800885831985B7
:101903008218D2AFCEF0A3E520F0A37808E608F062
:10191300A3DEFAEFF0A3E58124FBF8E608F0A3E6E3
:1019230008F0A30808E608F0A3E608F0A31581155C
:1019330081D0E0FED0E0F815811581E8C0E0EEC06B
:10194300E022851983851882E0A3FEE0A3F52078C1
:1019530008E0A3F608DFFAE0A3FFE0A3C0E0E0A3FA
:10196300C0E0E0A3C0E0E0A3C0E0E0A3C0E010AFAC
:10197300088582188583198008858218858319D282
:10198300AFD083D082020135851983851882E0A305
:10199300FEE0A3F5207808E0A3F608DFFAE0A3FF52
:1019A300E0A3C0E0E0A3C0E0E0A3C0E0E0A3C0E0A8
:1019B30010AF08858218858319800885821885836E
:1019C30019D2AFD083D08222C0D02518C582C0E0FF
:1019D300E51934FFC583C0E0E518C3958224F310ED
:1019E300AF08858319858218800885831985821835
:1019F300D2AFC8F0A3E9F0A3EAF0A3EBF0A3790810
:101A0300E709F0A3D8FAECF0A3EDF0A3EEF0A3EF0F
:101A1300F0A3D0E0F0A3D0E0F0A3D0E0F0A3E52062
:101A2300F0A3E5F0F0A322851983851882E0C0E0D6
:101A3300A3E0F9A3E0FAA3E0FBA37808E0F608A388
:101A4300DFFAE0FCA3E0FDA3E0FEA3E0FFA3E0C018
:101A5300E0A3E0C0E0A3E0F5D0A3E0F520A3E0A37A
:101A6300F5F010AF088583198582188008858319DE
:101A7300858218D2AFD082D083D0E0F8D0E0327420
:101A8300048006740280027401C0E0F40412184C4E
:101A9300D0E0121722227404800474028000CCC0A8
:101AA300E0EDC0E0E518C39CCCAD1950011D10AFAB
:101AB300068C188D1980068C188D19D2AF12172F2A
:101AC300D0E0FDD0E0FC22D083D082E9C0E0E493F3
:101AD300A3C386F0C5F095F0F908E493A386F0C597
:101AE300F095F0700BE493A3C3994005E9048002D9
:101AF300A3E475F002A42582F582E5F03583F5832E
:101B0300D0E0F9E493A3C0E0E493C0E022D083D013
:101B130082ECC0E0EDC0E0E493A3FCE493A3FDED0D
:101B23004C600D121B5CEC24FFFCED34FFFD80EFD9
:101B3300E493A3FCE493A3FDED4C600D121B9BEC1B
:101B430024FFFCED34FFFD80EFD0E0FDD0E0FCE4AA
:101B530093A3C0E0E493C0E022C0E0C3E4939608FB
:101B63007401939618400FE4936670080874019308
:101B7300661870007019A3A3C3E4939608740193C5
:101B83009618A3A3400DD0E0D0E0D0E0021B4CA3F5
:101B9300A3A3A3A3A3D0E022C0E0C0F088F0E49302
:101BA3006670080874019366187000A8F0A3A37008
:101BB3000BD0F0D0E0D0E0D0E0021B4CA3A3D0F0D8
:031BC300D0E0224D
:101BC800C2AF02000022C0E074F21219CBA2AFE447
:101BD80033FED2AFE589A2E04006E589A2E15003D1
:101BE8001207DA758900758900C2C5751A00EEA258
:101BF800E092AF7F01021A2AC0E0C0D0E8C0E0E955
:101C0800C0E0E5A8D2AFC2C7751A00A2E7A2E79262
:101C1800AFD0E0F9D0E0F8D0D0D0E03274F51218A7
:101C2800DFEAFEEBFFEE2434F8EF3400F988088988
:101C380009EE2435F582EF3400F583E0F8EE243719
:101C4800F582EF3400F583E0F50AEC850AF0A4FC90
:101C5800AAF0850AF0EDA42AFDE82CF8E43DF97A0B
:101C6800257B00121791EA850882850983F0F874AC
:101C78000758F97401B900028004C333D9FCFAE8A3
:101C8800131313541FF8EE28F8EF3400F9E8245D15
:101C9800F582E93400F583E05A6008EE2434F582D1
:101CA800EF802CEE2434F582EF3400F583E0C0E0B9
:101CB800EE2436F582EF3400F583E0F5F0D0E084C9
:101CC800A8F0EE28F8EF3400F9E82438F582E93472
:101CD80000F583E0F97F0402198B74F51218DFEA26
:101CE800FEEBFFEE2434F582EF3400F583E0C0E02C
:101CF800EE2435F582EF3400F583D0E0F08E828F44
:101D080083A3A3A3A3A3A3A3C082C0838E828F832C
:101D1800A3A3A3A3A3E0F8A3E0F9D083D082E0C3F0
:101D280098F508A3E099F509EE247FF582EF3400D1
:101D3800F583E064017069EE2480F582EF3400F5E4
:101D480083E0F8A3E0F98E828F83A3A3A3A3A3A3C0
:101D5800A3E0FCA3E0FD8E828F83A3A3A3A3A3E04B
:101D6800FAA3E0FBC3EA9CEB9D5010C3EC98ED99F5
:101D7800402EC3EA98EB995027800EC3EA98EB9956
:101D88004007C3EC98ED9940177C0D7D07EEFAEFFC
:101D9800FB1210BCEE247FF582EF3400F583E4F0EB
:101DA800EE2434F8EF3400F9E8FCE9FDEE2435F5CB
:101DB80082EF3400F583E0F8EE2437F582EF340043
:101DC800F583E0F50AE508850AF0A4F508AAF08588
:101DD8000AF0E509A42AF509E82508F8E43509F91F
:101DE8007A257B00121791EA8C828D83F0F87407AC
:101DF80058F97401B900028004C333D9FCFAE81316
:101E08001313541FF8EE28F8EF3400F9E8245DF5B1
:101E180082E93400F583E05A6008EE2434F582EF55
:101E2800802CEE2434F582EF3400F583E0C0E0EE38
:101E38002436F582EF3400F583E0F5F0D0E084A88D
:101E4800F0EE28F8EF3400F9E82438F582E9340098
:101E5800F583E0F9122A5F021CDDC082C083851871
:101E680082851983E0F8A3E0F9C3EA9CEB9D501042
:101E7800C3EC98ED99401BC3EA98EB995014800E77
:101E8800C3EA98EB994007C3EC98ED9940047901AF
:101E980080027900D083D08222EAC39CFAEB9DFBB2
:101EA8002274EF1218DF9005D3E064086005E0643F
:101EB80007702A9061C8E06024900601E0F4601D74
:101EC800E0F875F003A4C8AAF02AF9740328FE7490
:101ED8000639FF8E828F83A3A3A3E07003021FD964
:101EE800906060E0C0E0EE2468F582EF3400F5838E
:101EF800D0E0F0750C76750D07750800750900E5DA
:101F0800D914F50AE5D95403F50E60177403650E64
:101F1800605CE50A6010EE2467F582EF3400F58313
:101F2800E07003021FBE900771E06401602AEE248E
:101F380082F582EF3400F583E0600478048002784B
:101F480000850A08E508C398FA95E0FB120F788A1D
:101F5800088B09EA450970051212C08074EE2482C4
:101F6800F582EF3400F583E070048A0C8B0DE50AE6
:101F78006012850C82850D83F50BE5D9F0A3150B4E
:101F8800E50B70F6EE2482F582EF3400F583E0600D
:101F98004474FC250AF50A780C121A86AC0AA90EB4
:101FA800EEFAEFFB1211587402121832E97026AAE1
:101FB80008AB09120870793D8E828F83A3A3A3A36F
:101FC800E0FA7B00120E4CEEFAEFFB1210D412115D
:101FD8006A790080747403650E6056850A1075115D
:101FE800007810121A86AC0CAD0DAA08AB091211B4
:101FF800347402121832EE2468F582EF3400F58347
:10200800E064807004747F8001E0F50C780C121A8B
:102018008AE50EF50C780C121A8AA90AAC08AD09E3
:10202800900601E0FA7B00120E107402121832803A
:10203800139005D3E06408600BAC0CAD0DEEFAEF1D
:10204800FB1211C41212CC79017F0A02198B74F5A4
:102058001218DF74FC12181CEAFEEBFF8908A2AF05
:10206800E433F509C2AF806AEE2463F8EF3400F96F
:102078007A007B00A2AFE433F50AC2AF8882898375
:10208800E0FCA3E0FDEC4D603A88828983E0FAA386
:10209800E0FB8A828B83E0FCA3E0FD88828983ECE5
:1020A800F0A3EDF08A828B83E4F0A3F08882898321
:1020B800E0FCA3E0FDEC4D700A88828983A3A3E4C9
:1020C800F0A3F0E50AA2E092AF120870900714E0BE
:1020D80004F0EE2463F582EF3400F583E0F8A3E022
:1020E800F9E849603DEE2463F582EF3400F583E0BA
:1020F8002402FAA3E03400FBEA2402F50AEB3400D8
:10210800F50B780A121A868A828B83E0FCA3E0F921
:10211800EEFAEFFB1210F87402121832E97003029B
:102128002070900714E06063900715E0F89007149A
:10213800E0C398500C740265087050900716E06070
:102148004A8E828F83A3A3A3A3E08518828519836F
:10215800F0A3E4F0900714E0F87402121867E8F0AE
:10216800A3E4F0900714E0F8900713E028F0740255
:10217800121867AC82AD83851882851983AA82AB51
:10218800837901120E1C900714E4F0E509A2E0928D
:10219800AF7404121832021CDD0000008521878507
:1021A80022C622C0E0C0D0E8C0E0E9C0E0EAC0E052
:1021B800EBC0E0ECC0E0EDC0E0EEC0E0C008C00954
:1021C800C00AC00BC082C083C0F0A2AFE433FEC215
:1021D800AF759B00906182E0A2E05012E591A2E009
:1021E800500C7591FE740165217003121EA9E0A2BE
:1021F800E55051E591A2E5504B7591DF9005D3E08C
:1022080064076005E06408702374016521703579FE
:1022180001900601E0FA75F003A4CAA8F028FB743F
:10222800032AFA74063BFB1220568018E0640D70EE
:10223800139005F5E004F064287002E4F07A00E0F9
:10224800F91212D2906182E0A2E640030222F2E57E
:1022580091A2E640030222F27591BF9005D3E06493
:102268000570081211FA1212068003121200752165
:1022780000121260E99005D4F0790012125412107D
:102288002C7A017B009005D2E0F912056A90780358
:10229800E064427055900775E014F0704DC2AF12BB
:1022A80022AA00782AD0E0F618D0E0F6E59F540775
:1022B80070057509FF800375097FC4C0E07829E6B9
:1022C800F50808E65509F509740B78081217FAD0CD
:1022D800E02508F8906270E0A2E740F8E8C3339080
:1022E8006272F0906270E0D2E0F0906181E0A2E367
:1022F8005009E5E9A2E3500375E9F7A3E0A2E75026
:1023080009E591A2E7500375917FEEA2E092AFD064
:10231800F0D083D082D00BD00AD009D008D0E0FE0C
:10232800D0E0FDD0E0FCD0E0FBD0E0FAD0E0F9D07E
:10233800E0F8D0D0D0E032C0E0C0D0C082C08390F6
:102348006183E0A2E05009E5BFA2E0500375BFFE3B
:10235800E0A2E15009E5BFA2E1500375BFFDE0A28C
:10236800E25009E5BFA2E2500375BFFBE0A2E350CB
:1023780009E5BFA2E3500375BFF7E0A2E45009E501
:10238800BFA2E4500375BFEFE0A2E55009E5BFA284
:10239800E5500375BFDFE0A2E65009E5BFA2E650AD
:1023A8000375BFBFD083D0828088C0E0C0D0E8C0AA
:1023B800E0E9C0E0EAC0E0EBC0E0ECC0E0EDC0E07E
:1023C800C0F0E5A7A2E6500FE5A1A2E6500953A781
:1023D800BF75A1BF122417E5A7A2E5500CE5A1A27D
:1023E800E5500653A7DF75A1DFE5A7A2E15009E58F
:1023F800A1A2E1500375A1FDE5A7A2E2500CE5A159
:10240800A2E2500653A7FB75A1FBD0F00223287463
:10241800F81218DF7521019005D3E06406701512D3
:1024280011888A828B83A3A3A3A3A3A3E0FAA3E0C2
:10243800FB1211E8A2AFE433FED2AF9005D9E064F5
:102448000170187A207B009005D2E0F91205F47A21
:10245800207B009005D2E0F9120570906182E0D2ED
:10246800E6F0900772E0602185C62280169005D8B4
:10247800E064017008E5C654F84405F5C653BEFC8F
:102488001221A47401652160E4EEA2E092AF7F01FD
:1024980002198B008E238F2485822885832785182F
:1024A80082851983E0CEA3E0CF852882852783EB38
:1024B800C9EAC8EDCBECCA75F010C3E833C8E933F4
:1024C800C9EA33CAEB33CBC3EA9EF526EB9FF52561
:1024D800B35004AB25AA26EC33CCED33CDD5F0DAD6
:1024E800AE23AF242274E91218DF74F812181C8581
:1024F8001882851983ECF0A3EDF08A088B09900502
:10250800D3E024F7C3940550067508010226841207
:1025180011888A0A8B0BAE0AAF0BEE4F70030226A6
:1025280081AC08AD097402121867AA82AB83121233
:10253800188E828F83A3A3750CFF750DFF750EFF90
:10254800750F00780C1216C674021218677510FF02
:102558007511FF7512FF75130078101216C6780CE6
:1025680079101214EB502A780C791012168B750812
:10257800017509C8750A00750B007808790C1214E2
:10258800EB5052850C08850D09850E0A850F0B80C6
:10259800507514017515C875160075170085100853
:1025A80085110985120A85130B7808790C12168B88
:1025B800781479081214EB401C7508007509007529
:1025C8000A00750B017808791012168B7808790CB7
:1025D800121652800C750801750900750A00750BF2
:1025E8000074097808121633750C19F50DF50EF5F7
:1025F8000F7808790C1215AA8E828F83A3A3A3A340
:10260800A3A3E0F8A3E0F97AD07B03121791880C12
:10261800890DE4F50EF50F7808790C121652740638
:10262800121867E0F8A3E0F97AD07B03121791E853
:10263800FA8A0CE4F50D7808790C1214EB50077837
:1026480008790C12168B9005D3E06408600AE064E0
:10265800066005E06405702D750C0D780C7908127C
:1026680014EB4021750CF4750DFF750EFF750FFF07
:102678007808790C121652800C75080075090075D7
:102688000A00750B00851882851983E0F8A3E0F528
:1026980083888278081216FB74081218327F100299
:1026A800198B74F71218DF12122A900770E0640170
:1026B8007010906245E4F0A3F053F4F343FE0C531A
:1026C80090F31211D6E5C654804449F5C6E59E54E8
:1026D8007F644970F8906185740FF090076EE0F49C
:1026E8007002A3E0604E90076FE0600814601B144E
:1026F800602E804075080175090090076EE0780823
:10270800121809E508F45280802A75080175090035
:1027180090076EE07808121809E508F452908014C2
:1027280075080175090090076EE07808121809E528
:1027380008F452A079007F0202198B74F71218DF8F
:10274800E9FEEAFF74016E700C7A807B009005D276
:10275800E0F912056A902A70E493F46008E493F9AA
:10276800121020800953C680E59E547F70FA12111A
:10277800DC900770E06401700312103E90076EE071
:10278800F47002A3E0604B90076FE0600814601AD1
:1027980014602C803D75080175090090076EE0787B
:1027A80008121809E5084280802875080175090093
:1027B80090076EE07808121809E5084290801375B2
:1027C800080175090090076EE07808121809E508F5
:1027D80042A012122A1211888A088B09A808A9098E
:1027E800E8496015E5E170FCE82414F582E9340055
:1027F800F583E0F46003E0F5E174016F700A7A0193
:102808009005D2E0F91205C402273E74ED1218DFD4
:102818008A088B098C0A8D0B7413121867780C12AE
:1028280016EC7808790C1214EB7510017511C8753F
:10283800120075130050127808790C12168B781054
:1028480079081214EB50168010780C790812168B40
:102858007810790C1214EB40047901800279007F1A
:102868000C02198B74ED1218DF8A088B098C0A8DFB
:102878000B7413121867780C1216EC780C7908127E
:1028880014EB40117808790C12168BAA08AB09AC26
:102898000AAD0B80227510007511007512007513B2
:1028A800017810790C12168B78107908121652AA32
:1028B80010AB11AC12AD1380A68A828B837508FF0A
:1028C8007509FF750AFF750B0078081216D97F0481
:1028D80002198B74F51218DF8C828D837808121612
:1028E800EC8A828B83780812169FEA2404F8EB346A
:1028F80000F98C828D83A3A3A3A3E0FCA3E0FD8849
:10290800828983C3E09CF0A3E09DF088828983C319
:10291800E09420A3E0944E40268A828B837508FFBA
:102928007509FF750AFF750BFF78081216788A82F9
:102938008B83A3A3A3A3E02420F0A3E0344EF002EA
:1029480028C174F51218DFE9FE900728E0FAA3E021
:10295800FBEEC333F8E433F974E928F5827480395F
:10296800F583E02AF508A3E03BF5097808121A86F2
:102978007A407B427C0F7D0012249C74021218322C
:102988008A088B098C0A8D0B7410780812161AAAFB
:1029980008AB097F0402198B74F11218DF8A0C8BBB
:1029A8000D8C0E8D0F740F121867E0FAA3E0FB74FC
:1029B80011121867E0F508A3E0F5097808121A86DD
:1029C800EA2401F508EB3400F509E4F50AF50B787B
:1029D8000C790812152A750871750902780C79089E
:1029E80012152AAA0CAB0DAC0EAD0F12249C740262
:1029F8001218328B09EA450960047A0180027A00CC
:102A0800EC2AFCED3400FD7413121867E0F8A3E01B
:102A1800F9E8FEE9FFECF8EDF97A717B02121791FB
:102A2800880889098E828F8378081216FBECF8EDE6
:102A3800F97A717B021217918A088B097405780854
:102A48001218098E828F83A3A3A3A3E508F0A3E538
:102A580009F07F0802198BC082C083E9906000F0FA
:102A6800D083D08222020135FFFFFFFFFFFFFFFF67
:102A7800C082C083E9900CF1F0022D0774F7121898
:102A880073E9900512F07C4A7D057AFF7BFF120DF1
:102A98005C90051374FFF0A3F0A3E4F0A3F07905AC
:102AA800120CE4900512E0F9120C067A7A7B0D12EA
:102AB8000F2A7F0102194574F41218738A088B09CA
:102AC800EB54806030900512E0F91205528A0A8BA7
:102AD8000BAE0AAF0BEE4F60138E828F83E064B0AB
:102AE8007003120CFCEEFAEFFB120540AA08E50988
:102AF8006480FB80047A007B00022CD674F21218E2
:102B08007374FC12181CEAFEEBFFEE4F6038740277
:102B1800121867EEF0A3EF122F3BECF0A3ED122F83
:102B28003BAA82AB83120C00E9F508707374121289
:102B38001867123AEFE50A450B60658E828F83129B
:102B48002BB2EE4F700575080280557A067B00128D
:102B580005AC8A0C8B0DA80CA90DE8497005750801
:102B680013803D88828983E4122BBCA3A3EEF0A3D3
:102B7800EF123F88E50AF0A3E50BF0900518122C38
:102B8800449005186017E0FCA3E08003EAFCEBFD25
:102B98008C828D83122C4470F38C828D83123A14AC
:102BA800A908740412183202418AA3A3A3A3E0FE61
:102BB800A3E0FF22F0A3F0888289832274F212181E
:102BC80073890AE975F017A4FEAFF0900517E4F0D1
:102BD800900515122C44600A1205B2900515E4F010
:102BE800A3F0EEFAEFFB1205AC8A088B09EA450957
:102BF800602FEEFCEFFD790012052E900515E50813
:102C0800F0A3E509F07B008008122C2EE4F0A3F075
:102C18000BEBC3950A40F2E50A900517F07900809E
:102C280002791302418AEB75F017A4F8A9F0900510
:102C380015E028FAA3E0398A82F583221237AAEA36
:102C48004B2274F4121873750800750900740C127D
:102C58001867123F5CFEE9FF800CE5082401F508BF
:102C6800E5093400F509C3E5089CE5099D5032855E
:102C7800080A85090B7403780A121809EA250AF864
:102C8800EB350BF988828983A3A3A3A3A3A3123AE4
:102C9800EFEE650A7003EF650B70BFE8FAE9FB8099
:102CA800047A007B00802774F41218737900EAA272
:102CB800E0501B75083E7509817808121A867C0455
:102CC8007D007AF37B0C120CDE74021218327F043A
:102CD800021945C082C083900518122D0E601C8809
:102CE800828983A3A3E06A7003A3E06B8882898347
:102CF80070E8A3A3A3A31237A680047A007B00D0B0
:102D080083D08202013512425DE8492274EE12181E
:102D18007374FC12181CEAFEEBFF85188285198370
:102D2800E4F0A3F0EE24021239F8EE2405122F295C
:102D3800EE2404F50EEF12330EE024FE603924FC75
:102D4800604624FE605224FE605E24FE7003022E5C
:102D58002E24FE7003022EA624FE7003022EB52434
:102D6800FE7003022EC424FC7003022ED324FE70CE
:102D780003022EE2022F1F9005317417F0A3E4120C
:102D88002F4312097E022F1F851882851983AC8272
:102D9800AD83120D02022EEF851882851983AC824D
:102DA800AD83120D08022EEF850C08850D097402FB
:102DB800121867AC82AD838508828509831237A60D
:102DC800120C248A0C8B0DAC0CAD0DEC4D6042E45A
:102DD800F50CF50D780C121A86750C31750D057801
:102DE8000C121A86750C32750D05780C121A867439
:102DF80008121867121A9D79161237A0120D44741A
:102E080008121832E9F50C700B12379C12099680DB
:102E18000F750C01850882850983122F31123A1427
:102E2800850C08022EF27402121867AC82AD8385F5
:102E38000C82850D831237A6120C248A108B11ACD4
:102E480010AD11EC4D6043850C82850D83A3A31250
:102E58001A9D7510317511057810121A8675103281
:102E68007511057810121A867408121867121A9DBF
:102E780079161237A0120D447408121832E9F509B0
:102E8800700B12379C12099C800F750901850C8202
:102E9800850D83122F31123A14850908804C851844
:102EA80082851983AC82AD83120D0E803A85188213
:102EB800851983AC82AD83120D14802B8518828509
:102EC8001983AC82AD83120D1A801C85188285196E
:102ED80083AC82AD83120D20800D851882851983FD
:102EE800AC82AD83120D26E9F508E50860298E82CB
:102EF8008F83A3E06414601F850E82850F83E090A2
:102F08000531122F3B124259900532123A14E50846
:102F1800A3122F43120978EEFAEFFB120CA2023922
:102F280000F50CEF3400F50D2212425D85188285FC
:102F3800198322F085188285198322F07C317D055A
:102F4800850A82850B831237AA2274EE12187374CD
:102F5800FC12181C8A0A8B0B8C0E8D0FEA2405F5BF
:102F680008EB3400F5097C157D0079007A317B0582
:102F780012052EE5082402F50CE509122F2C8518F8
:102F8800828519838582108583117810121A8685A7
:102F98000882850983A3A3A3A3123456121A86E5CF
:102FA800082405F510E5093400F5117810121A8681
:102FB800850C82850D831237B0120C1E7406121808
:102FC800328A108B11AE10AF11E50A2402F50AE51A
:102FD8000B1239FBEE4F700302311880177402127E
:102FE80018671237A688828983EAF0A3EBF0900568
:102FF80031E004F0900531E0C39405400302311834
:10300800E4F510F5117810121A8675101A75110565
:103018007810121A8675101B7511057810121A8609
:103028007406121867121A9D7910EEFCEFFD12371C
:10303800A0120D447408121832E9705E8508828562
:103048000983A3A3A3A3A3A3A3E0F890051AE068A8
:103058007048123456121A867C1B7D05E508240830
:10306800FAE5093400FB1205287402121832E960E7
:10307800298E828F83A3A3A3A31237A6900531E0DC
:10308800F5107402781012180974322510F582743C
:10309800053511F583EAF0A3EBF074021218678581
:1030A80082108583117810121A867402121867121A
:1030B8001A9D850C82850D8312426E120C2A7404A7
:1030C8001218328A108B11AE10AF11900531E0F54D
:1030D800107511007402781012180974312510F84F
:1030E80074053511F988828983A3122C4470030270
:1030F8002FDCE82403F8E93400F9EE4F6003022FCF
:10310800E58882898374FFF0A3F0900531E004F02C
:10311800900531E0600A12379C12098A7900800B09
:10312800850882850983123A0B790A02390074EA04
:1031380012187374FE12181C8C128D13EA2405F5EC
:103148000CEB1243D8122BB6750800750900EA2457
:1031580002F510EB3400F5118518828519838582F4
:103168000A85830B780A121A86850C82850D83A33B
:10317800A3A3A3123318121A86E50C2405F50AE551
:103188000D1239FB780A121A86850C82850D831276
:10319800426C120C1E74061218328A0A8B0BEA450E
:1031A8000B70030232C9EA2404F50EEB12330E1237
:1031B8002BB68A828B83A3A3A3E0F985108285119D
:1031C800831237A6120C0CE9F50960030232C9E430
:1031D800F514F5157814121A8675141A75150578EC
:1031E80014121A8675141B7515057814121A86742C
:1031F80006121867121A9D7913AC0AAD0B85108256
:103208008511831237A6120D447408121832E9F595
:103218000960030232C990051AE0F8E5087009E070
:103228002402900532F08017900532E0FCE8240271
:10323800FAE43400FBEA6C7001EB60030232CD85DE
:103248000882AA8212344D94141234455073850EA4
:1032580082850F83E0C0E074332A123305D0E0F092
:103268000508850E82850F83A3E0C0E085080A74EF
:1032780033250A123305D0E0F0050890051A1233F9
:1032880018121A867C1B7D0585080A7433250AFAEC
:1032980074053400FB120516740212183290051AD0
:1032A800E02508F50874FF6E700374FF6F6012EE76
:1032B80024010EEF3400FFE508C3941450030231D3
:1032C80060E50860131236918510828511831237E4
:1032D800A612099079008014E509700375090A851A
:1032E8001282851383EEF0A3EFF0A9097402121875
:1032F800327F0E02194585080C7433250CF582744B
:10330800053400F583223400F50F850E82F58322FB
:10331800123F9B2274EE12187374FE12181C8C0E46
:103328008D0FEA2405F50CEB122F2C750B00900578
:1033380031E4F0F50AEA2402F508EB3400F50980D7
:1033480049900531E0FA90051AE0F812344D9417C7
:10335800123445400D900531E0F87416C398900575
:103368001AF0123456121A867C1B7D0574322AFA1A
:1033780074053400FB120516740212183290051AEF
:10338800E0F8900531E028F0050AE50C2416F582EE
:10339800E50D123309E0F8E50AC398400302342E1C
:1033A800900531E0C39416507DE50AC333F8E43341
:1033B800F9E50C28FEE50D39FF851882851983ACDF
:1033C80082AD838E828F831237A6120C248A108BCB
:1033D80011AC10AD11EC4D7005750B018043E4F58F
:1033E80010F5117810121A8675101A7511057810D3
:1033F800121A8675101B7511057810121A86740634
:10340800121867121A9D7916850882850983123762
:10341800A6120D447408121832E9F50B7003023332
:1034280049123A0780107C317D0585088285098319
:103438001237A61209A2A90B7402023902E99400F4
:10344800C365D03322EA28F8E43400F9E822E0F52D
:103458001075110078102274EA12187374FC12188F
:103468001C8A0C8B0D8C128D13EA2405F50AEB12BD
:1034780039FB750800750900E50A2402F510E50B0B
:103488003400F511740212186785820E85830F784F
:103498000E121A86850A82850B83A3A3A3A3123F63
:1034A80047121A86E50A2405F50EE50B3400F50FD8
:1034B800780E121A86851082851183123A01123706
:1034C800A0120C1E74061218328A0E8B0FAE0EAFA5
:1034D8000FE50C2402F50EE50D3400F50F80408849
:1034E80082898374FFF005081232FE74FFF0050824
:1034F80090051AE0F50C750D00780C121A867C1BE5
:103508007D0585080C7433250CFA74053400FB120C
:103518000516740212183290051AE02508F508EE0F
:103528004F60718E828F83A3A3A3E0F9850E8285F5
:103538000F831237A6120C0CE9F509EE2404122F9A
:1035480029E97044E4F514F5157814121A867514EF
:103558001A7515057814121A8675141B75150578D1
:1035680014121A867408121867121A9D7911EEFC43
:10357800EFFD850E82850F831237A6120D4474085D
:10358800121832E9F5096027850C82850D831236F9
:1035980087123A14E508700302366D123691850ECB
:1035A80082850F831237A61209A879000236828510
:1035B8000882AA82EA90051A7009E024049005326C
:1035C800F08022E0F8900532E0F514E82404FCE4E9
:1035D8003400FDEC65147001ED70C012344D941286
:1035E80012344550B6850C82850D83E0C0E07433F3
:1035F8002A123305D0E0F00508850C82850D83A3D7
:10360800E0C0E01232FED0E01236A385820C85833A
:103618000D780C121A867404121867121A9D8510F8
:103628008285118312426E120C2A74041218328A8F
:103638000C8B0DAE0CAF0D85080C7433250CF8748B
:10364800053400F9EE4F70030234E78518828519B6
:1036580083E0888289831236A3A3E0C0E01232FE99
:10366800D0E00234F5E509700375090A850A8285F8
:103678000B83123687123A14A90974040232F6121F
:10368800425D85128285138322900532E0F5F0E5CC
:103698000884900531F07C317D0522F005088518F5
:1036A800828519832274EC12187374FE12181C8A0E
:1036B800088B098C0E8D0FEA2405FEEB3400FF857C
:1036C8001882851983AC82AD838E828F831237A6C8
:1036D800120C248A0A8B0BEE2418122F29EA450BA8
:1036E80070030237771238E95032851882851983BA
:1036F8001237A6120D388A108B11EA4511606B79C2
:1037080012AC0AAD0B8508828509831237A685108D
:1037180082851183121871E9F50A7058E4F50AF5E3
:103728000B780A121A868E828F83A3A3E0F50A7893
:103738000A121A86EE24031239F8780A121A868EAB
:10374800828F831237B0120D4A7406121832E9F5C7
:103758000A7021850C82850D83E0701F850882859B
:1037680009831237A61209AE8011750A0E800975F1
:103778000A018004E50A6003123A07850C82850D68
:1037880083E0600479008002A90A74021218327F6B
:103798000C0219457C317D05850A82850B83123719
:1037A800AA22E0FAA3E0FB22E0FCA3E0FD85088260
:1037B8008509831237AA2274EE12187374FE121840
:1037C8001C8A088B098C0C8D0DEA2405FEEB34004D
:1037D800FF750E00851882851983AC82AD838E82B1
:1037E8008F831237A6120C248A0A8B0BEA450B70BA
:1037F800030238D51238E9503585188285198312A5
:1038080037A6120D388A0E8B0FEA450F605E7912C3
:10381800AC0AAD0B8508828509831237A6850E820E
:10382800850F83121871E9F50E60030238D88508F0
:1038380082850983123AEFAA0AFB120D2C8A108B93
:1038480011A810A911E849701E7AFF7BFF120D2CF0
:103858008A108B11A810A911E849606C88828983A5
:10386800E50AF0A3E50BF0750A008007750E0E80D7
:103878005F050A900517E0FAE50AC39A504AE50A77
:1038880075F017A4FAABF088828983A3A3E02AFA1B
:10389800A3E03BFB8A828B83123A01EC4D70D27510
:1038A8000A17750B00780A121A86EEFCEFFD12054E
:1038B800167402121832EEFCEFFD85088285098322
:1038C8001237A61209B48014750E098003750E010B
:1038D800124255850C82850D83123A14A90E0234C2
:1038E80040E5082402F508E5093400F5098A828BC9
:1038F80083A3A3A3E0A2E52274041218327F0A026C
:10390800194574EC1218738C108D11EA2405F50C06
:10391800EB122F2C750F00EA2402F50AEB1239FB83
:10392800850A82F5831237A6120D2C8A088B09EABC
:10393800450970030239ED750E008071850C82858A
:103948000D83E06401704F8E828F83A3A3121A9DAA
:103958008E828F83A3A3A3A3E0F5127513007812B8
:10396800121A86EE2405F512EF3400F513781212B8
:103978001A861237A0120D4A7406121832E9F50F8A
:103988006014850C82850D83E4F0124255851082FF
:10399800851183123A147C177D007900EEFAEFFB4B
:1039A80012052E8E828F83E4F0A3F0050E90051782
:1039B800E0F8E50EC398501EE50E75F017A4F8A9B7
:1039C800F0850882850983A3A31243E2123A01EC29
:1039D8004D600302394485088285098374FFF0A38A
:1039E800F0E50F70061237A01209BAA90F0237972F
:1039F800F50AEF3400F50B22A3E0FCA3E0FD228ECC
:103A0800828F8312425D850E82850F83E8F0A3E9D9
:103A1800F022C082C083900513E06A7003A3E06BB4
:103A280070067A137B0580047A007B00022D07C09C
:103A380082C08378008C828D83E06A7003A3E06B78
:103A48007010E875F003A4F8A9F0EC28FAED39FB3A
:103A58008015088C828D83A3A3A3E06A7003A3E07A
:103A68006B60DF7A007B00022D0774F61218731260
:103A78000CF68A828B83E582458370067A007B0088
:103A88008007A3A3A3A31237A602410674F2121853
:103A980073E9FE740E121867123AEF741012186761
:103AA800123F678C828D83E064027036A3124263F2
:103AB800F50CA3E0F9A80C74026870037429697006
:103AC80021750C02750D00780C121A867808121AE6
:103AD80086780A121A86EEF9120D6E7406121832DA
:103AE8008002790102418AE0F50AA3E0F50B22740D
:103AF800E812187374FB12181CE98518828519835B
:103B0800F08A168B17ECFEEDFF751000741D121865
:103B180067124259741D121867123A148E828F83E5
:103B2800A3A3A3E0A2E4502D741D1218671237A6B0
:103B3800120D388A828B83E58245837003023F38F1
:103B4800790AEEFCEFFDAA16AB17121871E9F51009
:103B58006003023F3B741F121867123F67742112FB
:103B68001867123AEF7423121867E0F50EA3E0F510
:103B78000F8E828F83E064026003023EE6A3124246
:103B880059850882850983A3858212858313EE24CB
:103B980006122F2988828983E0FAA3E0F9EA240033
:103BA800F514E439F5157814121B100100002801EA
:103BB80028DB3B07000228A03C03280D3C0029D73E
:103BC8003D0129023E0229A33D0329D73D0429814D
:103BD8003EE63EE50E450F6003023EE1850C828518
:103BE8000D83123F5CFAE9FB8A828B83E0850A82A7
:103BF800850B83123F92121A868A828B83A3E0FC7C
:103C0800A3E0023E6BE50E450F6003023EE1850A24
:103C180082850B837401F0123F6F850882850983C2
:103C2800F07C007D008E828F83A3A3A3A3E02401F0
:103C3800FAA3E03400FB120C24EA4B60418A828B21
:103C480083E02402F8850A82850B83E028F0EA24C1
:103C580004F8EB3400F988828983E08512828513A1
:103C680083123FA4123F92121A868A828B83123AD9
:103C780000E5082403FAE5093400FB023E70850AD2
:103C880082850B83E02404F07C047D007900AA126D
:103C9800AB1312052E023F3BE50E450F6003023EB3
:103CA800E1123F6FFEA3E0FF850A82850B8374044F
:103CB800F0EE850882850983F0EF851282851383EB
:103CC800F07403121867AC82AD83EEFAEFFB120CA6
:103CD800248A0C8B0DEA450D7003023D848A828B81
:103CE80083A3A3122BB2740112186785820E8583F1
:103CF8000F780E121A867405121867121A9D7CFF27
:103D08007DFF120C2A74041218328B0FEA450F70CB
:103D180033850C82850D83123F47121A86850C82E3
:103D2800850D83A3121A9D7C027D007A2A7B81125D
:103D38000A567404121832E9700A7401121867746A
:103D4800FFF0A3F08E828F83E064027039750C0255
:103D5800750D00780C121A868E828F83123A00E550
:103D6800082404FAE5093400FB1205167402121837
:103D780032850A82850B83E02402800974011218B7
:103D880067EEF0A3EFF07401121867123F58F07451
:103D980001121867A3123F50023EDBE50E450F6083
:103DA80003023EE1850C82850D83123A01AA16AB07
:103DB80017120D62850A82850B837402F0EA850862
:103DC80082850983F0851282851383EB023EDEE546
:103DD8000E450F6003023EE1123F6FF8A3E0F9853C
:103DE8000A82850B837402F0E8850882850983F0CE
:103DF800E9851282851383023EDE850C82850D8358
:103E08001237A6120510EAFC8C82A882C3950EE42C
:103E1800950F405FE8650E7002E50F70047C008026
:103E280022851882851983E0FAE50E2AFAE50F340F
:103E380000FBC3EA98EB94005003E08005E50ECC44
:103E4800C39CFCEC850A82850B83F08C0A750B00F9
:103E5800780A121A86850C82850D83E0250EFCA34C
:103E6800E0350FFDAA08AB091205167402121832C4
:103E7800023F3B751007023F3BE50E450F705A8520
:103E88000C82850D83124259850A82850B8374073B
:103E9800122BBE123F50122BBEA3E085128285134F
:103EA80083F0E82402FAE93400FB8A828B83123F0C
:103EB80050123F7F123F58A3123F88123F61F0E82B
:103EC8002405F8E93400F988828983123F61A31236
:103ED8003FA4A3A3A3A3F0805A75100B8055741DAB
:103EE8001218671237A6120CF68A828B83E5824570
:103EF80083603D124259880C890DE8450D60317880
:103F08000E121A86780A121A867808121A86740609
:103F1800121867E0F9EEFCEFFDAA16AB17850C82C4
:103F2800850D831218717406121832E9F510800392
:103F380075100EA91074051218327F10021945E089
:103F4800F50E750F00780E22E08508828509832218
:103F5800123FAE2212425DE822123FAEA3A322E036
:103F6800F508A3E0F50922850C82850D83E0F8A306
:103F7800E0F5838882E022A3A3F08A828B83A322C0
:103F8800F088828983A3A3A3A322F08A828B831259
:103F98003F9B22E0F50A750B00780A22F088828997
:103FA80083A3123FAE22E0850882850983A3A3225A
:103FB80074EE12187374FE12181C8A0A8B0BECFA32
:103FC800EDFB7414121867E0F510A3E0F5117416F0
:103FD800121867E0FE7418121867E0F50EA3E0F5F2
:103FE8000F851882851983AC82AD83120C248A0C44
:103FF8008B0DEA450D60498518828519831237A60D
:10400800120CF68A828B83E5824583602FA3A31264
:104018003F67E50845096024780E121A8678101261
:104028001A86EEF9AC0CAD0DAA0AAB0B8508828591
:10403800098312187174041218328006790E8002EE
:10404800790102344074F612187374FE12181C7445
:104058000C121867123F5C851882851983F0740169
:10406800121867E9F0E4F508F5097808121A867558
:1040780008027808121A867404121867858208855F
:1040880083097808121A86120D4A740612183274B7
:1040980002121832806874F7121873EAFEEBFF896F
:1040A800087C4A7D05120D62EA5402600BA908EEED
:1040B800FAEFFB120C1880027901022ABA74F61280
:1040C800187374FF6A700374FF6B70168C828D838B
:1040D80012410BE4F08C828D83A3A3A312410BA39E
:1040E8008018120D328A088B09A808A909E84960C6
:1040F8000D8882898374FF122BBCA3A3E4F07F028E
:1041080002194574FFF0A3F08C828D83A3A3227457
:10411800F6121873120D328A828B83E5824583600A
:1041280006A3A3E0FA80027A007B0080D174F21221
:1041380018738A088B09ECFEEDFF740E121867E0FD
:10414800F50A120D328A0C8B0DA80CA90DE84970DE
:1041580026EEFCEFFD7AFF7BFF120D328A0C8B0DE9
:10416800A80CA90DE8497004791180168882898302
:10417800E508F0A3E509F088828983A3A3E50AF09E
:1041880079007F0602194574EE121873EAFEEBFFF8
:104198008C088D09890C7414121867124259741608
:1041A8001218671237A6750D00E849600302424DE0
:1041B8007402650C600302424874121218671242B6
:1041C80063FCA3E0F9EC2400F50EE439F50FEAF4FA
:1041D800F8EBF4F9EC58F8E50F59F9E849705CE5A3
:1041E800082406F8ED3400F9880A890B8882F583DB
:1041F80012426E120D628A108B11E50E6510700462
:10420800E50F65116042780E121A86850A82850BC1
:104218008312426E120D687402121832E9F50D709D
:1042280027780E121A86850882850983A3A312426D
:104238006C120D807402121832800D750D80800882
:10424800750D0D8003750D0BA90D0239058E828F32
:104258008312425D22E0F8A3E0F92212425D8882CF
:104268008983E022A3A3E0FCA3E0FDEEFAEFFB22A2
:1042780074E812187374E712181C8518828519835C
:10428800EAF0A3EBF08C168D17890E7508007509F6
:10429800007431121867E0F512A3E0F513743312B5
:1042A8001867E0F514A3E0F5157435121867E0F502
:1042B8000FE50975F003A4F8A9F08518828519831C
:1042C8001243E2E0F47003A3E0F470030243C5EE86
:1042D8002402F50CEF1243D8E070030243C585169B
:1042E8000A85170B780A121A86AC14AD15AA12ABF8
:1042F80013120CEA74021218328A0A8B0BEA450B65
:1043080070030243C5E4F510F5117810121A86748B
:10431800061218678582108583117810121A867420
:10432800091218678582108583117810121A8685FC
:104338001282851383A3A3A3A3121A9D7914AC0A2E
:10434800AD0B8E828F831237A6120D447408121893
:1043580032E97069850A82850B83A3A3A3A312425D
:10436800597402121867123A14850C82850D83E07D
:10437800A2E05018A90E7402121867AC82AD838EA1
:10438800828F831237A6120C3CE94208850C82857D
:104398000D83E0A2E15026E50FF50A780A121A8A81
:1043A800A90E7403121867AC82AD838E828F8312B4
:1043B80037A6120C367401121832E942080509E5CD
:1043C80009C3940250030242B9A9087419023F3F75
:1043D8003400F50D850C82F58322E028FEA3E03930
:1043E800FF8E828F832274F2121873EAFEEBFF8924
:1043F8000B7401650B600E7402650B706A7901120B
:104408000F48E97062EEFAEFFB120D2C8A088B094F
:10441800EA45096047750A00800B7C177D00790022
:1044280012052E050A900517E0F8E50AC3985021F1
:10443800E50A75F017A4F8A9F0850882850983A311
:10444800A3E028FAA3E039FB8A828B83122D0E7031
:10445800C985088285098374FFF0A3F07C4A7D052D
:10446800EEFAEFFB120D5C02418A74F21218738A9D
:10447800088B09ECFEEDFF740E121867123AEF90E4
:104488000CF1E0F4603D7A097B0012053AEA4B60D2
:10449800328A828B8374B1F0A3E4123F81A3123F66
:1044A8007FA3E508F0A3E5091244CEEEF0A3EF12CE
:1044B80044CEA3A3E50AF0A3E50BF0900CF1E0F9D4
:1044C80012054602418AF08A828B83A3A3A3A3A381
:1044D80022C082C0839061907404F0A37448F0A352
:1044E8007402F09061807440F09061BC7403F090A5
:1044F80061877419F0906265741BF0906249E0C39B
:10450800941390619C400A7409F09060667401806D
:1045180007740DF0906066E4F090619A7433F0A32C
:104528007455F09061A0743AF0900770E0640170DF
:1045380009C2919005D7746780059005D77461F01A
:10454800902A76E493906186F0902A70E493F46060
:1045580027E493540FF8906185E0686012E5C6542B
:10456800804449F5C6E59E547F644970F8E8F053E5
:10457800C680E59E547F70FA79051212B402475836
:10458800C082C083E9540FF9906185E0696012E543
:10459800C654804449F5C6E59E547F644970F8E9DD
:1045A800F053C680E59E547F70FA024758C082C017
:1045B80083E5A8F853A87E906181E4F0A3F0A3F006
:1045C800C2BA539AFEC289759B00C2C275E90075CA
:1045D800910075BF0075A91175B905906181F0A3A7
:1045E80074C0F0A3E4F0D2BA439A0174805842A888
:1045F800024758C082C08374F812181C9005D5E091
:10460800F8A3E0F9E84970030247299005D5E0547A
:104618004060237908851882851983AA82AB8312A2
:104628001116851882851983AA82AB83120DF8901A
:1046380005D5E054BFF0E054806010790C7A967B81
:10464800071211169005D5E0547FF0E0A2E0503132
:1046580090619A7433F0A37455F09061A0743AF0A5
:10466800900770E064017009C2919005D774678063
:10467800059005D77461F0120DFE9005D5E054FE43
:10468800F0E05402603190619A743FF0A3745AF0DC
:104698009061A0747FF0900770E064017009D29176
:1046A8009005D7747180059005D7746AF0120DFED5
:1046B8009005D5E054FDF0E054046013902A74E4AA
:1046C80093906186F0120E049005D5E054FBF0E05B
:1046D80054086013902A75E493906186F0120E04D2
:1046E8009005D5E054F7F0E054106013902A76E472
:1046F80093906186F0120E049005D5E054EFF0E037
:104708005420600A120E049005D5E054DFF0A3E0AF
:104718005401600D12103E120E0A9005D6E054FEA8
:10472800F07408121832024758C082C083E9600842
:1047380014600A14600C8013902A748008902A75FB
:104748008003902A76E493906186F08003F0A3F0CA
:10475800D083D08202013574EC12187374F41218E5
:104768001C851882851983AC82AD83758381758217
:104778008C740412172F902A7493F460030248EB88
:10478800907808E0C3940250030248CB74041218CE
:1047980067AC82AD83758381758222740812172FE6
:1047A80085188285198385821285831374041218EB
:1047B80067AC82AD83750EFF750FFF7FFF7E0075B6
:1047C8000C48750D78801574086E700302485F7484
:1047D800096E700302485F740A6E607B850C8285DF
:1047E8000D8378081216EC8C828D83A909E50AC915
:1047F800F888107418780812161AE5104508F8C3D6
:10480800E098A3E099850C82850D8378081216EC50
:1048180040188C828D837418780812161AE5104592
:1048280008F8E0C398F8A3E0801C741878081216FA
:104838001AE5104508FAE9FB8C828D83E0F8A3E0BD
:10484800F9EAC398F8EB99F9C3E8950EE9950F5082
:1048580006880E890FEEFF0EE50C2404F50CE50D15
:104868003400F50DEEC3941350030247CF74FF656F
:104878000E700474FF650F60238F087402780812A5
:10488800180974482508F58274783509F58378087D
:104898001216EC851282851383E508F0EC2402FCDD
:1048A800ED3400FD851282851383A38582128583EA
:1048B80013740C121867E5826C7003E5836D60034E
:1048C8000247BD7508017509007808121A86740236
:1048D800121867AC82AD837A9D7B0A1207B6740200
:1048E800121832740C1218327F0C021945C082C09B
:1048F800839061AE7468F0A3746AF090624574FBAB
:10490800F0A304F053F4FD43FE029007707401F025
:104918009061A0E0643A90619A70237433F0A374B4
:1049280055F09061A0743AF0740164017009C29165
:104938009005D7746780289005D774618021743FEB
:10494800F0A3745AF09061A0747FF0740164017050
:1049580009D2919005D7747180059005D7746A02C1
:1049680047577F08021945C082C083900722E06438
:1049780001700A900727E06004790C800279000230
:104988004758C082C08375E1F1900725E0605B1449
:10499800600914605F14605714705E12105090071D
:1049A8001BE0F97A1C7B071212367AD67BBE7C890B
:1049B8007D8E12126C7A557B557C557D0012124201
:1049C800900726E0F912124E79011212A8900719E1
:1049D800E0F8A3E0C82416F582E83400F58374688B
:1049E800F0A37410F0790002475812105680AF12E5
:1049F800105C80AA12106280A5791280EA74F01205
:104A0800187375D90D900706E0A2E0E4331313F884
:104A180090071BE0C4333354C0484401F5D97819D2
:104A2800790788828983A3A3A3E0F5D9888289833B
:104A3800A3A882A983E8641F7003E9640770E37878
:104A480006790788828983A3E0F5D988828983A3B8
:104A5800A882A983E8640C7003E9640770E575E12E
:104A680095900706E0F97A077B0712123C900D1320
:104A780074F6F0A3740FF0A3745EF0A37411F0A39E
:104A8800745EF0A37411F0A3745EF0A37411F0A324
:104A980074FCF0A3740FF0A3745EF0A37411F0A378
:104AA8007414F0A37410F0900D21745EF0A37411C7
:104AB800F0A3745EF0A37411F0A3745EF0A37411F4
:104AC800F0A3745EF0A37411F0A3745EF0A37411E4
:104AD800F0A3745EF0A37411F0900725E0640190D0
:104AE80007197012E0F8A3E0F5838882A3A375087C
:104AF800007509088010E0F8A3E0F5838882A3A375
:104B0800750804750900750A00750B0078081216F7
:104B180065750CFF750DFF750EFF750F0078087928
:104B28000C1216B3900719E0F8A3E0C8240EF5821A
:104B3800E83400F58378081216FB900719E0F8A30B
:104B4800E0C82414F582E83400F5837413F0900566
:104B5800D37402F002496A74F712187390072BE0B5
:104B68002407F5D990071BE0C4333354C0F5D9782E
:104B780019790788828983A3A3A3E0F5D988828954
:104B880083A3A882A983E8641F7003E9640770E31C
:104B980090072BE0601F78197907FAE82413F5824B
:104BA800E93400F583E0F5D988828983A3A882A92E
:104BB800831AEA70E690074BE02407F5D990071BA3
:104BC800E0C4333354C04404F5D97819790788828E
:104BD8008983A3A3A3E0F5D988828983A3A882A99E
:104BE80083E8641F7003E9640770E390074BE06093
:104BF8001F78197907FAE82433F582E93400F58338
:104C0800E0F5D988828983A3A882A9831AEA70E685
:104C180075E195900D137402F0A37410F0A3745EFF
:104C2800F0A37411F0A3745EF0A37411F0A3745E82
:104C3800F0A37411F0A374FCF0A3740FF0A3745ED6
:104C4800F0A37411F0A37414F0A37410F0900D2164
:104C5800745EF0A37411F0A3745EF0A37411F0A352
:104C6800745EF0A37411F0A3745EF0A37411F0A342
:104C7800745EF0A37411F0A3745EF0A37411F09045
:104C88000719E0F8A3E0C8240EF582E83400F5839C
:104C980074FFF0A3F0A3F0A3F0900719E0F8A3E0E5
:104CA800C82414F582E83400F5837412F09005D313
:104CB8007401F0FF02194574F712187390072BE07E
:104CC8002407F5D990071BE0C4333354C04402F5D8
:104CD800D97819790788828983A3A3A3E0F5D988AD
:104CE800828983A3A882A983E8641F7003E9640703
:104CF80070E390072BE0601F78197907FAE824130E
:104D0800F582E93400F583E0F5D988828983A3A880
:104D180082A9831AEA70E675E195900D13740EF076
:104D2800A37410F0A3740EF0A37410F0A3740EF023
:104D3800A37410F0A3740EF0A37410F0A3740EF013
:104D4800A37410F0A3740EF0A37410F0A37414F0FD
:104D5800A37410F0900D21745EF0A37411F0A37485
:104D68005EF0A37411F0A3745EF0A37411F0A37441
:104D78005EF0A37411F0A3745EF0A37411F0A37431
:104D88005EF0A37411F0900719E0F8A3E0C8240EB0
:104D9800F582E83400F58374FFF0A3F0A3F0A3F0E4
:104DA800900719E0F8A3E0C82414F582E83400F568
:104DB800837414F09005D37404F002508674F712CB
:104DC800187390072BE02407F5D990071BE0C4332C
:104DD8003354C04406F5D97819790788828983A3A2
:104DE800A3A3E0F5D988828983A3A882A983E8646C
:104DF8001F7003E9640770E390072BE0601F7819C0
:104E08007907FAE82413F582E93400F583E0F5D947
:104E180088828983A3A882A9831AEA70E690074B3F
:104E2800E02407F5D990071BE0C4333354C0440489
:104E3800F5D97819790788828983A3A3A3E0F5D9DE
:104E480088828983A3A882A983E8641F7003E96420
:104E58000770E390074BE0601F78197907FAE82498
:104E680033F582E93400F583E0F5D988828983A394
:104E7800A882A9831AEA70E675E195900D13740863
:104E8800F0A37410F0A3745EF0A37411F0A3745E21
:104E9800F0A37411F0A3745EF0A37411F0A3745E10
:104EA800F0A37411F0A3745EF0A37411F0A374144A
:104EB800F0A37410F0900D21745EF0A37411F0A3A8
:104EC800745EF0A37411F0A3745EF0A37411F0A3E0
:104ED800745EF0A37411F0A3745EF0A37411F0A3D0
:104EE800745EF0A37411F0900719E0F8A3E0C824E9
:104EF8000EF582E83400F58374FFF0A3F0A3F0A365
:104F0800F0900719E0F8A3E0C82414F582E834000B
:104F1800F5837415F09005D37403F0025086C082AF
:104F2800C083900719E0F8A3E0C82406F582E834A6
:104F380000F583E402475574F7121873900601E0F0
:104F4800F875F003A4C8AAF02AF9740328F87406BF
:104F580039F9E82405FAE93400FB8A828B83E0FCFE
:104F6800A3E0FD88828983A3A3A3A3A3A3A3A3A3E8
:104F7800ECF0A3EDF088828983A3A3A3A3A3A3A342
:104F8800E024FFF8A3E034FFF98A828B83E8F0A3DA
:104F9800E9F002508674F7121873EAFEEBFF90618D
:104FA800D0E0600302507A75D90E75D90375D9041B
:104FB800EE248BF582EF3400F583E5822408F8E5CA
:104FC800833400F9E0F5D9A3E865827003E96583C5
:104FD80070F2EE2483F582EF3400F583E582240431
:104FE800F8E5833400F9E0F5D9A3E865827003E9B0
:104FF800658370F275E1957908EE248BFAEF340039
:10500800FB12110A7904EE2483FAEF3400FB121123
:105018000A7C00EEF8EFF9ECFAC3E49AFA95E0FBA3
:10502800EE2AFAEF3BFBEA248AF582EB3400F5839B
:10503800E0C0E0E824AAF582E93400F583D0E0F086
:105048000C88828983A3A882A983ECC3940840C7EB
:10505800EE246FF582EF3400F583E0F8A3E0F9EE73
:105068002471F582EF3400F583E8F0A3E9F07901C3
:10507800800279008008F0EEA2E092AF79007F010B
:10508800021945C082C08375D90275D90375D9053F
:1050980075E195EA246FF582EB3400F583E0F8A317
:1050A800E0F9EA2471F582EB3400F583E8F0A3E92E
:1050B800F0790102475874F6121873EAFEEBFF9074
:1050C80007767406F07508767509077808121A8647
:1050D8007C017903121152740212183275D90675BF
:1050E800D903758276758307E0F5D9A3E582647BD9
:1050F8007004E583640770F075E1959005D3E0646A
:1051080008701EEE246FF582EF3400F583E0F8A3F3
:10511800E0F9EE2471F582EF3400F583E8F0A3E9B5
:10512800F0790102538C74F6121873EAFEEBFF90C3
:1051380061D0E070667801900776740BF09005D323
:10514800E0640770197508767509077808121A86D9
:105158007C01790312115274021218327805740115
:1051680028F5D975D903758276758307E8FAE0F5CD
:10517800D9A31AEA70F875E195EE246FF582EF3439
:1051880000F583E0F8A3E0F9EE2471F582EF34002E
:10519800F583E8F0A3E9F079018002790002538CE5
:1051A80074F7121873EAFEEBFF75D90375D9037506
:1051B800D90DEE24DDF582EF3400F583E0F5D975DD
:1051C800E1957904121272EE246FF582EF3400F53E
:1051D80083E0F8A3E0F9EE2471F582EF3400F5835B
:1051E800E8F0A3E9F0790102508674F6121873EA20
:1051F800FEEBFF9061D0E0F87480C398FAEE248249
:10520800F582EF3400F583E06004780480027800CA
:10521800E8240BF8EAC39850030252B77D099007B7
:1052280076EDF0EE24E2F8EF3400F97A777B077C2C
:105238000888828983E08A828B83F088828983A3A5
:10524800A882A9838A828B83A3AA82AB831CEC7071
:10525800E0EE2482F582EF3400F583E0601D7508E6
:10526800767509077808121A867C097903EEFAEF31
:10527800FB12115274021218327D0D74012DF5D9EA
:1052880075D9037582767583078D08E0F5D9A3155E
:1052980008E50870F675E1957904121272EE241D7E
:1052A800F582EF3400F583E4F0A3F0790180027908
:1052B8000002538C74F6121873EAFEEBFF9061D06B
:1052C800E0F87480C398FAEE2482F582EF3400F592
:1052D80083E06004780480027800E82408F8EAC3D0
:1052E80098500302538A7806900776740CF090055C
:1052F800F0E0900777F09005F1E0900778F09005DE
:10530800F2E0900779F09005F3E090077AF09005C5
:10531800F4E090077BF0EE2482F582EF3400F58309
:10532800E0601B7508767509077808121A867C06EE
:105338007903EEFA1211527402121832780A7401C3
:1053480028F5D975D9037582767583078808E0F53D
:10535800D9A31508E50870F675E19579041212725B
:10536800EE246FF582EF3400F583E0F8A3E0F9EE60
:105378002471F582EF3400F583E8F0A3E9F07901B0
:10538800800279007F0202194574F6121873EAFE4A
:10539800EBFF9061D0E0F87480C398FAEE2482F5B0
:1053A80082EF3400F583E06004780480027800E836
:1053B8002404F8EAC398500302546B7802900776E5
:1053C800E8F0EE24F4F582EF3400F583E0900777F7
:1053D800F0EE2482F582EF3400F583E0601B750857
:1053E800767509077808121A867C027903EEFA1294
:1053F800115274021218327806740128F5D975D939
:10540800037582767583078808E0F5D9A31508E542
:105418000870F675E195EE2473F582EF3400F58394
:10542800E4F0EE247FF582EF3400F583E4F0EE2417
:105438001DF582EF3400F583E4F0A3F0790412122D
:1054480072EE240DF582EF3400F583E0F8A3E0F95D
:10545800EE2471F582EF3400F583E8F0A3E9F079E2
:10546800018002790002538C74F61218739061D08F
:10547800E0F87480C398FCEA2482F582EB3400F5E6
:1054880083E06004780480027800E82404F8ECC320
:1054980098405B79029007767407F0EA24F5F58264
:1054A800EB3400F583E0900777F0EA2482F582EB8D
:1054B8003400F583E06018750876750907780812D6
:1054C8001A867C0209121152740212183279067473
:1054D8000129F5D975D903758276758307E9F8E04E
:1054E800F5D9A318E870F875E1957901800279007B
:1054F80002538C74F5121873E9FCA2AFE433F50A71
:10550800C2AF7D0080010DEA246EF582EB3400F510
:1055180083E0F8EDC398501A8D08EA2508F8EB34B3
:1055280000F9E8246AF582E93400F583E06C70D666
:105538008024EA246EF8EB3400F9E0FEEA2EFAEB58
:105548003400FBEA246AF582EB3400F583ECF0883A
:10555800828983E004F0E50AA2E092AF7F03021992
:105568004574F6121873A2AFE433FDC2AFEA246E95
:10557800F582EB3400F583E014F07C0060368C088B
:10558800EA2508F8EB3400F9E8246BF582E93400E1
:10559800F583E0C0E0E8246AF582E93400F583D0B9
:1055A800E0F00CEA246EF582EB3400F583E0F8ECC9
:1055B800C39840CAEA246DF582EB3400F58374FF82
:1055C800F0EA2469F582EB3400F583E4F0EDA2E01B
:1055D80092AF02538CC082C083E5A8F8C2AFEA2418
:1055E8006AF582EB3400F583E9F0EA2469F582EB89
:1055F8003400F583E4F0E8A2E7A2E792AF02475847
:1056080074F3121873EAFEEBFFECFAEDFB8A828B57
:1056180083A3A3A3A3E0541FF0EE2436F582EF344E
:1056280000F583E4F0F50AEEFCEFFD8A828B83E057
:10563800C0E0EC245DF582ED3400F583D0E0F07530
:105648000B00E50A33333354F8F50C8A828B83E078
:10565800F508750900E50B78081217EAE508A2E0D5
:10566800502FEE2436F8EF3400F988828983E0F56C
:1056780008EE2508F508EF3400F509E5082438F5A3
:1056880082E5093400F583E50CF088828983E0041B
:10569800F0050B050CE50BC3940840AF050A8A8298
:1056A8008B83A3AA82AB838C828D83A3AC82AD83C8
:1056B800E50AC3940550030256337F050219457461
:1056C800F71218739005FFE0640170030258257AF9
:1056D80000900605E060030258257401F0A3E4F089
:1056E800A3F090066504F090066AF0900608E4F0CE
:1056F800A3F0A3F0A3F090061204F0900638E4F0AB
:1057080090061BF0A3F0A3F0A3F0A3F0A3F0A3F07E
:10571800900682F0900676F090066B7480F0A3E411
:10572800F0900671F09006EDF0A3F0A3F0A3F0A3BB
:10573800F0A3F0A3F0A3F09006F6F0900685F090A1
:1057480006D5F0A3F0A3F0A3F0A3F0A3F0A3F0A371
:10575800F0A3F0A3F09006E1F09006E3F09006DFE6
:10576800F09006F9F0A3F0A3F0A3F0A3F0A3F0A340
:10577800F0A3F078FF7905E8246EF582E93400F5A6
:105788008374FFF00A88828983A3A882A983EAC365
:10579800940440E37AFF7B05780D79078882898332
:1057A800E0C0E0EA2461F582EB3400F583D0E0F054
:1057B80088828983A3A882A9838A828B83A3AA82E9
:1057C800AB83E864127003E9640770D07AFF7B0545
:1057D80078E6790588828983A3E0C0E0EA24E6F5C3
:1057E80082EB3400F583D0E0F088828983A3A88215
:1057F800A9838A828B83A3AA82AB83E864EE7003B1
:10580800E9640570CF9005FFE004F064017008902A
:105818000607E0900601F07A037B0680047A007B95
:1058280000025086C082C083900606E4F090060508
:10583800F09005FFF0A3F0A374FFF075E1F10247C3
:1058480058C082C08378007900900606E06004782A
:1058580003790688828983A3A3A3A3E0F9024758A2
:1058680074F6121873EAFEEBFFEE2463F582EF3448
:1058780000F583E0F8A3E0F9E849700302590DEE5A
:105888002463F8EF3400F97A007B00A2AFE433F523
:1058980008C2AF88828983E0FCA3E0FDEC4D603A42
:1058A80088828983E0FAA3E0FB8A828B83E0FCA3E9
:1058B800E0FD88828983ECF0A3EDF08A828B83E493
:1058C800F0A3F088828983E0FCA3E0FDEC4D700A28
:1058D80088828983A3A3E4F0A3F0E508A2E092AF4D
:1058E800120870900713E004F0900714E004F0EE3B
:1058F8002463F582EF3400F583E0F8A3E0F9E84982
:1059080060030258878E828F83A3A3A3E0600F8E63
:10591800828F83A3A3A3E4F0900600E014F090051F
:10592800FFE014F0700690060174FFF08E828F83FA
:10593800A3A3E4F0900712E0700D900600E0640164
:1059480070057900121254EEFAEFFB12118202531D
:105958008C74F7121873EAFEEBFF8E828F83A3A371
:10596800A3A3E0FA7B00120E4CEEFAEFFB1210D460
:1059780012116A025086C082C08378E6790588824F
:105988008983A3E4F088828983A3A882A983E86431
:10599800EE7003E9640570E69005E7740102475765
:1059A80074F6121873EAFEEBFFEC2403F8ED3400EA
:1059B800F988088909EC2407F8ED3400F9E8FCE9CE
:1059C800FD8C828D83E0F8A3E0F985088285098340
:1059D800E0FAA3E0FB121791EE240DF582EF3400F4
:1059E800F583E8F0A3E9F08C828D83E0F8A3E0F971
:1059F800850882850983E0FAA3E0FB1217918B09D9
:105A0800EA45096013EE240DF582EF3400F583E0D2
:105A18002401F0A3E03400F002538C74F6121873DA
:105A2800EAFEEBFFEE242EF582EF3400F583E0FC6E
:105A3800A3E0FD780079FAECFAEDFB121791EE2459
:105A48006FF582EF3400F583E8F0A3E9F078007988
:105A5800FAECFAEDFB1217918B09EA45096013EE8F
:105A6800246FF582EF3400F583E02401F0A3E034DD
:105A780000F002538C74EC121873EAFEEBFF7414F6
:105A880012186778081216EC1212128A0C8B0D8CF9
:105A98000E8D0F75100275110075120075130078C0
:105AA8000C79101216527510FF7511FF7512FF78D8
:105AB8000C79101216B3780C121A828E828F83E03A
:105AC800F8A3E0F5838882A3A312170A1228137497
:105AD80004121832E96003025BE18E828F83E024AE
:105AE80002F8A3E03400F9E8FAE9FB8A828B8378AC
:105AF800081216788A828B837508FF7509FF750A64
:105B0800FF750B0078081216D9EE240BF582EF34D6
:105B180000F583C082C0838E828F83A3A3A3A3A32F
:105B2800E02401F8A3E03400F9D083D082E0687063
:105B380003A3E06970057901025BE38E828F83A37A
