:020000040000FA
:10000000020529020823FFFFFFFFFF02082BFFFF65
:10001000FFFFFF020833FFFFFFFFFF02083BFFFF68
:10002000FFFFFF020843FFFFFFFFFF02084BFFFF38
:10003000FFFFFF020853FFFFFFFFFF02085BFFFF08
:10004000FFFFFF020863FFFFFFFFFF02086BFFFFD8
:10005000FFFFFF020873FFFFFFFFFF02087BFFFFA8
:10006000FFFFFF020883FFFFFFFFFF02088BFFFF78
:10007000FFFFFF020893FFFFFFFFFF02089BFFFF48
:10008000FFFFFF0208A3FFFFFFFFFF0208ABB10362
:10009000E303E303E303E303E703EB3C904D534443
:1000A0004F53352E3000020401000210000000F80A
:1000B0000100000000000400000004000000000037
:1000C00029000000004E4F204E414D4520202020A9
:1000D000464154313220202000035F005F00300091
:1000E00058000000000000000000000000000000B8
:1000F0000000000000000000000000000000000000
:10010000000074F71202C543C707E59D5418641038
:10011000704275080475090078081204F17C9D7D11
:10012000147A9C7B06790112066274021204A7906D
:10013000149DE0F8A3E0F9A3E0687003A3E0697000
:100140001390149DE0F47003A3E0F46007E84960A5
:1001500003120650781075B60FE5B4A2E750FAE521
:10016000BBC3944A40F018E870EC75A80075B8005D
:10017000759A0075C6809062707408F079017F02EC
:10018000020371E4CFC0E0E4CEC0E0E4CDC0E0E41F
:10019000CCC0E075F020C3E633F608E633F608E697
:1001A00033F608E633F6181818EC33FCED33FDEEA1
:1001B00033FEEF33FFC3EC9709ED9709EE9709EF94
:1001C00097191919400FFFEC97FC09ED97FD09EEFF
:1001D00097FE191906D5F0BEECF709EDF709EEF711
:1001E00009EFF7191919D0E0FCD0E0FDD0E0FED0FE
:1001F000E0FF222518C582C0E0E51934FFC583C0A1
:10020000E0E518C3958224F810AF0885831985822C
:10021000188008858319858218D2AFCEF0A3E52017
:10022000F0A37808E608F0A3DEFAEFF0A3E5812456
:10023000FAF8E608F0A3E608F0A3E608F0A3080839
:10024000E608F0A3E608F0A315811581D0E0FED002
:10025000E0F8158115811581E8C0E0EEC0E02212BA
:100260000102B900030202AFE479217807B8000265
:100270008004F709D8FCE4900300782A7901800211
:10028000F0A3D8FCD9FA900329AA82AB8390008E00
:10029000787579018015E493A3AC82AD838A828B53
:1002A00083F0A3AA82AB838C828D83D8E9D9E775CA
:1002B00082EF7583C574071204547582A775830590
:1002C00074001204542518C582C0E0E51934FFC536
:1002D00083C0E0E518C3958224F910AF088583191F
:1002E0008582188008858319858218D2AFCEF0A345
:1002F000E520F0A37808E608F0A3DEFAEFF0A3E526
:100300008124FBF8E608F0A3E608F0A30808E60855
:10031000F0A3E608F0A315811581D0E0FED0E0F847
:1003200015811581E8C0E0EEC0E0228519838518AB
:1003300082E0A3FEE0A3F5207808E0A3F608DFFA48
:10034000E0A3FFE0A3C0E0E0A3C0E0E0A3C0E0E0E2
:10035000A3C0E0E0A3C0E010AF0885821885831930
:100360008008858218858319D2AFD083D082020499
:100370005A851983851882E0A3FEE0A3F52078084A
:10038000E0A3F608DFFAE0A3FFE0A3C0E0E0A3C02B
:10039000E0E0A3C0E0E0A3C0E010AF0885821885CC
:1003A00083198008858218858319D2AFD083D082C3
:1003B0002212010002000000205104A816090001C9
:1003C00002030109022000010100800F090400005E
:1003D00002080650000705840240000007050402D9
:1003E000400000CC03102074038000CCC0E0EDC0BE
:1003F000E0E518C39CCCAD1950011D10AF068C1858
:100400008D1980068C188D19D2AF120414D0E0FD1E
:10041000D0E0FC22CAC0E0E0A3C582CCC582C5837F
:10042000CDC583F0A3C582CCC582C583CDC583DA93
:10043000E6D0E0CA227009080808226016181818C9
:10044000C6C333C608C633C608C633C608C633C6D5
:10045000D5E0EA22C09FF59FE473D09F22D083D0DD
:1004600082C09FE493C0E0740193C0E0740293F5EE
:100470009F222518F58210AF08F518400215198043
:1004800008F51840021519D2AF85198322BB010265
:10049000E722C082C08389828A83BB0003E0800296
:1004A000E493D083D08222C0D0251810AF08F5186D
:1004B000500205198008F51850020519D2AFD0D0A6
:1004C00022BB000EC082C0838A838982F0D083D091
:1004D0008222BB0101F722251810AF08F51840024F
:1004E00015198008F51840021519D2AF227403803F
:1004F0000474028000C0E0F404120472D0E012051B
:100500007822C3E096F008A3E096F008A3E096F006
:1005100008A3E096F022700422600D18C6C333C60B
:1005200008C633C6D5E0F4182275D00075813F7532
:100530001800751903759F0002025FC3E09608A3B7
:10054000E09608A3E09608A3E09622600C08C6C3D4
:1005500013C618C613C6D5E0F422E0F608A3E0F6E9
:1005600008A3E0F608A3E0F622E6F008A3E6F00808
:10057000A3E6F008A3E6F022CAC0E0E6F0A308DA9A
:10058000FAD0E0FA22E0FAA3E0FBA3E0FCA3E0FD4E
:1005900022EAF0A3EBF0A3ECF0A3EDF0222518F58E
:1005A00082E43519F5832200000080FBE473120415
:1005B0005DABD30712045D49D40712045DDDD40797
:1005C00012045DF7D40712045DEDD50712045D45F2
:1005D000D80712045DE8D90712045DAFDA071204E8
:1005E0005DABDC0712045D92DD0712045DFFDD07E1
:1005F00012045D33DE0712045DAADE0712045DBD3E
:10060000E00712045DECE10712045DEEE10712045D
:100610005D2BE20712045D2DE20712045D2FE20755
:1006200012045D40E20712045D42E20712045D45D8
:10063000E20712045D24C10712045D77C1071204AA
:100640005D7CC10712045D43C20712045D4EC307FF
:1006500012045DA5C40712045DB2C40712045DFC58
:10066000C40712045D06C60712045D87C60712049C
:100670005DF8C60712045D78C70712045D97C707C7
:1006800012045DDCC70712045D12C80712045DC5C1
:10069000C80712045DFDC80712045D1CC9071204D7
:1006A0005D46CB0712045D7BCB0712045DA5CB072B
:1006B00012045DE4CB0712045DC6CC0712045DBBD7
:1006C000CD0712045DCDCD0712045DDFCD07120406
:1006D0005D25CE0712045DB7CF0712045D17D10761
:1006E00012045D4FD10712045DF9D10712045D5663
:1006F000D20712045DCCD20712045D0AD30712049C
:100700005D10070012045D62070012045DA8070077
:1007100074F41201F3740C12059DE0F8A3E0801547
:10072000A3AA82AB838C828D83A3AC82AD83E824A1
:10073000FF18E934FFF9E849601F8C828D83E0F5EA
:10074000088A828B83E0F50AE508650A60D2E50A2B
:10075000C39508FA95E0FB80047A007B007F0402D1
:10076000032B74F61201F3EAF8EBF9740A12059DF3
:10077000E0FEA3E0FF80188C828D83E0888289836D
:10078000F0A3A882A9838C828D83A3AC82AD838ED3
:10079000088F09E50824FF1EE50934FFFFE5084539
:1007A0000970D47F0202032BC082C0838518828522
:1007B0001983E0F8A3E0F9E84960128A828B83ECA0
:1007C000F0A3E824FF18E934FFF94870F2D083D091
:1007D0008202045AFFFFFFFFFFFFFFFFFFFFFFFF43
:1007E000FFFFFFFFFFFFFFFFFFFFFFFFFFFFFFFF19
:1007F000FFFFFFFFFFFFFFFFFFFFFFFFFFFFFFFF09
:020000040003F7
:10C00000240354004900200043004300320035005F
:10C0100033003100200055005300420020004D0045
:10C02000530044002403540065007800610073004D
:10C03000200049006E0073007400720075006D00EE
:10C0400065006E0074007300008002021F00000093
:10C0500047656E657269632055534220466C617373
:10C0600068204469736B2020302E303044454641AF
:10C07000554C5420434647200015095A473F473F37
:10C0800000008656473F020064000000FFFFFFFFEC
:10C09000FFFFFFFFFFFFFFFFFFFFFFFFFFFFFFFFB0
:10C0A000FFFFFFFFFFFFFFFFFFFFFFFF000000009C
:10C0B0000000000000000000000000000000000080
:10C0C00000000000000000000000000030313233AA
:10C0D000343536373839414243444546000000087C
:10C0E0000000000002000200FFFFFFFFFFFFFFFF54
:10C0F000000000000000020003000000000000003B
:10C1000043464700FFFFFFFF00000000040309044F
:10C11000FFFFFFFF55534253555342437D0000003C
:10C120000000017774F61201F375080475090078B0
:10C13000081204F17C9D7D147A9C7B06790112061D
:10C140006274021204A790149D12C748A3E8F0A3DA
:10C15000E9F090149D74FFF0A3F0750801780812BF
:10C1600004F17C9D7D147AA77B0312066874021289
:10C1700004A7790102C6F3790102045A74F6120188
:10C18000F374FC1204D7EAFEEBFF901500E0607F29
:10C1900075082075090078081204F1EE2408FCEFF8
:10C1A0003400FD7AA57B141206FE74021204A78BDC
:10C1B00009EA450960599014FDE0F87901701112FF
:10C1C0000656C2AF75C9AB75C95B80FEE9C333F9CA
:10C1D000E95860F8E069F090C104C0828518828552
:10C1E0001983AC82AD837583C1D0827404120414A8
:10C1F00012C48C1204F1740212059DAC82AD837AD4
:10C20000BF7B0312066874021204A77900802C9089
:10C210001500E4F0750858F50978081204F1EE24C9
:10C2200004FCEF3400FD7AA17B141207047402129F
:10C2300004A790149FE4F0A3F0790174041204A7FA
:10C2400002C6F374F41201F374FC1204D780079051
:10C25000149FE4F0A3F01205B4E9640190149D70FA
:10C260000302C32612C49E7003A3E06970E8901411
:10C270009DE0F47003A3E0F460DCE84960D890141A
:10C28000A312D14960D09014F5E0A2E04038A2E1B9
:10C290005004D2F08002C2F0A2F0E433FA75080133
:10C2A00075090090159DE0780812051690159512F5
:10C2B000C76FE055086004D2F08002C2F0EAA2E045
:10C2C00020F001B34089E595851882851983F065D2
:10C2D0009570F3E596C0E0740112059DD0E0F0E59D
:10C2E00097C0E0740212059DD0E0F0740312059D22
:10C2F000E4F0901589780812055A8518828519830B
:10C300007808120502740312059DE4F085188285F1
:10C310001983780812055A901591780812053B4048
:10C320000302C256801A12C49E7003A3E0697016FD
:10C3300090149DE0F47003A3E0F4600AE8496006FD
:10C340001205BA12065074041204A702C80D74F044
:10C350001201F374FC1204D775086475090078089B
:10C360001204F17C9D7D147A9C7B06790112066291
:10C3700074021204A775082078081204F17C8C7DE1
:10C38000C07AA57B141206FE74021204A78B09EA78
:10C3900045097005901500E4F090149D12C49E703C
:10C3A00003A3E069600302C46990149DE0F4700384
:10C3B000A3E0F4700302C469E849700302C4699001
:10C3C00014F9E0F8604E79018004E9C333F9E958C3
:10C3D00060F8E069F0700990149FE4F0A302C4686B
:10C3E00090C110C082851882851983AC82AD837597
:10C3F00083C1D082740412041412C48C1204F17428
:10C400000212059DAC82AD837ABE7B03120668746E
:10C41000021204A79014F5E0A2E0400612065CE9BF
:10C4200070479014A312C6E44509700512065080A7
:10C4300038E4F50AF50B740C780812043590C11C29
:10C44000780C12055A7808790C12018390159178AE
:10C4500008120569E595901589F0659570F6E596E1
:10C46000A3F0E597A3F0A3E4F0781075B60FE5B458
:10C47000A2E750FAE5BBC3944E40F018E870EC1206
:10C4800005AE74041204A77F0802032B8518828569
:10C490001983E069F075080175090078082212C750
:10C4A0004CA3E06822020820C2AF75C9AB75C95B16
:10C4B00080FEC082C0837802E97024740758FA7441
:10C4C00001BA00028004C333DAFCFCE813131354EE
:10C4D0001FFA74C52AF582741412C8C05C600EE895
:10C4E000C333906272F0906270E0D2E0F008E8C36B
:10C4F000947840C4906272740202C78874F6120184
:10C50000F39014F6E0F8131313541FF9740758FC52
:10C51000E970047AF3800B74016970047AF4800284
:10C520007AF57B70ECF87401B800028004C333D84C
:10C53000FCFDF4FE8A828B83E05EF0E970047AFDF4
:10C54000800B74016970047AFE80027AFF8A82E0AF
:10C550005EF0E970047A8F800B74016970047AF6DA
:10C5600080027AF79014F5E0A2E250257508017573
:10C5700009007405297808120516A808E0A2E3E866
:10C580005005F452F7800242F78A828B83E05E8086
:10C59000068A828B83E04DF0EC90159DF0E97007E0
:10C5A0009015957480800E740169901595700474CF
:10C5B00090800274A0F0A37470F09014F5E0C3139F
:10C5C000F8901595E0FAA3E0F5838A82E05D6004B7
:10C5D000D2F08002C2F0E8A2E020F001B3500B904C
:10C5E000149FE4F0A3F079018002790002C6F3748D
:10C5F00015F5D575D48112064A120644C2AF75C925
:10C60000AB75C95B80FE74F41201F38908740F5591
:10C6100008F50A750B00740B780A120516EA240057
:10C62000F8EB3480F9E82400E9350BF9E5C7F509A2
:10C63000A2AFE433F50AC2AFE508C4540FFAE5C768
:10C6400054F84AF5C7740C12059D12C73F801C8828
:10C65000828983E08C828D83F088828983A3A8827B
:10C66000A9838C828D83A3AC82AD83EAFEEBFFEEBF
:10C6700024FF1AEF34FFFBEE4F70D48509C7E50A9B
:10C68000A2E092AF02C80D74F61201F3ED9015818D
:10C69000F0ECA3F0A37462F0A37473F0A3E0541F52
:10C6A000F0740A12059D12C6E4333354FC901586CB
:10C6B000F07406780812054BE508901585F0901582
:10C6C000877412F0A37442F075D1FE75D601EA901A
:10C6D0006271F0EBA3F0906270E0D2E1F0E0A2E7CB
:10C6E00040FB800FE0F508A3E0F509E50822758B13
:10C6F00000C2E87F0202032BC082C083E9FCEAFD8E
:10C700007A007B00800312C75290030412C748903E
:10C71000032BE0687003A3E0696022900305E0F555
:10C72000838882A3E493F8EC68700B90030412C72B
:10C730003F12C7528007ED6870CCED60C98051E0B0
:10C74000FAA3E0FB2290031D12C74C22E0F8A3E0FD
:10C75000F92290030412C76FE493F8900304E028D1
:10C76000F8A3E03400F9900304E8F0A3E9F022E034
:10C77000F8A3E0F583888222C082C08312C7CD7AF5
:10C7800000790112066E8008F0906270E0D2E0F04D
:10C79000D083D08202045A74F61201F3E9FEEAFF54
:10C7A00012C7CD7A00790212066EEA4B601CEE6069
:10C7B000108A828B83A3A3A3A3A3E4936E70E48067
:10C7C00009EFF874FF281F0470D902C6F3900329FB
:10C7D00012C74C900304E8F0A3E9F02274F41201AC
:10C7E000F3EAFF8B087A0012067A7A0279041206BD
:10C7F0006EEA4B60188A828B83A3A3E4936F70EA7E
:10C800008A828B83A3A3A3E493650870DD7F04026F
:10C81000032B74F61201F374F81204D7E97A007B43
:10C8200000600C14600F14601214601502C8B17A15
:10C830000C7BC1807C7A247BC080767A007BC080B0
:10C8400070900373E07066851882851983AC82ADA1
:10C85000837583C07582E874081204147C28FD8DEA
:10C8600008851882851983E5822508F582E58312FB
:10C87000C8C0FF8C0874732508F874033400F9EFFE
:10C8800012C8B688828983F0EFC412C8B6C0E0E847
:10C8900024FEF582E934FFF583D0E0F00D74FC2C22
:10C8A000FCEDC3940840B8900373742AF07A737B4C
:10C8B00003740802C23D540FFA74CC2AF58274C086
:10C8C00012CDB6E022C082C0837A00790112067AC6
:10C8D0008A828B83A3A3A3A3A3A3A3E493A2E6903A
:10C8E0000319500474018001E4F0900318E4F090FF
:10C8F000620F7403F0E0A2E750FB02C790C082C051
:10C90000839003067402F0A3E4F090030DF0790322
:10C9100012069E75210075220002C79074F512015F
:10C92000F390620EE0FEE4F0906211E0FFA2E450AA
:10C930001D7480F090030D7407F0E5214522600915
:10C940008521828522831205AC90030DE4F0EFA2CD
:10C95000E2500B906211E4F090030DF0805E9003C2
:10C960000DE0F8740268703D906216E0FF90031AC3
:10C970001203E7EFF97A207B621206A47403120413
:10C98000A78F0890031D12CB1B12CB2612D1496032
:10C9900004744080027448906211F0E84960030218
:10C9A000CB1402CAF074066870098521828522833F
:10C9B0001205AC90030DE0600302CAA5EFA2E040AF
:10C9C0000302CB1475081F750903750A0078081255
:10C9D00004ED79087A207B621206A474031204A77E
:10C9E00075210075220090031FE054E0601D24E0D3
:10C9F000700302CA8124E0607224C0604824E070A1
:10CA00000302CA8C24E0606E02CA97A3E014602679
:10CA100024FE601D24FE600A24FC601F24FE6020AA
:10CA200080751206C890030DE06404707274608013
:10CA3000701206C280EF1206BC80EA1206E080E5A2
:10CA40001206EC80E0A3E0600E24FA600F24FE6082
:10CA50001024FE601180401206B080C91206CE80FC
:10CA6000C41206DA80BF1206E680BA75210E75225E
:10CA70000612060E80AF7521147522061206148068
:10CA8000A475210275220612060280997521087587
:10CA90002206120608808E90030D7404F0808E74B6
:10CAA00040906211F090030DE0F874016870577FB8
:10CAB0000212C745C3E89420E994005007E8F50A3C
:10CAC0007F0A8003750A2090031A1203E7A90A7AE5
:10CAD000207B621206AA74031204A7850A0812CBEF
:10CAE0002612CB1BEF906211F0E50AC3942050246C
:10CAF000E521452260098521828522831205AC90BB
:10CB0000030DE4F0800E740568700985218285228A
:10CB1000831205ACEE90620E02CB9FC3E09508F045
:10CB2000A3E09400F02290031AE0F9A3E0FAA3E056
:10CB3000FBE92508F9EA3400FA90031AE9F0A3EAC0
:10CB4000F0A3EBF0A32274F61201F37800880874C6
:10CB50000E2508F582740312CB7040F17800880826
:10CB600074132508F582740312CB7040F102C6F3EA
:10CB700012CDB6E9F008E8C394052274F51201F36A
:10CB8000EAFCEBFDE9F8740B12059D12CBD4600DA5
:10CB90008C828D83E01204C112CBC970F38001F046
:10CBA0007F0302032B74F51201F3EAFCEBFDE9F8B5
:10CBB000740B12059D12CBD4600D12048D8C828DE6
:10CBC00083F012CBC970F380D7E9240109EA34005D
:10CBD000FA18E822E0F508A3E0F509A3E0A908AAFD
:10CBE00009FBE82274F61201F312D146600302CC6D
:10CBF000BFA3E0F8A3E0600302CCBFA3E06402702F
:10CC000002A3E0600302CCBF90031FE02480600910
:10CC100014604F14605C02CCBFE8600302CCBF908C
:10CC20000319E06004780180027800900327E8F09F
:10CC3000A3E4F0900318E0600A900327E04402F0B8
:10CC4000A3E4F090030DE06404601490031A7427C9
:10CC5000F0A37403F0A3E4F0A3740212D24DF00227
:10CC6000C6F3900306E064047055900327E4F0A334
:10CC700080D0E8547FF508900306E064047040E536
:10CC800008C39406503974062508F582740312CD42
:10CC9000B6E854806018A3A3A3A3A3A3A3E06403EE
:10CCA0007004780180027800900327E88091E58283
:10CCB000240CF582E58312C8C0640370E980E39018
:10CCC000030D7404809874F61201F3E9FE900325B5
:10CCD00012D149600302CDAB900306E06404600BFF
:10CCE00090032312D149600302CDAB90031FE0549F
:10CCF0001F600914603014602002CDAB900321E066
:10CD000064017022EE900318F060047905800279C6
:10CD1000067A0012062602CDB1900323E0547FFA72
:10CD2000900321E06005790002CDB3EAC394065078
:10CD30007AEA90620EF08A0874062508F8740334C3
:10CD400000F9900323E05480602CEE60047410809E
:10CD5000027440906211F0EE600474038001E48874
:10CD6000828983A3A3A3A3A3A3A3F0EE60047908FD
:10CD700080307907802CEE600474208002748090EB
:10CD80006214F0EE600474038001E4C0E0E8240C57
:10CD9000F582E912CDB6D0E0F0EE6004790A8002A7
:10CDA000790912062690620EE4800590030D740442
:10CDB000F0790102C6F33400F58322C082C0837982
:10CDC000001206B6E9700312061A02C790C082C0AC
:10CDD0008379011206B6E9700312062002C790C0DB
:10CDE00082C08390032312D1497015A312D14970D8
:10CDF0000F90032112CFB25480FAE9FBEA4B60078F
:10CE000090030D7404801AE8906200F090030660AD
:10CE100009E06402700C74038007E064037003741B
:10CE200002F002C79074F21201F3900321E0FAA31A
:10CE3000E014600814601014603B805912067412EC
:10CE4000CF8FA37B808043790012067A12CF8F7B2D
:10CE500080E92402F9EA3400FA12048DFC1919E081
:10CE6000FAA3E92403F9EA3400FA12048DF9ECA3D9
:10CE7000F0A3E9801CEAF912068690031AEAF0A3EF
:10CE8000EBF0A3E412CF9EA37B0012048DA3F0A3CA
:10CE9000E4F002CF5090031AE4F0A3F0A3F0F50BF6
:10CEA00090032D12C73F02CF2B7509007403780839
:10CEB000120516EA2508F8EB3509F990032112CF7F
:10CEC000A8E493C0E0EFFCD0E06C705DA3E4936E47
:10CED000705790032312CFA8A3A3E493C0E0EFFC04
:10CEE000D0E06C704488828983A3A3A3E4936E701E
:10CEF0003888828983A3A3A3A3E493F508740193DC
:10CF0000F50990031AE508F0A3E509F0A37480F091
:10CF100088828983A3A3A3A3A3A3E493F8740193B2
:10CF2000F990031DE8F0A3E9F0050B850B089003C9
:10CF30002F12CFB2C39AF50CE99BF50D7403780C50
:10CF400012054BC3E508950CE4950D500302CEA9DC
:10CF500090031AE0FCA3E0FDA3E0FEEC4D4E90032D
:10CF60000D700474048022E06404601E9003251296
:10CF7000C73F12C745C3EA98EB99500890031DEAD2
:10CF8000F0A3EBF090030D7401F07F0602032B90E9
:10CF9000031AEAF0A3EBF0A3748012CF9E22F09064
:10CFA000031AE0F9A3E0FA22E0FEA3E0FF888289F9
:10CFB000832212C74CE82274ED1201F3EA2404F52F
:10CFC00008EB3400F509850882F583E49360259029
:10CFD000033112CFB2FEE98007EE2404FEEF3400E5
:10CFE000FF8E828F83E493F8740193F9EA687002EC
:10CFF000EB6970E5750C00803F9062147490F074DA
:10D000001012D10B7003750D408E828F83A3A3A3E2
:10D01000E49355106006E50DD2E0F50DE50D906244
:10D0200015F0EA906213F0EC240CF582ED12CDB607
:10D03000E4F090620EF0050C850882850983E49384
:10D04000F8E50CC398400302D1067A007905120670
:10D050006E8A0E8B0FEA450F60DCEA2402F8EB348F
:10D0600000F9880A890B8882F583E493540FF5123E
:10D0700090620EF0750D008A828B83A3A3A3A3E4B4
:10D08000932407F510A3E4933400F511740378108A
:10D0900012054BAA1085121074062510F87403347B
:10D0A00000F9E8FCE9FD751001751100E512781032
:10D0B000120516E50E2403F8EB3400F9850A828583
:10D0C0000B83E493A2E7400302CFF9906211744806
:10D0D000F0740812D10B7003750D408E828F83A3FC
:10D0E000A3E49355106006E50DD2E0F50DE50D9033
:10D0F0006212F0EA906210F08C828D83A3A3A3A346
:10D10000A3A3A302D0307F0B02032BF08882898374
:10D11000E4935403640122C082C08312D14670108C
:10D12000A312D149700AA3E064017002A3E0600772
:10D1300090030D7404800C90031A7407F0A3740319
:10D1400012D24302C78F90032112C74CE8492274C0
:10D15000F41201F3900306E06402601490032312BA
:10D16000D149700CA312D1497006900322E06008E7
:10D1700090030D7404F0807E7A00790112062690E7
:10D180000321E0FE605B7A00F912067A8A088B09B7
:10D19000EA450960449003067404F0EEA3F07E00B3
:10D1A000850882850983A3A3A3A3E493F8EEC3981B
:10D1B000503D8E0A7408250AF582740312CDB6E438
:10D1C000F07A00790412066E8A828B83A3A3A3E40B
:10D1D0009370EE1206D40E80C790030D7404F08095
:10D1E0000E900307F09003067403F0F912069E7A7E
:10D1F00000790212062602C80D74F51201F390039D
:10D2000006E06404701990031FE06481701112D16C
:10D2100046700C900325E064017002A3E060079063
:10D22000030D7404801A900323E02408F508A3E09A
:10D230003403F50990031AE508F0A3E50912D24377
:10D2400002CB9FF0A3E4F0A30412D24D22F0A3E49A
:10D25000F090030D042274F41201F3900306E064CD
:10D2600004706090031FE06401705890032512D190
:10D27000497050900323E0FE900321E0FBEEFA900A
:10D280000307E0F91206808A088B09EA4509603332
:10D29000EEFA7903120626900321E0C0E090032302
:10D2A000E02408F8A3E03403F988828983D0E0F011
:10D2B000AA08AB091206D4900323E0FA79041206F7
:10D2C00026800690030D7404F002C80D74F6120156
:10D2D000F37523007524007525008A268B27EA90B4
:10D2E000620BF08A088B097404780812054BE50874
:10D2F000906207F08A088B097409780812054BE5DB
:10D3000008543E906209F002C6EE74F61201F3E58D
:10D310009DA2E650FA906206E0FAA2E25035A826F5
:10D32000E890620BF0F50885270974047808120567
:10D330004BE508906207F08526088527097409786F
:10D340000812054BE508543E906209F0906201E036
:10D35000D2E0F07823EA46F6906202E0F50875091B
:10D3600000740478081205167823E50846F608E5E7
:10D370000946F6906204E0F508750900740978081A
:10D380001205167824E50946F6EAA2E05003752551
:10D390000174065A6003752500E58BA2E5500675F9
:10D3A0008BDF75250012062C02C6EE74F61201F30F
:10D3B00012DC9DF50895E0F509740278081205164F
:10D3C000E508240CF8E5093400F9901599E8F0A374
:10D3D000E9F0E8FCE9FD900355ECF0A3ED12E2253D
:10D3E000F0750804F50978081204F17C147DC17AFF
:10D3F000747B1512DC531204A775082078081204F8
:10D40000F112DC4B1204A7750800750901780812A7
:10D4100004F17C9D7D137A007B0790C122E0F91214
:10D42000066274021204A790149CE0F4700B780852
:10D430001204F112DD841204A71205E412068C7A9C
:10D44000FF7BFF1206F202DAA274F51201F38003E9
:10D450001206F8A2E840F990620E7404F0A823E8DE
:10D46000540460097823E654FBF6120692A823E8D8
:10D47000541060097823E654EFF61206989062146F
:10D48000E0A2E050031205F0906211E0A2E0403A01
:10D49000900301E0700D900300E06402702C7403AF
:10D4A000F0802F64027023E4F0750874750915F597
:10D4B0000A78081204ED790D7A287B621206AA74A4
:10D4C000031204A79062117401F0900300E064035A
:10D4D00070047901800279007F0302032BC082C0AF
:10D4E0008375AC00759A0012DD7B90620FE4F0E06A
:10D4F000A2E740FB02E23974F61201F375080475E5
:10D50000090078081204F17C457D157A787B1512A4
:10D51000DC531204A790C0FC12058590157C1205FF
:10D5200091901580E4F075081478081204F17C00DD
:10D530007D007A607B1512DD8C1204A7901560E0E7
:10D540005480F8A3E0F9E84470901560F0A3E9F086
:10D55000901569740AF090154912058590158D1281
:10D5600005911205C6E9F8901550E0642A7005127D
:10D5700005F680769003017402F01468600E901531
:10D580008D12058590157C120591805E901550E0F6
:10D590006428704A906211E0A2E040F812E06B1239
:10D5A000051612E053901512F0E9901511F075D69A
:10D5B00008E5D6A2E350FA75D70890159BE014F061
:10D5C000700512E09E602390159CE004F0642070CA
:10D5D000C3E4F090159EE004F01205D280B69015D9
:10D5E0008DE060069062117401F002DAAA74F512FF
:10D5F00001F374E71204D77F01901550E0604B24CB
:10D60000FD607024F1700302D6AA24F8700302D6DC
:10D61000F114700302D71E24FE700302D82F147079
:10D620000302D73024FB700302D73C24FE700302B0
:10D63000D79F24FD700302D7DC24FE700302D7DCE1
:10D64000248A700302D7E102D822900300E0600D23
:10D65000901580EFF090030004F002D82F900302A1
:10D66000E0700302D82F14F0600302D82F1205DEF9
:10D6700002D82F901549E0FAA3E0FBC3EA9415EB1A
:10D68000940040027A14750860750915750A0078CF
:10D69000081204EDEAF97A287B621206AA740312D2
:10D6A00004A7901560E0547F80AF901549E0F8A37F
:10D6B000E0F9C3E89425E994004017E824DCF8E990
:10D6C00034FFF9E8FAE9FB90157CEAF0A3EB12E2EB
:10D6D00025F07508487509C0750A0078081204ED30
:10D6E00079247A287B621206AA74031204A702D84E
:10D6F0002F740912059DAC82AD837583C07582F8C5
:10D700007404120414740912059DA982AA8389085D
:10D710008A09750A0078081204ED790480C490150E
:10D7200054E06402600302D82F900300EF02D65940
:10D73000A3E0700302D82F90158080F0740D1205BD
:10D740009DAC82AD837583C07582DC740C120414A9
:10D7500090159AE0C0E0741312059DD0E0F090158A
:10D7600099E0C0E0741412059DD0E012D839940DF0
:10D77000ED940040027C0C906215E0D2E7F09062DC
:10D7800012E0D2E7F0740D12059DA982AA838908E0
:10D790008A09750A0078081204EDECF902D6E2EF66
:10D7A00012059DAC82AD837583C07582F07408123A
:10D7B000041490159AE0C0E0740312059DD0E0F0C7
:10D7C000901599E0C0E0740412059DD0E012D8399C
:10D7D0009409ED940040027C08EF80AB1205FC80B8
:10D7E0004E901549E0FAA3E0FB851882851983ACB9
:10D7F00082AD837583C1758220EF120414C3EA944D
:10D8000002EB940040027A01851882851983AC826C
:10D81000AD838C088D09750A0078081204EDEA02C0
:10D82000D79B901580EF12E1D3742012E1CA1FEF4D
:10D83000F974191204A702D4D8F0901549E0FCA39A
:10D84000E0FDC3EC2274F61201F390159EE06480B3
:10D85000702F900D5B7480F0900D5F7401F0900D4F
:10D86000637404F0901599E0900D67F090159AE0BC
:10D87000900D68F0900D9B7455F0A374AAF002D936
:10D88000D0E06481600302D9D075083E7509007844
:10D89000081204F17C357D037A9D7B0B12DC531258
:10D8A00004A7900D9B7455F0A374AAF0A374F8F02C
:10D8B000A374FFF0A3F090153BE0900DA07021E45D
:10D8C000F0A3F0F50875090178081204F17C9D7D3C
:10D8D000137A9D7B1112DC531204A790129C80399D
:10D8E00074FFF0A3740FF075082078081204F17C1F
:10D8F000217D157A9D7B1112DC531204A775080057
:10D9000075090178081204F17C9D7D137ABD7B11A5
:10D9100012DC531204A79012BCE4F090149CE07047
:10D920000302D9B712DC942404FEE93400FF7A0420
:10D930007B007C047D0280227AFF7B0FEAC0E0122C
:10D94000D9D3D0E012D9DEEB540FC0E012D9D3D036
:10D95000E0F0EA24010AEB3400FBC3EE9AEF9B40AF
:10D9600056EE6A7002EF6B70047AFF7B0FECF8EDF5
:10D97000F9E824010CE93400FDEAC454F0F5087418
:10D980009D28F582740B39F583E04508F08A088BF1
:10D99000097404780812054B12D9D3E50812D9DEB0
:10D9A000EA24010AEB3400FBEE6A7002EF6B608838
:10D9B000C3EE9AEF9B50857508007509027808122E
:10D9C00004F17C9D7D0D7A9D7B0F12DC531204A720
:10D9D00002DAAA749D2CF582740B3DF58322F0ECDB
:10D9E00024010CED3400FD2274F61201F374FF12D1
:10D9F00004D790159EE0C39480503290149CE06050
:10DA00002C90159EE05407F87401B800028004C3FE
:10DA100033D8FCC0E0E0131313541FF874E528F565
:10DA200082741412E066D0E0F8E0586037851882FE
:10DA3000851983E4F0E58290151AF0851983E58352
:10DA4000901519F09015207412F075D610E5D6A235
:10DA5000E450FA75D71090159EE0C39480403E12B2
:10DA600005CC8039E5C7FA90151A12E08C1205161C
:10DA70002400E5093480901519F090152012E07902
:10DA800075D610E5D6A2E450FA75D710E5D6A2E413
:10DA900040FA8AC77A9D7B0BE0F9120638740102BE
:10DAA000DC4553F4FED29043FE017F0202032B7447
:10DAB000F61201F374FC1204D790159CE0C394197C
:10DAC000500302DC00851882851983AC82AD837512
:10DAD00083C175820874041204147EBD7F1180080E
:10DAE000EE2420FEEF3400FF750820750900780849
:10DAF0001204F17CAC7DC0EEFAEF12DC751204A7C3
:10DB00008B09EA450970D9EE24E0FEEF34FFFF757A
:10DB1000080375090078081204F17C007DC1EE2429
:10DB20000812DC6D1204A78B09EA45097508047513
:10DB30000900780870551204F1740212059D12DC78
:10DB4000661204A78B09EA4509900303700A74045E
:10DB5000F090153BE402DC3C740212E05F740212A8
:10DB6000DC7C7464F0EE241D12DC5CEE241E12DCFE
:10DB70005C12DC59750820F50978081204F1EEFCF6
:10DB8000EFFD12DC4F1204A702DC3D1204F1740217
:10DB900012059D12DC661204A78B09EA4509700B79
:10DBA0009003037403F090149C80A912DC94240168
:10DBB000F508E93400F50974037808120516900396
:10DBC000030412E05F740312DC7CE4F0EE241D1207
:10DBD000E063E508F0EE241E12E063E509F012DCD4
:10DBE00059F50875090178081204F17CBD7D117A98
:10DBF0009D7B1312DC531204A790149C7401803C8B
:10DC0000E0C394114037900FA0E0701B90153BE0EB
:10DC10006015E4F09003037404F090149CE0701D10
:10DC200079011206568016900FA1E054F0700E9004
:10DC3000149CE06008E4F09003037403F090030286
:10DC40007408F074041204A702DAAA7C6C7DC07A0E
:10DC5000217B15120704740222EE241FF582EF3493
:10DC600000F583E4F022AC82AD83EE241CFAEF349D
:10DC70000012DC7522FB1206FE740222F0EE241B59
:10DC8000F582EF3400F583E4F0EE241CF582EF34E6
:10DC900000F5832212DC9DF895E0F9E82290C1237B
:10DCA000E0F890C122E0FAE8C39A2274F61201F378
:10DCB00012DD7B900303E014600A24FE604E1460C2
:10DCC0007102DD6C901500E0600302DD6C1206321B
:10DCD000E9700302DD6C75084075090078081204CC
:10DCE000F17C9D7D1390C122E0F50874097808123B
:10DCF000051624C0FAE5093401FB12066874021205
:10DD000004A7C2AF75C9AB75C95B80FE901500E072
:10DD100070047900800890153BE0601679011206C6
:10DD20005675080075090178081204F112DD841295
:10DD300004A790149FE4F0A3F090149CE0702D9041
:10DD4000153BE0702775082075090078081204F16A
:10DD500012DC4B1204A775086478081204F17CFFEA
:10DD60007D007A9D7B1412DD8C1204A7900303E4DE
:10DD7000F07AD07B071205EA02DAA253F4FEC290D1
:10DD800043FE01227C007D007A9D7B1312070A74FA
:10DD90000222C082C0837415F5D375D2019015029A
:10DDA0007428F09015017462F090150512DDF3747B
:10DDB00012F090150C749DF0740390150BF09015F3
:10DDC0000D12E2237420F09015147428F0901513AE
:10DDD0007462F090151512DDF37442F090151C7406
:10DDE0009DF0740B90151BF090151D12E22374200A
:10DDF00002E238E4F0A37440F0A37420F0A322EB15
:10DE0000C313FBEA13FAEAF8EBF9E824FFFAE93462
:10DE1000FFFBE849601A000000000000000000005D
:10DE2000000000000000000000000000000080D69C
:10DE300002045A74F61201F3906216E0FA741F6A33
:10DE4000705578417915906228E088828983F0A323
:10DE5000A882A9831AEA70EE75080475090078088B
:10DE60001204F17C187DC17A417B1512DC76120414
:10DE7000A78B09EA4509702A90154EE07024901589
:10DE80004DE060046480701A90154FE014C3941044
:10DE900050101205C0800B9062147410F0E0A2E4E0
:10DEA00040FB906214E4F002DAAA74F61201F390D7
:10DEB0006214E4F0906214E0A2E0400302E03A123F
:10DEC000E06B12051612E053901504F0E99015036B
:10DED000F075D602E5D6A2E150FA75D70290621429
:10DEE000E4F090159BE014F0700B12E09E70069029
:10DEF00003017402F090159CE004F06420600812A5
:10DF0000E0B2600302E03A90159EE06481700C126A
:10DF100005D890159EE004F002E035900303E0641C
:10DF200002702F90159EE064826006E0C3948050DA
:10DF3000217A9D7B0B12063EE9600302E0357508ED
:10DF40002075090078081204F112DC4B1204A702B4
:10DF5000E03590159EE0C39480400302E0359015B3
:10DF600000E0600302E0357A9D7B0B90159EE0F99E
:10DF7000120638E9700512E04580FE750800750943
:10DF80000278081204F17C9D7D0B90159EE0F50847
:10DF900075090074097808120516FAAB09120668AB
:10DFA00074021204A7E5C7FA90150A12E08C120554
:10DFB000162400E5093480901509F090151012E040
:10DFC0007975D604E5D6A2E250FA75D704E5D6A253
:10DFD000E240FA8AC775090878081204F17C9D7D31
:10DFE000037A9D7B0B12DC761204A78B09EA4509A4
:10DFF000600512E04580FE12E0B2603990159EE0A7
:10E0000004F0C39478400512E04580FEE05407F820
:10E010007401B800028004C333D8FCC0E0E01313DD
:10E0200013541FF874D528F582741412E066D0E0FA
:10E03000F8E05860C790159CE4F012E0B26003026B
:10E04000DEB402DAAA7901120656C2AF75C9AB7501
:10E05000C95B22749D2508F8740B3509F9E822F094
:10E06000EE241AF582EF3400F5832290159CE0F53A
:10E070000875090074067808227452F090159EE025
:10E08000C4540FF8E5C754F848F5C722E4F09015DA
:10E090009EE0540FF508750900740B780822740887
:10E0A000F0901597E024FFF0F8A3E034FFF0F9E8D2
:10E0B0004922901597E0F8A3E0F9E8492274F61296
:10E0C00001F374FC1204D7901558E0FA901557E04C
:10E0D000F9EA901597F0A3E9F0901552E0C0E074CA
:10E0E0000312059DD0E0F0901553E0C0E0740212D9
:10E0F000059DD0E0F0901554E0C0E0740112059D3C
:10E10000D0E0F0901555E0851882851983F07402EF
:10E1100012059D12E0B57028851882851983E0F8F4
:10E12000A3E0F9901597E028FAA3E039FB90159940
:10E13000E0240CF8A3E03400F9C3EA98EB99401C02
:10E14000901580740112E1D37421F0A3E412E1CAA6
:10E1500090158D12058590157C12059190159B7474
:10E1600008F0851882851983E0FAA3E0FBC3EA94DE
:10E170000CEB94004008EA24F4FAEB34FFFB8A0825
:10E180008B097402780812054BA808E8333354FC55
:10E19000F9EAC39933333354F890159CF08518820B
:10E1A000851983C3E0940CA3E0940050047480802C
:10E1B0000490C122E028F8E890159EF0901550E0F8
:10E1C000642870031205D202DC43F0901560E0442D
:10E1D00080F022F0901563E054F0F8A3E0F9E844F1
:10E1E00005901563F0A3E9F090156E228041C0827E
:10E1F000C083900320E064FE702190030DE070174F
:10E2000090031A7421F0A374C112E22504F0A3E470
:10E21000F090030D0480096401600690030D7404FE
:10E22000F080167408F0A3E4F0A32280028000C0FE
:10E2300082C08390030D7404F0D083D08202045A0C
:10E2400080ED02045A02045AFFFFFFFFFFFFFFFFA9
:10E25000FFFFFFFFFFFFFFFFFFFFFFFFFFFFFFFFCE
:10E26000FFFFFFFFFFFFFFFFFFFFFFFFFFFFFFFFBE
:10E27000FFFFFFFFFFFFFFFFFFFFFFFFFFFFFFFFAE
:10E28000FFFFFFFFFFFFFFFFFFFFFFFFFFFFFFFF9E
:0400000500000529C9
:00000001FF
