:020000040000FA
:0600000002011D02206454
:03002B0002270F9A
:030053000220DAAE
:03006B000226DD8D
:10008300021F13E5C754F84401F5C77901220000A4
:100093000080FB120086B90003020107E47921788E
:1000A30008B800028004F709D8FCE479297802B87B
:1000B30000028004F709D8FCE490028178C579072F
:1000C3008002F0A3D8FCD9FA781A90014D7A01BACC
:1000D30000028007E493A3F608DAF9900945AA829F
:1000E300AB8390014E782C79048015E493A3AC8202
:1000F300AD838A828B83F0A3AA82AB838C828D83A8
:10010300D8E9D9E77582D475839D740312012F75DD
:100113008291758300740012012F75D00075813FA1
:10012300751881751902759F00020096C09FF59F8F
:10013300E473D09F22D083D082C09FE493C0E07445
:100143000193C0E0740293F59F2201FF0000B40005
:100153000028002800283075A000A000A000A000FF
:1001630000080008E001F00010001000100010006B
:100173001000100050005000500010001000D00775
:100183000000000000000F000100050030750700AB
:100193001000010081FF00000000FF770695067D37
:1001A30006FF02020208025000A0000000E803025A
:1001B3000690010000EF8F0202900100009C0902EB
:1001C300F68F010000B3020202900100009D0902B4
:1001D300F88F010000C9020202900100009E09028B
:1001E300FA8F010000CB020202900100009F090276
:1001F300FC8F080000CC02020290010000A009025B
:10020300FE8F010000A109FF0100FF2002069001FB
:100213000000E38F020290010000050A0200900033
:100223000000000002F48F0300001903A70CA70CC1
:10023300A70CA70CA70CA70CA70CA70CA70CA70C23
:10024300A70CA70CA70C830F9B0F7D0FFFFF0202C8
:1002530002020202020202010D0000001001020666
:1002630090010000EC8F020290010000480A022670
:10027300900100005D07020290010000490A021884
:1002830090010000138F0202900100004A0A021637
:1002930090010000F78E0202900100004B0A021445
:1002A30090010000A38E0202900100004C0A02128A
:1002B30090010000B58E0202900100004D0A021069
:1002C30090010000918E0202900100004E0A020E7E
:1002D300900100007F8E0202900100004F0A020C81
:1002E30090010000058F020290010000500A020AEB
:1002F30090010000510A01E803053F100AFF0001C5
:100303003075030201060000000000000000000039
:1003130000000000000000000000000000000000DA
:100323000000FFFF0600800CE803050953796E63A4
:10033300051250002003020A000201050302F0FF28
:1003430053696D706C6520424C452050657269702D
:10035300686572616CC1130000C7130A4368617258
:100363006163746572697374696320310002436861
:100373006172616374657269737469632032000822
:10038300436861726163746572697374696320336E
:1003930000104368617261637465726973746963A1
:1003A3002034000243686172616374657269737417
:1003B3006963203500020690010000E68F02029077
:1003C300010000550B021C900300002F0902F28F5D
:1003D300010000560B020290010000670B021E9001
:1003E300010000300902F28F010000680B02029045
:1003F300010000790B022090020000310902F28F04
:100403000100007A0B0202900100008B0B02229084
:10041300000000320902F48F030000330902F28F57
:100423000100008C0B0202900100009D0B0224903E
:10043300040000390902F28F0100009E0B104B6586
:1004430079205072657373205374617465000206DA
:1004530090010000E98F020290010000370C022C8A
:10046300900000003E0902F48F0300003F0902F2EE
:100473008F010000380C120138138F031201382A40
:100483008F031201385B8F03120138968F03120119
:1004930038C08F03120138EA8F0312013801900329
:1004A3001201381890031201382F900312013858A3
:1004B30090031201386B90031201388190031201EB
:1004C30038949003120138BB90031201380198024B
:1004D3001201380599021201383D99021201386060
:1004E30099021201386B99021201388E9902120196
:1004F300389D9A02120138729B02120138ED9B0259
:10050300120138759C02120138B09C02120138E7BF
:100513009C02120138759D021201384E9E0212018F
:1005230038AE9E02120138B99E02120138389F027A
:100533001201383B9F021201383E9F02120138CD4F
:100543009F02120138D09F0212013800A00212014B
:10055300382AA00212013818A102120138CAA102D6
:10056300120138CDDB02120138F5DB021201382308
:10057300DC021201385ADC02120138B8DC02120123
:100583003803DD021201384EDD021201388EDD021E
:10059300120138D4DD0212013802DE02120138BF23
:1005A300DE02120138C9DE02120138D6DE02120160
:1005B3003809DF02120138D5DF02120138E1DF0208
:1005C300120138F9DF0212013803E0021201388206
:1005D3009B03120138909B03120138A89B0312015D
:1005E30038C09B0312013827B001120138D3B00180
:1005F3001201384EB1011201386FB201120138AB4A
:10060300B20112013854B3011201383BB401120193
:10061300389FB501120138F6B50112013877B601DA
:1006230012013867B701120138B4B7011201383A21
:10063300B8011201386CB80112013880BA011201F5
:1006430038C2BA01120138E0BA0112013863BB01A2
:1006530012013837BC01120138FFBC011201383ACC
:10066300C5021201380DC602120138B6C6021201C4
:100673003809C702120138B9C70212013845C80246
:1006830012013831C90212013860C90212013873EC
:10069300CA02120138BBCA0212013890CB021201FE
:1006A30038CCCB02120138E8CB02120138F19C039B
:1006B30012013804F7021201381AF7021201384006
:1006C300F7021201385CF80212013866F8021201CF
:1006D300389BF90212013893FA02120138E3D1026E
:1006E30012013813D30212013846D3021201389093
:1006F300D30212013857D50212013838A001120172
:1007030038A2A00112013801A20112013811A2017D
:100713001201383EA20112013895A2011201383E9E
:10072300A30112013845A4011201380FA5011201DA
:10073300386FA601120138B2A60112013857A7017A
:10074300120138A4A701120138CAA701120138D82F
:10075300A901120138DDA901120138E2AB0112012E
:10076300382FAC01120138A2AC01120138D5AC010B
:1007730012013877AD0112013820AE011201385849
:10078300AE011201385BAE01120138A3AE011201B2
:1007930038E3AE011201383AAF01120138F982038E
:1007A3001201381183031201385983031201386F80
:1007B3008303120138B68303120138CA840312017A
:1007C30038578503120138A285031201383C2700EC
:1007D300120138482700120138832700120138C854
:1007E30027001201388828001201380E290012014F
:1007F300387329001201389F2900120138D82900C3
:10080300120138162C00120138FA2D00120138E0BB
:100813002F00120138233100120138713300120105
:1008230038833400120138CE3500120138DE360029
:10083300120138FB360012013836370012013858DE
:100843003700120138BB37001201387C3C0012011B
:1008530038113D00120138623D00120138893D0014
:10086300120138DB3D00120138F93D001201385303
:100873003E001201383C3F00120138B24000120121
:100883003836410012013843E5021201384DE502C2
:1008930012013890E502120138ABE5021201383B30
:1008A300E60212013863E602120138A0E6021201E1
:1008B30038D7E60212013800E70212013875E70261
:1008C3001201388AE7021201389FE702120138D079
:1008D300E702120138E4E70212013809E8021201C3
:1008E3003843E8021201386FE802120138A7E80220
:1008F30012013826E9021201386FE9021201389910
:10090300E902120138C4E902120138989603120170
:10091300380080021201382E80021201387C8102D5
:100923001201385C82021201387B8202120138F80C
:1009330082021201383B83021201389184021201B0
:1009430038528502120138D987021201387A880297
:100953001201387089021201386D8A02120138C7F8
:100963008B02120138528C021201381494031201C3
:10097300387D9403120138D19403120138F894039B
:1009830012013829950312013886EE02120138F359
:10099300EE021201383AEF0212013852F00212014C
:1009A300384EF10212013831F202120138E9F60130
:1009B3001201382BF701120138FDF701120138D665
:1009C300F801120138D0F901120138B2FA0112010B
:1009D300381BFB01120138D1FB0112013845FC0120
:1009E300120138B1FC01120138DAFC01120138544A
:1009F300FD01120138EDFD0112013852FE01120111
:100A03003867FE01120138ADFE01120138C6FE013E
:100A13001201382BFF011201382EFF011201380099
:100A23008003120138288003120138668003120103
:100A3300382481031201388B8103120138A7810303
:100A4300120138CF8103120138FF81031201380EDE
:100A530082031201388B8203120138B1820312011F
:100A630038319001120138CF9101120138EA930114
:100A730012013826940112013853940112013838B7
:100A830095011201387F9501120138C395011201B6
:100A930038D5950112013815960112013842960195
:100AA3001201388D9601120138CD9601120138FBDF
:100AB30096011201384D9701120138DD9701120199
:100AC300387B9A01120138919C01120138CF9C01A5
:100AD300120138609E01120138A59E011201381CD3
:100AE3009F01120138669F01120138919F01120183
:100AF3003805AC0212013884AC0212013846B20246
:100B030012013855B302120138BDB4021201385430
:100B1300B5021201383357001201387C5700120115
:100B230038A95700120138DC5700120138E9570081
:100B3300120138F55700120138075800120138EE38
:100B430058001201384C5900120138815900120122
:100B530038C45A00120138115B00120138355B00AA
:100B6300120138A25B00120138605C0012013819CF
:100B73005D00120138865D00120138385E001201F3
:100B830038485E00120138CF5E001201388E5F00D4
:100B9300120138BB5F001201383460001201389132
:100BA3006000120138DB600012013871610012012C
:100BB300383C6200120138F16200120138666300AA
:100BC300120138C763001201383164001201386A18
:100BD30064001201380C65001201381C6600120112
:100BE300385C660012013879660012013898660095
:100BF300120138DF66001201380467001201383130
:100C03006700120138AB6700120138EC670012016C
:100C130038106900120138C06900120138176A00E0
:100C2300120138816A001201389A6A001201383BB6
:100C3300A2021201388EA2021201389AA2021201F4
:100C4300386FA30212013896A302120138D1A3020E
:100C53001201383DA40212013879A402120138B2FC
:100C6300A402120138CAA4021201381FA5021201FC
:100C73003838A50212013881A50212013894A50261
:100C8300120138AEA502120138C4A502120138F7C9
:100C9300A6021201383EA80212013840A90212012D
:100CA300383AAA02120138F37F00120138B2E9017F
:100CB300120138E2E901120138AAED0112013801EB
:100CC300EF01120138CAEF011201384AF101120192
:100CD300381BF20112013858F2011201387BF2017C
:100CE300120138B9F201120138C2F2011201380CB3
:100CF300F30112013816F301120138C0F301120196
:100D03003899F401120138EDF4011201384FF5015D
:100D1300120138A2F501120138D1F5011201380E82
:100D2300F601120138CC6A00120138336E00120149
:100D330038396E00120138BB730012013834780061
:100D43001201380A7C00120138597C00120138CF95
:100D53007C00120138E57C00120138267D00120167
:100D630038607D00120138D97D00120138147E00ED
:100D7300120138877E00120138C57E00120138CE79
:100D83007E00120138DA7E00120138F67E0012016D
:100D930038217F00120138377F00120138607F004D
:100DA300120138C37F001201380AD7021201381D1D
:100DB300D70212013837D70212013860D702120165
:100DC30038A3D702120138E2D70212013820D80221
:100DD30012013885D8021201389AD802120138A5B7
:100DE300D802120138B2D802120138C9D80212014E
:100DF30038D7D802120138E2D802120138EED802ED
:100E030012013801D9021201380CD9021201382F0C
:100E1300D902120138D6D902120138E6D9021201D9
:100E23003800DA021201381DDA0212013839DA0207
:100E33001201385EDA0212013869DA021201387ED1
:100E4300DA0212013892DA02120138F3DA021201DD
:100E530038F9DA02120138FFDA0212013805DB022F
:100E63001201381DDB0212013850DB0212013889EE
:100E7300CD011201380DCE01120138BCCE01120191
:100E8300381BD0011201383CD20112013828D3019A
:100E93001201385DD3011201387FD3011201382EBC
:100EA300D40112013826D6011201384FD60112019E
:100EB30038E1D60112013813D70112013820D701C6
:100EC30012013877D7011201389DD7011201380A70
:100ED300DA011201380DDB0112013865DB01120161
:100EE3003818BF0112013822C00112013809C101AB
:100EF30012013813C10112013835C1011201384101
:100F0300C101120138DAC20112013809C301120109
:100F13003825C4011201387EC401120138E4C50129
:100F2300120138C3C6011201381FC7011201388CE0
:100F3300C701120138C7C70112013806C8011201DF
:100F430038BFCA01120138D9CA0112013865CB0171
:100F530012013873CB01120138CCCB01120138DAFC
:100F6300CB011201384DCC01120138B1CC01120171
:100F730038FBCC01120138D38C02120138F58C02F4
:100F83001201381B8F0212013830920212013848C5
:100F93009302120138FB9302120138DD940212010D
:100FA30038CD9003120138F2900312013864910393
:100FB300120138C0BD02120138C9BD02120138D274
:100FC300BD02120138A9BE021201385AC002120131
:100FD3003890C002120138CAC00212013800C1029F
:100FE3001201383AC1021201386EC1021201389A55
:100FF300C102120138E3C1021201381DC2021201FB
:101003003866C202120138BEC202120138F3C202AC
:101013001201384EC30212013888C302120138D9B3
:10102300C3021201380FC40212013849C40212016B
:101033003877C4021201389AC40212013852FF01F0
:101043001201387EFF01120138D9FF01120138E382
:10105300FF01120138F3FF011201385DCC021201C6
:101063003867CC02120138A5CC02120138EECC024B
:1010730012013828CD0212013882CD02120138A3A1
:10108300CD02120138ACCD02120138F9CD021201A2
:101093003822CE021201382CCE0212013898CE0229
:1010A3001201382ACF0212013874CF02120138AA72
:1010B300CF0212013836D00212013877D002120162
:1010C30038AED002120138C0D002120138DFD0028C
:1010D300120138E8D002120138B5D102120138AC3E
:1010E3009903120138228D03120138588D0312011E
:1010F300388E8D03120138D98E03120138599C039F
:101103001201386F9C03120138799C03120138C312
:101113009C03120138759D03120138ECE902120198
:101123003801EA02120138B1EA02120138F1EA0287
:101133001201380AEB0212013845EB021201389210
:10114300EB02120138C4EB0212013806EC02120161
:101153003807EE0212013879EE02120138B598030E
:10116300120138DE98031201380D99031201382554
:101173009903120138679903120138CC85031201D0
:1011830038F185031201381B86031201382C9E03A4
:101193001201389D4100120138024400120138A3A4
:1011A3004500120138574600120138EA4600120181
:1011B300386F4700120138944700120138EA4A0099
:1011C300120138704B00120138A34C00120138DDB4
:1011D3004C00120138124D00120138D24E00120198
:1011E300382F4F00120138784F00120138E34F00B7
:1011F3001201385450001201388650001201389EF3
:101203005000120138E75100120138F75100120162
:10121300381253001201383453001201386A530054
:101223001201381E5500120138AB5500120138EA7D
:1012330055001201380E5700120138159F03120191
:1012430038829E03120138C19E03120138269F0380
:10125300120138A39A03120138B39A03120138C852
:101263009A031201387C9B03120138B197031201D0
:10127300383698031201389C98031201386F95038E
:10128300120138969503120138EC9503120138FECA
:1012930095031201384E96031201388C96031201FE
:1012A300388F9603120138F3F2021201380AF3025F
:1012B30012013884F30212013868F4021201383F34
:1012C300F602120138A4F602120138F1F6021201F5
:1012D30038F87F00120138DD8A03120138788C0355
:1012E300120138D98C031201381F8D031201387291
:1012F3009203120138C492031201384E9303120170
:1013030038B59303120138988803120138C2880351
:101313001201389089031201386B8A031201387E57
:10132300B50212013845B6021201387CB602120129
:1013330038A6B60212013806B7021201385CB702AA
:10134300120138C1B70212013859B80212013868C4
:10135300B902120138FFBA021201388CBB02120122
:1013630038F3BB021201380ABC0212013824BD0251
:1013730012013862BD02120138B3DB0112013834A5
:10138300DF01120138BCE00112013813E10112013F
:101393003832E101120138B0E10112013846E301AC
:1013A3001201382BE40112013839E8011201380F18
:1013B300E9011201388AE0021201383EE302120108
:1013C3003864E4021201380EE5021201389DFA0274
:1013D300120138E2FA02120138FFFA02120138B59B
:1013E300FB0212013808FC02120138DEFC02120172
:1013F30038F8FD0212013831FE0212013876FE027E
:10140300120138CAFE021201384DFF02120138C51B
:10141300FF02120138CB9E03120138F79E03E066E8
:10142300701008A3E066700A08A3E066700408A3BE
:10143300E06622C3E7960809E7960809E7960809D4
:10144300E79622C3E09608A3E09608A3E09608A3D4
:10145300E09622C008C3E096F50808A3E096420888
:1014630008A3E096420808A3E09645087001D3D08C
:101473000822080808EAC0E0EBC0E086F0E7A4FA17
:10148300180986F0E7A42AFA180986F0E7A42AFACD
:10149300180986F0E7A42AFA1986F0E7A4FBE5F019
:1014A3002AFA190886F0E7A42BFBE5F03AFA1908A3
:1014B30086F0E7A42BFBE5F03AFA18180986F0E763
:1014C300A4C5F02BFBE43AFA1908E7C5F0C6A42635
:1014D300F6E5F03BFBE43AFA1886F0E7A4F6E5F00C
:1014E3000826F6E43B08F6E43A08F6D0E0FBD0E041
:1014F300FA22E4CFC0E0E4CEC0E0E4CDC0E0E4CC27
:10150300C0E075F020C3E633F608E633F608E633A9
:10151300F608E633F6181818EC33FCED33FDEE331A
:10152300FEEF33FFC3EC9709ED9709EE9709EF97A9
:10153300191919400FFFEC97FC09ED97FD09EE9778
:10154300FE191906D5F0BEECF709EDF709EEF70918
:10155300EFF7191919D0E0FCD0E0FDD0E0FED0E0A0
:10156300FF226016080808C6C313C618C613C61898
:10157300C613C618C613C6D5E0EA227009080808C0
:10158300226016181818C6C333C608C633C608C661
:1015930033C608C633C6D5E0EA22E627F60809E6CD
:1015A30037F60809E637F60809E637F622E026F6A5
:1015B30008A3E036F608A3E036F608A3E036F622E1
:1015C300E026F008A3E036F008A3E036F008A3E035
:1015D30036F022C3E697F60809E697F60809E69778
:1015E300F60809E697F622C3E096F008A3E096F022
:1015F30008A3E096F008A3E096F022E056F608A3CD
:10160300E056F608A3E056F608A3E056F622E056A5
:10161300F008A3E056F008A3E056F008A3E056F064
:1016230022E0F608A3E0F608A3E0F608A3E0F6221A
:10163300E6F008A3E6F008A3E6F008A3E6F022E04C
:10164300FAA3E0FBA3E0FCA3E0FD22EAF0A3EBF0A6
:10165300A3ECF0A3EDF022CAC0E0E6F0A308DAFAA7
:10166300D0E0FA22CAC0E0E0A3C582CCC582C5831C
:10167300CDC583F0A3C582CCC582C583CDC583DA2E
:10168300E6D0E0CA22C3E498F8E499F91216C980B7
:1016930026C3E49AFAE49BFBE920E7E91216C9E4BE
:1016A30098F8E499F922C3E498F8E499F91216C971
:1016B300E498F8E499F9C3E49AFAE49BFB22EB205B
:1016C300E7CFE920E7E0B90010BB0008E88AF0841F
:1016D300F8AAF022E4FBC8FA22EB70227B10C8338D
:1016E300C8C933C9335007C39AC3DBF280069A5083
:1016F300012ADBEAC833F4C8C933F4C9FA2275F006
:1017030008E4C833C8C933C933C99AC99B5004C94B
:101713002AC93BD5F0ECFBC833F4C8E4C9FA22600C
:101723000D08C6A2E713C618C613C6D5E0F3226098
:101733000C08C6C313C618C613C6D5E0F42270043A
:1017430022600D18C6C333C608C633C6D5E0F418E5
:1017530022251810AF08F518400215198008F5184E
:1017630040021519D2AF22C0D0251810AF08F518C2
:10177300500205198008F51850020519D2AFD0D0D0
:10178300222518F58210AF08F518400215198008B4
:10179300F51840021519D2AF851983222518F58251
:1017A300E43519F58322E4732518C582C0E0E519F1
:1017B30034FFC583C0E0E518C3958224F810AF0851
:1017C3008583198582188008858319858218D2AF8D
:1017D300CEF0A3E520F0A37808E608F0A3DEFAEF45
:1017E300F0A3E58124FAF8E608F0A3E608F0A3E6FF
:1017F30008F0A30808E608F0A3E608F0A31581158E
:1018030081D0E0FED0E0F8158115811581E8C0E0B4
:10181300EEC0E0222518C582C0E0E51934FFC58378
:10182300C0E0E518C3958224F910AF0885831985B4
:1018330082188008858319858218D2AFCEF0A3E57C
:1018430020F0A37808E608F0A3DEFAEFF0A3E58121
:1018530024FBF8E608F0A3E608F0A30808E608F07E
:10186300A3E608F0A315811581D0E0FED0E0F815BA
:10187300811581E8C0E0EEC0E022851983851882D6
:10188300E0A3FEE0A3F5207808E0A3F608DFFAE082
:10189300A3FFE0A3C0E0E0A3C0E0E0A3C0E0E0A3B7
:1018A300C0E0E0A3C0E010AF0885821885831980EB
:1018B30008858218858319D2AFD083D0820201357F
:1018C300851983851882E0A3FEE0A3F5207808E05C
:1018D300A3F608DFFAE0A3FFE0A3C0E0E0A3C0E0C3
:1018E300E0A3C0E0E0A3C0E010AF088582188583C1
:1018F300198008858218858319D2AFD083D08222BC
:10190300C0D02518C582C0E0E51934FFC583C0E007
:10191300E518C3958224F310AF08858319858218CF
:101923008008858319858218D2AFC8F0A3E9F0A394
:10193300EAF0A3EBF0A37908E709F0A3D8FAECF0F7
:10194300A3EDF0A3EEF0A3EFF0A3D0E0F0A3D0E07B
:10195300F0A3D0E0F0A3E520F0A3E5F0F0A3228507
:101963001983851882E0C0E0A3E0F9A3E0FAA3E0BD
:10197300FBA37808E0F608A3DFFAE0FCA3E0FDA3ED
:10198300E0FEA3E0FFA3E0C0E0A3E0C0E0A3E0F536
:10199300D0A3E0F520A3E0A3F5F010AF08858319E9
:1019A3008582188008858319858218D2AFD082D0AA
:1019B30083D0E0F8D0E032740480067402800274AD
:1019C30001C0E0F404121784D0E012165A22740402
:1019D300800474028000CCC0E0EDC0E0E518C39C35
:1019E300CCAD1950011D10AF068C188D1980068CD3
:1019F300188D19D2AF121667D0E0FDD0E0FC22D0CB
:101A030083D082E9C0E0E493A3C386F0C5F095F0E8
:101A1300F908E493A386F0C5F095F0700BE493A363
:101A2300C3994005E9048002A3E475F002A425826A
:101A3300F582E5F03583F583D0E0F9E493A3C0E0C4
:101A4300E493C0E022D083D082ECC0E0EDC0E0E4B8
:101A530093A3FCE493A3FDED4C600D121A94EC24C4
:101A6300FFFCED34FFFD80EFE493A3FCE493A3FDBF
:101A7300ED4C600D121AD3EC24FFFCED34FFFD8016
:101A8300EFD0E0FDD0E0FCE493A3C0E0E493C0E03A
:101A930022C0E0C3E49396087401939618400FE4C0
:101AA3009366700808740193661870007019A3A3F5
:101AB300C3E49396087401939618A3A3400DD0E052
:101AC300D0E0D0E0021A84A3A3A3A3A3A3D0E0226F
:101AD300C0E0C0F088F0E493667008087401936670
:101AE300187000A8F0A3A3700BD0F0D0E0D0E0D022
:0B1AF300E0021A84A3A3D0F0D0E02290
:101B000074F5121817EAFEEBFFEE2434F8EF3400F8
:101B1000F988088909EE2435121C2CF8EE243712B6
:101B20001C2CF50AEC850AF0A4FCAAF0850AF0ED5D
:101B3000A42AFDE82CF8E43DF97A257B001216C9A9
:101B4000EA850882850983F074075AF87401B800A1
:101B5000028004C333D8FCFBEA131313541FF8EEBE
:101B600028F8EF3400F9E8245DF582E9121C2F5BB8
:101B70006003EA801CEE2436121C2CF5F0EA84A8DF
:101B8000F0EE28F8EF3400F9E82438F582E9121C69
:101B90002FF97F040218C374F5121817EAFEEBFF41
:101BA000EE2434121C2CC0E0EE2435F582EF340014
:101BB000F583D0E0F08E828F83A3A3A3A3A3E0FAE2
:101BC000A3E0FB8E828F83A3A3A3A3A3A3A3E0FC24
:101BD000A3E0FDECC39AF50AED9BF50BEE247FF52F
:101BE00008EF3400F509850882F583E06401702B65
:101BF000EE2480F582EF3400F5831219D5121C35DE
:101C0000740212176AE960137CDC7D04EEFAEFFBC4
:101C1000120BCF850882850983E4F0AC0AAD0BEE88
:101C2000FAEFFB121B001226C9021B92F582EF3459
:101C300000F583E022C082C083851882851983E085
:101C4000F8A3E0F9C3EA9CEB9D5010C3EC98ED9922
:101C5000401BC3EA98EB995014800EC3EA98EB99A5
:101C60004007C3EC98ED994004790180027900D0D7
:101C700083D08222EAC39CFAEB9DFB2274ED1218FA
:101C8000179003A2E064086005E06407702C90617F
:101C9000C8E060269003D0E0F874FF68601CE87527
:101CA000F003A4C8AAF02AF974D228FE740339FFFD
:101CB0008E828F83A3A3A3E070057900021E1CEE21
:101CC0002468F510EF3400F511906060E085108213
:101CD000851183F0750A45750B05750800750900B7
:101CE000E5D914F50EE5D95403F50F601CEE2482F6
:101CF000F50CEF3400F50D7403650F6058E50E60C8
:101D000013EE2467121C2C700B793DEEFAEFFB12D8
:101D10000BF380A6900540E064016026850C828567
:101D20000D83E06004780480027800850E08E508E1
:101D3000C398FA95E0FB120A738A088B09EA4509F1
:101D40007006120E51021CBA850C82850D83E0705C
:101D5000048A0A8B0B78008016E5D9C0E08812E56A
:101D60000A2512F582E50B3400F583D0E0F008E88F
:101D7000C3950E40E4850C82850D83E0602874FCD9
:101D8000250EF50E780A1219BEAC0EA90FEEFAEF69
:101D9000FB120CA1740212176AE9700AAA08AB09B7
:101DA0001212F5021D097403650F6058850E0C753B
:101DB0000D00780C1219BEAC0AAD0BAA08AB0912C3
:101DC0000C65740212176A851082851183E0F8741D
:101DD00080687005750C7F8002880CE50CF50A7828
:101DE0000A1219C2E50FF50A780A1219C2A90EAC37
:101DF00008AD099003D0E0FA7B0012090B740212BF
:101E0000176A80139003A2E06408600BAC0AAD0B64
:101E1000EEFAEFFB120D37120E5D79017F0C0218FE
:101E2000C374F312181774FC121754EAFEEBFF89FF
:101E300008A2AFE433F509C2AFEE2463F50AEF342C
:101E400000F50B8010AA0AAB0B120C1D1212F590B4
:101E500004E3E004F0850A82850B83E0F8A3E0F94F
:101E6000E849602FE82402FAE93400FBEA2402F58D
:101E70000CEB3400F50D780C1219BE8A828B83E0CE
:101E8000FCA3E0F9EEFAEFFB120C11740212176AD0
:101E9000E960B29004E3E060579004E4E0F8900455
:101EA000E3E0C398500C7402650870449004E5E0C8
:101EB000603E8E828F83A3A3A3A3E0851882851939
:101EC00083121F00740212179FE8121F009004E291
:101ED000E028F0740212179FAC82AD8385188285CA
:101EE0001983AA82AB8379011209179004E3E4F005
:101EF000E509A2E092AF740412176A7F060218C3C4
:101F0000F0A3E4F09004E3E0F82200008521878547
:101F100022C622C0E074EF121903A2AFE433FEC25E
:101F2000AF759B00906182E0A2E05012E591A2E0C3
:101F3000500C7591FE740165217003121C7CE0A2A7
:101F4000E55051E591A2E5504B7591DF9003A2E079
:101F500064076005E06408702374016521703579B9
:101F6000019003D0E0FA75F003A4CAA8F028FB742E
:101F7000D22AFA74033BFB121E218018E0640D7014
:101F8000139003C4E004F064287002E4F07A00E0E7
:101F9000F9120E63906182E0A2E6400302203AE566
:101FA00091A2E6400302203A7591BF9003A2E0643B
:101FB000057008120D79120D858003120D7F7521B1
:101FC00000120DF1E99003A3F07900120DE5120B58
:101FD000397A017B009003A1E0F91210B5907803E3
:101FE000E064427055900544E014F0704DC2AF12A9
:101FF0001FF200782AD0E0F618D0E0F6E59F5407EB
:1020000070057509FF800375097FC4C0E07829E673
:10201000F50808E65509F509740B7808121732D04F
:10202000E02508F8906270E0A2E740F8E8C333903A
:102030006272F0906270E0D2E0F0906181E0A2E321
:102040005009E5E9A2E3500375E9F7A3E0A2E750E0
:1020500009E591A2E7500375917FEEA2E092AF7F70
:1020600004021962C0E0C0D0C082C083906183E0E6
:10207000A2E05009E5BFA2E0500375BFFEE0A2E177
:102080005009E5BFA2E1500375BFFDE0A2E250098F
:10209000E5BFA2E2500375BFFBE0A2E35009E5BF34
:1020A000A2E3500375BFF7E0A2E45009E5BFA2E444
:1020B000500375BFEFE0A2E55009E5BFA2E550036C
:1020C00075BFDFE0A2E65009E5BFA2E6500375BF89
:1020D000BFD083D082D0D0D0E032C0E074F21219E9
:1020E00003E5A7A2E4500FE5A1A2E4500953A7EF2E
:1020F00075A1EF12212EE5A7A2E5500CE5A1A2E5FE
:10210000500653A7DF75A1DFE5A7A2E15009E5A1BD
:10211000A2E1500375A1FDE5A7A2E2500CE5A1A242
:10212000E2500653A7FB75A1FB7F0102196274F808
:102130001218177521019003A2E0640670077A0057
:102140007B00120D61A2AFE433FED2AF9003A8E092
:10215000640170187A207B009003A1E0F912113F0E
:102160007A207B009003A1E0F91210BB906182E01D
:10217000D2E6F0900541E0602185C62280169003EA
:10218000A7E064017008E5C654F84405F5C653BEDF
:10219000FC121F0C7401652160E4EEA2E092AF7F97
:1021A000010218C38E238F248582288583278518F2
:1021B00082851983E0CEA3E0CF852882852783EB33
:1021C000C9EAC8EDCBECCA75F010C3E833C8E933EF
:1021D000C9EA33CAEB33CBC3EA9EF526EB9FF5255C
:1021E000B35004AB25AA26EC33CCED33CDD5F0DAD1
:1021F000AE23AF242274E912181774FA121754EAA6
:10220000FEEBFF8C088D099003A2E024F7C3940530
:102210005006751001022320120CD78A0A8B0BEA94
:10222000450B700302231D120D978A0C8B0D120DA6
:1022300097EA650C7003EB650D60ECEEFCEFFD8535
:102240001882851983AA82AB83120D9D850A828527
:102250000B83A3A3780C121624908FC3780C12154D
:10226000FE8518828519837814121624908FC378FE
:10227000141215FE780C7914121436501F780C794C
:10228000141215D6908F63780C1214564047850CA3
:1022900010850D11850E12850F138045908F638573
:1022A00014108515118516128517137810790C12E4
:1022B00015D67810121456501C7510007511007543
:1022C0001200751301781079141215D67810790C54
:1022D00012159D800C751001751100751200751393
:1022E000007409781012157E908F8B780C121624CA
:1022F0007810790C1214F59003A2E06408600AE0EB
:1023000064066005E064057020908F6778101214F1
:10231000565016908F6B78101215B0800C75100007
:102320007511007512007513008508828509837880
:1023300010121633740612176A7F100218C374F74E
:10234000121817120DAF90053FE0640170109062F3
:1023500045E4F0A3F053F4F343FE0C5390F3120D55
:102360004FE5C654804449F5C6E59E547F644970E4
:10237000F8906185740FF090053DE0F47002A3E0E1
:10238000602C75080175090090053DE0780812176A
:1023900041E508F4FAA3E0600814600A14600C80B8
:1023A0000DEA52808008EA52908003EA52A0790038
:1023B0007F020218C374F7121817E9FEEAFF7401CE
:1023C0006E700C7A807B009003A1E0F91210B5903A
:1023D0002734E493F46008E493F9120B1B8009534B
:1023E000C680E59E547F70FA120D5590053FE0645B
:1023F000017003120B5190053DE0F47002A3E06000
:102400002A75080175090090053DE078081217410A
:10241000AA08A3E0600814600A14600C800DEA4268
:10242000808008EA42908003EA42A0120CD78A0812
:102430008B09A808A909E8496017E5E170FCE824C0
:1024400014F582E93400F583E0F874FF68600288CF
:10245000E174016F700A7A019003A1E0F912110989
:102460000223B074F11218178A088B098C0A8D0B9D
:10247000908FC378081215FE740F12179F780C12F4
:102480001624908FC3780C1215FE7808790C12145C
:1024900036908F6350107808790C1215D678081290
:1024A00014564014800E780C79081215D6780C1248
:1024B000145650047901800279007F080218C37411
:1024C000ED1218178A088B098C0A8D0B908FC37830
:1024D000081215FE741312179F780C121624908F91
:1024E000C3780C1215FE780C790812143640117856
:1024F00008790C1215D6AA08AB09AC0AAD0B8022DC
:102500007510007511007512007513017810790CA3
:102510001215D67810790812159DAA10AB11AC12BD
:10252000AD137F0C0218C3908FC378081216248A4B
:10253000828B8378081216117F040218C374F51277
:1025400018178C828D8378081216248A828B8378E0
:10255000081215EA122591C3E098F0A3E09912251C
:1025600083401E908F9F78081216248A828B83786E
:10257000081215C38E828F83E02420F0A3E0344E2E
:10258000F080A4F08E828F83C3E09420A3E0944E69
:1025900022EA2404F8EB3400F9E8FEE9FF8C828D8E
:1025A00083A3A3A3A3E0F8A3E0F98E828F83227410
:1025B000F5121817E9FE9004F7E0FAA3E0FBEEC36A
:1025C00033F8E433F974E728F582748E39F583E043
:1025D0002AF508A3E03BF50978081219BE908FCFC1
:1025E0001216421221A4740212176A8A088B098CEF
:1025F0000A8D0B74107808121565AA08AB097F04C0
:102600000218C374F11218178A0C8B0D8C0E8D0FE3
:10261000740F12179FE0FAA3E0FB741112179FE0EA
:10262000F508A3E0F50978081219BEEA2401F508B7
:10263000EB3400F509E4F50AF50B780C790812146F
:1026400075908F777808121624780C790812147513
:10265000AA0CAB0DAC0EAD0F1221A4740212176AB6
:102660008B09EA450960047A0180027A00EC2AFCB1
:10267000ED3400FD741312179FE0F8A3E0F9E8FEB3
:10268000E9FFECF8EDF97A717B021216C988088926
:1026900009E4F50AF50B8E828F837808121633EC65
:1026A000F8EDF97A717B021216C98A088B09740554
:1026B00078081217418E828F83A3A3A3A3E508F0A5
:1026C000A3E509F07F080218C3C082C083E99060C7
:1026D00000F0D083D08222C2AF02000022C0E0749A
:1026E000F2121903A2AFE433FED2AFE589A2E040B3
:1026F00006E589A2E15003121295758900758900DB
:10270000C2C5751A00EEA2E092AF7F01021962C045
:10271000E0C0D0E8C0E0E9C0E0E5A8D2AFC2C7752C
:102720001A00A2E7A2E792AFD0E0F9D0E0F8D0D04B
:03273000D0E032C4
:10273400FFFFFFFFFFFFFFFFC082C083E9900A0491
:10274400F00229CB74F71217ABE99002E1F07C197F
:102754007D037AFF7BFF12085D9002E274FFF0A311
:10276400F0A3E4F0A3F079051207E59002E1E0F9A3
:102774001207077A7B7B08120A257F0102187D74F1
:10278400F41217AB8A088B09EB548060309002E195
:10279400E0F912109D8A0A8B0BAE0AAF0BEE4F6064
:1027A400138E828F83E064B070031207FDEEFAEF9C
:1027B400FB12108BAA08E5096480FB80047A007B75
:1027C4000002299A74F21217AB74FC121754EAFE31
:1027D400EBFFEE4F6038740212179FEEF0A3EF1276
:1027E4002BFFECF0A3ED122BFFAA82AB831207019F
:1027F400E9F5087073741212179F1237B3E50A458E
:102804000B60658E828F83122876EE4F70057508F3
:102814000280557A067B001210F18A0C8B0DA80CED
:10282400A90DE8497005750813803D88828983E401
:10283400122880A3A3EEF0A3EF123C4CE50AF0A308
:10284400E50BF09002E71229089002E76017E0FC1C
:10285400A3E08003EAFCEBFD8C828D8312290870CF
:10286400F38C828D831236D8A908740412176A0275
:102874003E4EA3A3A3A3E0FEA3E0FF22F0A3F088AF
:102884008289832274F21217AB890AE975F017A4BE
:10289400FEAFF09002E6E4F09002E4122908600A28
:1028A4001210F79002E4E4F0A3F0EEFAEFFB12103A
:1028B400F18A088B09EA4509602FEEFCEFFD7900E7
:1028C4001210799002E4E508F0A3E509F07B00809A
:1028D400081228F2E4F0A3F00BEBC3950A40F2E5EA
:1028E4000A9002E6F0790080027913023E4EEB75FD
:1028F400F017A4F8A9F09002E4E028FAA3E0398ADA
:1029040082F5832212346EEA4B2274F41217AB75EB
:102914000800750900740C12179F123C20FEE9FF91
:10292400800CE5082401F508E5093400F509C3E540
:10293400089CE5099D503285080A85090B740378C3
:102944000A121741EA250AF8EB350BF988828983C4
:10295400A3A3A3A3A3A31237B3EE650A7003EF6581
:102964000B70BFE8FAE9FB80047A007B00802774CF
:10297400F41217AB7900EAA2E0501B75084C7509F4
:102984008F78081219BE7C047D007A067B0A120730
:10299400DF740212176A7F0402187DC082C083901C
:1029A40002E71229D2601C88828983A3A3E06A709B
:1029B40003A3E06B8882898370E8A3A3A3A31234E2
:1029C4006A80047A007B00D083D082020135123FF2
:1029D40021E8492274EE1217AB74FC121754EAFE74
:1029E400EBFF851882851983E4F0A3F0EE2402122C
:1029F40036BCEE2405122BEDEE2404F50EEF122F57
:102A0400D2E024FE603924FC604624FE605224FE99
:102A1400605E24FE7003022AF224FE7003022B6A15
:102A240024FE7003022B7924FE7003022B8824FCFD
:102A34007003022B9724FE7003022BA6022BE39053
:102A440003007417F0A3E4122C0712047F022BE393
:102A5400851882851983AC82AD83120803022BB3D7
:102A6400851882851983AC82AD83120809022BB3C1
:102A7400850C08850D09740212179FAC82AD8385FD
:102A8400088285098312346A1207258A0C8B0DACDF
:102A94000CAD0DEC4D6042E4F50CF50D780C1219FB
:102AA400BE750C00750D03780C1219BE750C0175FA
:102AB4000D03780C1219BE740812179F1219D579D8
:102AC40016123464120845740812176AE9F50C707A
:102AD4000B123460120497800F750C0185088285EF
:102AE4000983122BF51236D8850C08022BB6740212
:102AF40012179FAC82AD83850C82850D8312346AD4
:102B04001207258A108B11AC10AD11EC4D60438572
:102B14000C82850D83A3A31219D5751000751103BA
:102B240078101219BE75100175110378101219BEB0
:102B3400740812179F1219D57916123464120845B5
:102B4400740812176AE9F509700B12346012049DB7
:102B5400800F750901850C82850D83122BF51236C1
:102B6400D8850908804C851882851983AC82AD8389
:102B740012080F803A851882851983AC82AD8312BE
:102B84000815802B851882851983AC82AD831208C1
:102B94001B801C851882851983AC82AD83120821A1
:102BA400800D851882851983AC82AD83120827E9CC
:102BB400F508E50860298E828F83A3E06414601F02
:102BC400850E82850F83E0900300122BFF123F1DB8
:102BD4009003011236D8E508A3122C07120479EEEB
:102BE400FAEFFB1207A30235C4F50CEF3400F50D20
:102BF40022123F2185188285198322F08518828547
:102C0400198322F07C007D03850A82850B831234AC
:102C14006E2274EE1217AB74FC1217548A0A8B0BD3
:102C24008C0E8D0FEA2405F508EB3400F5097C15AC
:102C34007D0079007A007B03121079E5082402F5FF
:102C44000CE509122BF0851882851983858210857D
:102C5400831178101219BE850882850983A3A3A362
:102C6400A312311A1219BEE5082405F510E509343A
:102C740000F51178101219BE850C82850D8312346B
:102C84007412071F740612176A8A108B11AE10AFE4
:102C940011E50A2402F50AE50B1236BFEE4F700364
:102CA400022DDC8017740212179F12346A888289FD
:102CB40083EAF0A3EBF0900300E004F0900300E05B
:102CC400C394054003022DDCE4F510F511781012CD
:102CD40019BE7510E975110278101219BE7510EA43
:102CE40075110278101219BE740612179F1219D5A5
:102CF4007910EEFCEFFD12346412084574081217C3
:102D04006AE9705E850882850983A3A3A3A3A3A3AC
:102D1400A3E0F89002E9E068704812311A1219BE73
:102D24007CEA7D02E5082408FAE5093400FB121068
:102D340073740212176AE960298E828F83A3A3A396
:102D4400A312346A900300E0F5107402781012178D
:102D54004174012510F58274033511F583EAF0A35B
:102D6400EBF0740212179F8582108583117810127C
:102D740019BE740212179F1219D5850C82850D8312
:102D8400123F3212072B740412176A8A108B11AE89
:102D940010AF11900300E0F5107511007402781063
:102DA40012174174002510F874033511F9888289CB
:102DB40083A31229087003022CA0E82403F8E93441
:102DC40000F9EE4F6003022CA98882898374FFF016
:102DD400A3F0900300E004F0900300E0600A1234D2
:102DE4006012048B7900800B850882850983123672
:102DF400CF790A0235C474EA1217AB74FE12175461
:102E04008C128D13EA2405F50CEB12409C12287ADF
:102E1400750800750900EA2402F510EB3400F51179
:102E240085188285198385820A85830B780A12198D
:102E3400BE850C82850D83A3A3A3A3122FDC1219D4
:102E4400BEE50C2405F50AE50D1236BF780A121901
:102E5400BE850C82850D83123F3012071F74061243
:102E6400176A8A0A8B0BEA450B7003022F8DEA243A
:102E740004F50EEB122FD212287A8A828B83A3A335
:102E8400A3E0F985108285118312346A12070DE9D3
:102E9400F5096003022F8DE4F514F5157814121961
:102EA400BE7514E975150278141219BE7514EA7505
:102EB400150278141219BE740612179F1219D579C7
:102EC40013AC0AAD0B85108285118312346A120883
:102ED40045740812176AE9F5096003022F8D900200
:102EE400E9E0F8E5087009E02402900301F0801796
:102EF400900301E0FCE82402FAE43400FBEA6C707D
:102F040001EB6003022F91850882AA821231119489
:102F1400141231095073850E82850F83E0C0E0746A
:102F2400022A122FC9D0E0F00508850E82850F838E
:102F3400A3E0C0E085080A7402250A122FC9D0E074
:102F4400F005089002E9122FDC1219BE7CEA7D021A
:102F540085080A7402250AFA74033400FB1210610E
:102F6400740212176A9002E9E02508F50874FF6EEE
:102F7400700374FF6F6012EE24010EEF3400FFE55E
:102F840008C394145003022E24E508601312335529
:102F940085108285118312346A1204917900801499
:102FA400E509700375090A851282851383EEF0A37F
:102FB400EFF0A909740212176A7F0E02187D8508C2
:102FC4000C7402250CF58274033400F5832234005A
:102FD400F50F850E82F58322123C5F2274EE1217E0
:102FE400AB74FE1217548C0E8D0FEA2405F50CEB0E
:102FF400122BF0750B00900300E4F0F50AEA2402AA
:10300400F508EB3400F5098049900300E0FA9002DA
:10301400E9E0F81231119417123109400D900300C0
:10302400E0F87416C3989002E9F012311A1219BE2E
:103034007CEA7D0274012AFA74033400FB121061E5
:10304400740212176A9002E9E0F8900300E028F095
:10305400050AE50C2416F582E50D122FCDE0F8E5FE
:103064000AC39840030230F2900300E0C394165060
:103074007DE50AC333F8E433F9E50C28FEE50D39A0
:10308400FF851882851983AC82AD838E828F83126B
:10309400346A1207258A108B11AC10AD11EC4D70F7
:1030A40005750B018043E4F510F51178101219BE73
:1030B4007510E975110278101219BE7510EA7511B0
:1030C4000278101219BE740612179F1219D57916B8
:1030D40085088285098312346A1208457408121718
:1030E4006AE9F50B700302300D1236CB80107C00B8
:1030F4007D0385088285098312346A1204A3A90B0F
:1031040074020235C6E99400C365D03322EA28F874
:10311400E43400F9E822E0F5107511007810227407
:10312400EA1217AB74FC1217548A0C8B0D8C128D97
:1031340013EA2405F50AEB1236BF75080075090079
:10314400E50A2402F510E50B3400F5117402121798
:103154009F85820E85830F780E1219BE850A82859B
:103164000B83A3A3A3A3123C0B1219BEE50A2405E7
:10317400F50EE50B3400F50F780E1219BE8510829A
:103184008511831236C512346412071F7406121790
:103194006A8A0E8B0FAE0EAF0FE50C2402F50EE516
:1031A4000D3400F50F80408882898374FFF0050890
:1031B400122FC274FFF005089002E9E0F50C750DBA
:1031C40000780C1219BE7CEA7D0285080C74022575
:1031D4000CFA74033400FB121061740212176A9023
:1031E40002E9E02508F508EE4F60718E828F83A313
:1031F400A3A3E0F9850E82850F8312346A12070DAA
:10320400E9F509EE2404122BEDE97044E4F514F514
:103214001578141219BE7514E9751502781412196B
:10322400BE7514EA75150278141219BE74081217C3
:103234009F1219D57911EEFCEFFD850E82850F835F
:1032440012346A120845740812176AE9F5096027EE
:10325400850C82850D8312334B1236D8E508700332
:10326400023331123355850E82850F8312346A126C
:1032740004A97900023346850882AA82EA9002E909
:103284007009E02404900301F08022E0F890030127
:10329400E0F514E82404FCE43400FDEC651470014A
:1032A400ED70C0123111941212310950B6850C829E
:1032B400850D83E0C0E074022A122FC9D0E0F00526
:1032C40008850C82850D83A3E0C0E0122FC2D0E0F4
:1032D40012336785820C85830D780C1219BE740431
:1032E40012179F1219D5851082851183123F32124D
:1032F400072B740412176A8A0C8B0DAE0CAF0D8564
:10330400080C7402250CF874033400F9EE4F7003B2
:103314000231AB851882851983E088828983123350
:1033240067A3E0C0E0122FC2D0E00231B9E5097012
:103334000375090A850A82850B8312334B1236D82A
:10334400A9097404022FBA123F21851282851383BE
:1033540022900301E0F5F0E50884900300F07C007E
:103364007D0322F005088518828519832274EC12E6
:1033740017AB74FE1217548A088B098C0E8D0FEA52
:103384002405FEEB3400FF851882851983AC82ADD9
:10339400838E828F8312346A1207258A0A8B0BEE7E
:1033A4002418122BEDEA450B700302343B1235ADA1
:1033B400503285188285198312346A1208398A10AA
:1033C4008B11EA4511606B7912AC0AAD0B8508824A
:1033D40085098312346A8510828511831217A9E93D
:1033E400F50A7058E4F50AF50B780A1219BE8E82B4
:1033F4008F83A3A3E0F50A780A1219BEEE24031200
:1034040036BC780A1219BE8E828F83123474120865
:103414004B740612176AE9F50A7021850C82850D32
:1034240083E0701F85088285098312346A1204AF11
:103434008011750A0E8009750A018004E50A60038B
:103444001236CB850C82850D83E0600479008002FE
:10345400A90A740212176A7F0C02187D7C007D038E
:10346400850A82850B8312346E22E0FAA3E0FB22E4
:10347400E0FCA3E0FD85088285098312346E227482
:10348400EE1217AB74FE1217548A088B098C0C8D3C
:103494000DEA2405FEEB3400FF750E0085188285C5
:1034A4001983AC82AD838E828F8312346A1207250E
:1034B4008A0A8B0BEA450B70030235991235AD501D
:1034C4003585188285198312346A1208398A0E8B5D
:1034D4000FEA450F605E7912AC0AAD0B8508828550
:1034E400098312346A850E82850F831217A9E9F5C0
:1034F4000E600302359C8508828509831237B3AABE
:103504000AFB12082D8A108B11A810A911E8497022
:103514001E7AFF7BFF12082D8A108B11A810A911A7
:10352400E849606C88828983E50AF0A3E50BF075AD
:103534000A008007750E0E805F050A9002E6E0FA25
:10354400E50AC39A504AE50A75F017A4FAABF08865
:10355400828983A3A3E02AFAA3E03BFB8A828B83BC
:103564001236C5EC4D70D2750A17750B00780A1225
:1035740019BEEEFCEFFD121061740212176AEEFC24
:10358400EFFD85088285098312346A1204B580141C
:10359400750E098003750E01123F19850C82850D85
:1035A400831236D8A90E023104E5082402F508E591
:1035B400093400F5098A828B83A3A3A3E0A2E52240
:1035C400740412176A7F0A02187D74EC1217AB8C0C
:1035D400108D11EA2405F50CEB122BF0750F00EA9F
:1035E4002402F50AEB1236BF850A82F58312346A87
:1035F40012082D8A088B09EA450970030236B17551
:103604000E008071850C82850D83E06401704F8EFD
:10361400828F83A3A31219D58E828F83A3A3A3A31E
:10362400E0F51275130078121219BEEE2405F51296
:10363400EF3400F51378121219BE12346412084BD9
:10364400740612176AE9F50F6014850C82850D83E0
:10365400E4F0123F198510828511831236D87C1745
:103664007D007900EEFAEFFB1210798E828F83E4ED
:10367400F0A3F0050E9002E6E0F8E50EC398501EA4
:10368400E50E75F017A4F8A9F0850882850983A3CF
:10369400A31240A61236C5EC4D6003023608850815
:1036A4008285098374FFF0A3F0E50F700612346479
:1036B4001204BBA90F02345BF50AEF3400F50B22A8
:1036C400A3E0FCA3E0FD228E828F83123F21850EAE
:1036D40082850F83E8F0A3E9F022C082C0839002C0
:1036E400E2E06A7003A3E06B70067AE27B02800476
:1036F4007A007B000229CBC082C08378008C828D43
:1037040083E06A7003A3E06B7010E875F003A4F81B
:10371400A9F0EC28FAED39FB8015088C828D83A37F
:10372400A3A3E06A7003A3E06B60DF7A007B00026E
:1037340029CB74F61217AB1207F78A828B83E582C2
:10374400458370067A007B008007A3A3A3A31234E9
:103754006A023DCA74F21217ABE9FE740E12179F87
:103764001237B3741012179F123C2B8C828D83E096
:1037740064027036A3123F27F50CA3E0F9A80C7479
:10378400026870037429697021750C02750D007844
:103794000C1219BE78081219BE780A1219BEEEF975
:1037A40012086F740612176A80027901023E4EE015
:1037B400F50AA3E0F50B2274E81217AB74FB121799
:1037C40054E9851882851983F08A168B17ECFEED6F
:1037D400FF751000741D12179F123F1D741D1217E0
:1037E4009F1236D88E828F83A3A3A3E0A2E4502D28
:1037F400741D12179F12346A1208398A828B83E56A
:103804008245837003023BFC790AEEFCEFFDAA16A5
:10381400AB171217A9E9F5106003023BFF741F12DE
:10382400179F123C2B742112179F1237B374231263
:10383400179FE0F50EA3E0F50F8E828F83E06402FC
:103844006003023BAAA3123F1D850882850983A356
:10385400858212858313EE2406122BED88828983D8
:10386400E0FAA3E0F9EA2400F514E439F515781434
:10387400121A480100002801289F38070002286412
:10388400390328D13800299B3A0129C63A0229670D
:103894003A03299B3A0429453BAA3BE50E450F60B0
:1038A40003023BA5850C82850D83123C20FAE9FBBB
:1038B4008A828B83E0850A82850B83123C56121917
:1038C400BE8A828B83A3E0FCA3E0023B2FE50E4576
:1038D4000F6003023BA5850A82850B837401F012F5
:1038E4003C33850882850983F07C007D008E828FBD
:1038F40083A3A3A3A3E02401FAA3E03400FB1207EB
:1039040025EA4B60418A828B83E02402F8850A828F
:10391400850B83E028F0EA2404F8EB3400F988826C
:103924008983E0851282851383123C68123C561207
:1039340019BE8A828B831236C4E5082403FAE5098A
:103944003400FB023B34850A82850B83E02404F0B7
:103954007C047D007900AA12AB13121079023BFF9C
:10396400E50E450F6003023BA5123C33FEA3E0FFC6
:10397400850A82850B837404F0EE850882850983A9
:10398400F0EF851282851383F0740312179FAC82C3
:10399400AD83EEFAEFFB1207258A0C8B0DEA450D79
:1039A4007003023A488A828B83A3A3122876740197
:1039B40012179F85820E85830F780E1219BE740527
:1039C40012179F1219D57CFF7DFF12072B74041266
:1039D400176A8B0FEA450F7033850C82850D8312AD
:1039E4003C0B1219BE850C82850D83A31219D57C5C
:1039F400027D007A047B90120557740412176AE959
:103A0400700A740112179F74FFF0A3F08E828F83E3
:103A1400E064027039750C02750D00780C1219BE41
:103A24008E828F831236C4E5082404FAE509340033
:103A3400FB121061740212176A850A82850B83E0F7
:103A440024028009740112179FEEF0A3EFF07401B1
:103A540012179F123C1CF0740112179FA3123C14FE
:103A6400023B9FE50E450F6003023BA5850C828552
:103A74000D831236C5AA16AB17120863850A828510
:103A84000B837402F0EA850882850983F08512822B
:103A9400851383EB023BA2E50E450F6003023BA5B1
:103AA400123C33F8A3E0F9850A82850B837402F093
:103AB400E8850882850983F0E985128285138302EB
:103AC4003BA2850C82850D8312346A12105BEAFCDA
:103AD4008C82A882C3950EE4950F405FE8650E7052
:103AE40002E50F70047C008022851882851983E02A
:103AF400FAE50E2AFAE50F3400FBC3EA98EB9400CA
:103B04005003E08005E50ECCC39CFCEC850A82855D
:103B14000B83F08C0A750B00780A1219BE850C828F
:103B2400850D83E0250EFCA3E0350FFDAA08AB0943
:103B3400121061740212176A023BFF751007023BF0
:103B4400FFE50E450F705A850C82850D83123F1DCB
:103B5400850A82850B837407122882123C1412286A
:103B640082A3E0851282851383F0E82402FAE93403
:103B740000FB8A828B83123C14123C43123C1CA32C
:103B8400123C4C123C25F0E82405F8E93400F9888D
:103B9400828983123C25A3123C68A3A3A3A3F080CB
:103BA4005A75100B8055741D12179F12346A120730
:103BB400F78A828B83E5824583603D123F1D880C22
:103BC400890DE8450D6031780E1219BE780A121974
:103BD400BE78081219BE740612179FE0F9EEFCEFC6
:103BE400FDAA16AB17850C82850D831217A97406DE
:103BF40012176AE9F510800375100EA910740512E6
:103C0400176A7F1002187DE0F50E750F00780E22FA
:103C1400E085088285098322123C7222123F21E842
:103C240022123C72A3A322E0F508A3E0F509228541
:103C34000C82850D83E0F8A3E0F5838882E022A35B
:103C4400A3F08A828B83A322F088828983A3A3A30F
:103C5400A322F08A828B83123C5F22E0F50A750B63
:103C640000780A22F088828983A3123C7222E085BC
:103C74000882850983A3A32274EE1217AB74FE1283
:103C840017548A0A8B0BECFAEDFB741412179FE09D
:103C9400F510A3E0F511741612179FE0FE741812C4
:103CA400179FE0F50EA3E0F50F851882851983AC04
:103CB40082AD831207258A0C8B0DEA450D60498578
:103CC400188285198312346A1207F78A828B83E576
:103CD400824583602FA3A3123C2BE5084509602489
:103CE400780E1219BE78101219BEEEF9AC0CAD0D97
:103CF400AA0AAB0B8508828509831217A9740412DA
:103D0400176A8006790E8002790102310474F61272
:103D140017AB74FE121754740C12179F123C2085B3
:103D24001882851983F0740112179FE9F0E4F508ED
:103D3400F50978081219BE75080278081219BE74BC
:103D44000412179F85820885830978081219BE1208
:103D5400084B740612176A740212176A806874F7A3
:103D64001217ABEAFEEBFF89087C197D0312086386
:103D7400EA5402600BA908EEFAEFFB12071980025D
:103D8400790102277E74F61217AB74FF6A7003740C
:103D9400FF6B70168C828D83123DCFE4F08C828D84
:103DA40083A3A3A3123DCFA380181208338A088BE0
:103DB40009A808A909E849600D8882898374FF125B
:103DC4002880A3A3E4F07F0202187D74FFF0A3F01F
:103DD4008C828D83A3A32274F61217AB1208338A44
:103DE400828B83E58245836006A3A3E0FA80027A8E
:103DF400007B0080D174F21217AB8A088B09ECFEA9
:103E0400EDFF740E12179FE0F50A1208338A0C8B2B
:103E14000DA80CA90DE8497026EEFCEFFD7AFF7B96
:103E2400FF1208338A0C8B0DA80CA90DE849700405
:103E34007911801688828983E508F0A3E509F08862
:103E4400828983A3A3E50AF079007F0602187D74B2
:103E5400EE1217ABEAFEEBFF8C088D09890C741483
:103E640012179F123F1D741612179F12346A750D94
:103E740000E8496003023F117402650C6003023FCD
:103E84000C741212179F123F27FCA3E0F9EC2400D4
:103E9400F50EE439F50FEAF4F8EBF4F9EC58F8E52B
:103EA4000F59F9E849705CE5082406F8ED3400F987
:103EB400880A890B8882F583123F321208638A10BC
:103EC4008B11E50E65107004E50F65116042780EE4
:103ED4001219BE850A82850B83123F321208697457
:103EE4000212176AE9F50D7027780E1219BE8508BB
:103EF40082850983A3A3123F30120881740212172A
:103F04006A800D750D808008750D0D8003750D0B8D
:103F1400A90D0235C98E828F83123F2122E0F8A3B6
:103F2400E0F922123F2188828983E022A3A3E0FCE6
:103F3400A3E0FDEEFAEFFB2274E81217AB74E7126C
:103F44001754851882851983EAF0A3EBF08C168D3B
:103F540017890E750800750900743112179FE0F572
:103F640012A3E0F513743312179FE0F514A3E0F5E0
:103F740015743512179FE0F50FE50975F003A4F8E1
:103F8400A9F08518828519831240A6E0F47003A372
:103F9400E0F47003024089EE2402F50CEF12409C19
:103FA400E0700302408985160A85170B780A1219F6
:103FB400BEAC14AD15AA12AB131207EB74021217A0
:103FC4006A8A0A8B0BEA450B7003024089E4F510F8
:103FD400F51178101219BE740612179F8582108588
:103FE400831178101219BE740912179F85821085E7
:103FF400831178101219BE851282851383A3A3A39B
:10400400A31219D57914AC0AAD0B8E828F831234A6
:104014006A120845740812176AE97069850A82856C
:104024000B83A3A3A3A3123F1D740212179F12367E
:10403400D8850C82850D83E0A2E05018A90E740285
:1040440012179FAC82AD838E828F8312346A12075B
:104054003DE94208850C82850D83E0A2E15026E506
:104064000FF50A780A1219C2A90E740312179FAC2D
:1040740082AD838E828F8312346A120737740112E1
:10408400176AE942080509E509C394025003023F8F
:104094007DA9087419023C033400F50D850C82F5E2
:1040A4008322E028FEA3E039FF8E828F832274F2FC
:1040B4001217ABEAFEEBFF890B7401650B600E74FB
:1040C40002650B706A7901120A43E97062EEFAEF35
:1040D400FB12082D8A088B09EA45096047750A0016
:1040E400800B7C177D007900121079050A9002E696
:1040F400E0F8E50AC3985021E50A75F017A4F8A979
:10410400F0850882850983A3A3E028FAA3E039FB9C
:104114008A828B831229D270C985088285098374A7
:10412400FFF0A3F07C197D03EEFAEFFB12085D02A9
:104134003E4E74F21217AB8A088B09ECFEEDFF7445
:104144000E12179F1237B3900A04E0F4603D7A0907
:104154007B00121085EA4B60328A828B8374B1F043
:10416400A3E4123C45A3123C43A3E508F0A3E509EC
:10417400124192EEF0A3EF124192A3A3E50AF0A339
:10418400E50BF0900A04E0F9121091023E4EF08A19
:10419400828B83A3A3A3A3A32274F01217AB74FA94
:1041A400121754890BECFEEDFF750A008A088B097F
:1041B4007808121A02000410D043E041FE4118426C
:1041C40030424E4266428942A142B542DF426743D1
:1041D40078438F43AA43D043D043F5427401650B1F
:1041E40060030243CB8E828F83E0F8C394034003C1
:1041F4000243CBE8900AF00243A77402650B600304
:104204000243CB8E828F83124ACD900AF1E8F0A349
:10421400E90243A77401650B60030243CB1243F820
:1042240040030243CBE89007660243A77401650B81
:1042340060030243CB8E828F83E0F8C3940540036E
:104244000243CBE89007670243A77401650B600340
:104254000243CB1243F840030243CBE890076802C1
:1042640043A77410650B60030243CB7508107509EE
:104274000078081219BE7A697B0712106174021261
:10428400176A0243F17401650B60030243CB1243C6
:10429400F840030243CBE89007790243A774016511
:1042A4000B60030243CB8E828F83E0900AF40243B7
:1042B400A77404650B60030243CB8E828F83780C52
:1042C400121624908FCF780C12145650030243CB4D
:1042D40090077B780C1216330243F1E96003024322
:1042E400CB1206C5E970051211F9806090080E80A2
:1042F4006E7407650B60030243CB750806750900ED
:1043040078081219BE8E828F83A3AC82AD837402A7
:1043140012179FAA82AB83121067740212176A7C69
:10432400007D00851882851983AA82AB838E828FD3
:1043340083E0F912119FE9F508C3940A400302438C
:10434400EE1206C5E9700CA9081211FF7950121378
:1043540073806F740F2508F58274083400F5837434
:104364000180407401650B705E1243F85059E89067
:10437400077A802F7401650B704D8E828F83E0F86D
:10438400C3940A5042E8900AF380187401650B70D4
:10439400368E828F83E0F874F928C3940A5028E893
:1043A400900AF5F080477401650B701B90080DE0CE
:1043B400F88E828F83E090080DF0E87030E064019D
:1043C400702B1211ED8026750A188021C3EA9427F8
:1043D400EB940050157402650B700F8E828F83125C
:1043E4004ECC120563E9F50A8003750A02A90A7422
:1043F40006024AC28E828F83E0F8C394022274F0CC
:104404001217AB74CC1217548C0A8D0B742012172C
:104414009FAC82AD8375838F7582347406121667E0
:10442400742012179FAC82AD8312119FE9F50874B2
:104434004412179FE0FEE9C3940A400302457075D5
:10444400F006E9A4F509742612179FAC82AD837AAD
:104454000E74202509F912136DE9700974321217CC
:104464009FE0FF80027F00900AF0E0640270047411
:10447400018001E4F50D780D1219C2EEFDEFFCA9DF
:1044840008AA0AAB0B121223740112176A7C147D5A
:10449400007900740C12179FAA82AB8312107974EE
:1044A4000C12179FAC82AD837A1074242509F9127B
:1044B400136DE9703C7C1079FF740C12179FAA826B
:1044C400AB831210D9E97029741C12179FAC82AD0A
:1044D400837A0474252509F912136D740C12179F3D
:1044E400AC82AD83EFA2E0E433F9AA0AAB0B120568
:1044F400ED851882851983AC82AD837A0C7470259E
:1045040008F912136DE97053851882851983AA82FC
:10451400AB831211CF750800E50875F003A4F8A960
:10452400F0851882851983E58228F8E583124CD634
:10453400124EC6601D88828983A3A3E0F50E750F11
:1045440000780E1219BEAA0AAB0B1208517402129B
:10455400176A0508E508C3940440BDEFA2E1500CB6
:10456400900765E0F9AA0AAB0B12085774046E7041
:1045740027900AF0E06402701F7A00900779E060E7
:10458400010A900766E06004780480027800E84A33
:10459400F9AA0AAB0B1206AD79007434024AC2744C
:1045A400F01217ABEAFEEBFF8C088D09750A0AE9D5
:1045B400600C1460091460371460790246521211B9
:1045C400E1E9F50AC3940A4003024652E5084509A5
:1045D400607C750E06750F00780E1219BEEEFCEFA6
:1045E400FDAA08AB09121061740212176A805F7584
:1045F4000B00750E06750F00780E1219BEEEFCEF57
:10460400FDE50B75F00EA4F8A9F0748728FA740779
:1046140039FB121073740212176AE9600C850B0AD5
:10462400E50AC3940A50278016050BE50BC3940AC8
:10463400501C80BE1211E7E9F50AC3940A500FE535
:104644000845096009AA08AB09A90A1211DBA90ADD
:10465400024AC574F41217AB890875091574FF6A08
:10466400700374FF6B70277E00AC087A027B00EE47
:10467400F91211BDE960037509000EEEC3940A40F6
:10468400E8E50860537A117B12120A55804A120A2F
:10469400378A0A8B0BAE0AAF0BEE4F60387C007D75
:1046A40000EE2405FAEF3400FB8E828F83A3A3A3CC
:1046B400A3E0F912119FE9C3940A500CAC087A02E2
:1046C4007B001211BD750900E508600CEEFAEFFBE2
:1046D4001212118003750914A9098005740E1217AA
:1046E4006A7F0402187D74F21217ABECFEEDFF75BD
:1046F4000815740E12179FE0F50AA3E0F50B74FF7A
:104704006A700374FF6B7021750900AC0AAD0BEE7F
:10471400FAEFFBA9091211C3E96003750800050942
:10472400E509C3940A503F80E2120A378A828B83D8
:10473400E5824583602D7C007D00E5822405FAE551
:10474400833400FBA3A3A3A3E0F912119FE9C3944C
:104754000A5013AC0AAD0BEEFAEFFB1211C3750845
:10476400008003750814A908025508C082C083900C
:10477400077FEAF0A3EBF0900765E0FC7D007A2662
:104784007B00120563900765E0F91207CD025363BD
:1047940074F01217AB74EC121754EAFEEBFFEE241C
:1047A4000CF50CEF3400F50DEE2405F50EEF340096
:1047B400F50FEE2409F50AEF3400F50BEE2403F5AA
:1047C40008EF3400F5098E828F83A3A3E024FA70E6
:1047D40003024A6624FD70030249811470030248EF
:1047E4006D14601024FD70030249581470030249CB
:1047F400B5024ABE1257036048E0F5838882124A24
:10480400CD880E890FE8450F6037850C82850D83AE
:10481400E0F50C780C1219C2EE240BF582EF124C61
:104824009DF9850A82850B83124ECC0A0A0AAB09CC
:10483400850E82850F831217A9740112176A024A22
:10484400BE850A82850B831219D590077B12164206
:104854001205FF740212176AE97003024ABE790155
:10486400850A82850B83024A318E828F83A38582D7
:104874000A85830BE0600302493B850E82850F8322
:10488400E0A2E0400302493B900819125706600376
:1048940002493B7C0E7D007900851882851983AA24
:1048A40082AB83121079850C82850D8312532EEA14
:1048B4004B6010750C06750D00780C1219BEEA24B5
:1048C40010801B125328120A37EA4B7003024ABEA7
:1048D400750C06750D00780C1219BEEA2405FCEB64
:1048E4003400FD740212179FAA82AB831210617404
:1048F4000212176A850E82850F83E0A2E25004D269
:10490400F08002C2F0A2F0E433F8740C12179FE0B6
:1049140048F0EEFCEFFD851882851983AA82AB83EB
:104924001211D5E970117A027B00900765E0F91243
:1049340010B57900024AC01257037003024ABE122E
:104944004AD37003024ABE850A82850B83E0FC7950
:1049540001024A5A1257037003024ABE124ACA8914
:104964000BE8450B7003024ABE8E828F83A3E0FCE2
:1049740079021253288882850B83024A617C007D68
:1049840000EE2404FAEF3400FB850882850983E0F5
:10499400F912119FE9F8C3940A4003024ABEEE24B7
:1049A4000AFCEF124EA2E8A42425F9121367024A66
:1049B400BE12532890077AE06007900AF3E0F9806A
:1049C4006F900AF0E0700479058065120A378A0C4A
:1049D4008B0DA80CA90DE82404F50CE93400F50DA1
:1049E4008E828F83A3A3A3A3A3A3A3E0A2E0504634
:1049F400E8497003024ABE850C82850D83E0FE609F
:104A040035850A82850B83E05410702A740E1217C0
:104A14009FAC82AD83E82405FAE93400FBEEF91279
:104A2400119FE97011790385088285098312532E39
:104A34001205F9024ABEAC0EAD0F850C82850D83BA
:104A4400E0F912532812121D125703606D124AD353
:104A540060687C0079001253288E828F831217A914
:104A640080581206C5E9705290080EE06401701572
:104A74001211F990080EE4F07C0AFDF97A0F7B0814
:104A8400121079802D750A00850A08740F2508FE16
:104A940074083400FF8E828F83E06401700BA90ACE
:104AA4001211FF8E828F83E4F0050AE50AC3940A8B
:104AB40040D679501213731211ED79017414121740
:104AC4006A7F0802187D124AE2E0F8A3E0F9221294
:104AD4004AE2E0F8A3E0F9E8FEE9FFEE4F22E0F550
:104AE400838882A3A32274F41217AB74F2121754AE
:104AF400EAFE8C0B75F006E9A42420F508851882DB
:104B0400851983AC82AD837A0EF912136DE970575F
:104B14007C0679FF851882851983AA82AB831210DB
:104B2400D9E97043740C12179F124ACDE8F509E5D0
:104B34000B6005EE42098004EEF45209850982AA4D
:104B440082E86A7001E9601B740C12179FEAF0A3F3
:104B5400E4F0851882851983AC82AD837A0EA908A6
:104B64001213677901800279000246E074F2121789
:104B7400AB74E6121754890A8A088B09ECFEEDFF20
:104B8400740C12179FAC82AD837A0E75F006E9A4FB
:104B94002420F912136DE96003024C907C0679FF1E
:104BA400740C12179FAA82AB831210D9E960030216
:104BB4004C907470250AF50B851882851983AC8294
:104BC400AD837A0CF912136DE96003024C8C8518DD
:104BD40082851983AA82AB831211CFE50845097037
:104BE4002C7C0C7900851882851983AA82AB8312E8
:104BF40010D9E96003024C8C7C0C7D007900851887
:104C040082851983AA82AB83121079805D8518820C
:104C1400851983AC82AD83AA08AB091211C98A0C29
:104C24008B0DA80CA90DE8497028EE4F605E85181D
:104C340082851983AC82AD837A007B001211C9EAA4
:104C4400F8EBF9EA4B604588828983E508F0A3E52F
:104C540009F0124C97FAEE6A7001EF602BEEF04FF8
:104C6400700888828983E4F0A3F08518828519830B
:104C7400AA82AB831211CF851882851983AC82ADC9
:104C8400837A0CA90B121367790180027900741AD4
:104C9400025505E82402F582E93400F583E0227424
:104CA400F71217AB7F00EF75F003A4F8A9F0EC2816
:104CB400F8ED124CD6E06A7003A3E06B7006E8FAD4
:104CC400E9FB800B0FEFC3940440DB7A007B000206
:104CD400508139F9888289832274F71217AB7E00D8
:104CE400EE75F003A4F8A9F0EA28F8EB124CD6E02C
:104CF400F4FCA3E0F4FD88828983ECF0A3EDF012C8
:104D04004C97F4F00EEEC3940440D502508174F233
:104D14001217AB74F4121754EAFEEBFF8C088D09DA
:104D24009008191257067051EE4F7003024E9BEC17
:104D340045097003024E9B1211E1E9900AF6F0C393
:104D4400940A4035750B007C0679FFE50B75F00E6F
:104D5400A4FAABF074812AFA74073BFB1210D9E968
:104D64006005850B0A800C050BE50BC3940A40D73C
:104D7400750A0AE50A900AF6F0900AF6E0C3940A66
:104D84004003024E9B75F006E0A4FB9008191257ED
:104D940006706FEEFCEFFD7A0E74202BF912136788
:104DA4007C0C7D0079FF851882851983AA82AB83E8
:104DB400121079851882851983AC82AD837A0C90A0
:104DC4000AF6E02470F9121367750C0E750D00785D
:104DD4000C1219BEEEFCEFFD900AF6E075F00EA47D
:104DE400F8A9F0748128FA740739FB12106174026F
:104DF40012176A900819E508F0A3E509F079000292
:104E04004E9DE0C82406124EBF601A7A1B74212BF3
:104E1400F9121367124EAB2406F582E83400F583C9
:104E2400E4F0A380D7124EAB240A124EBF60107A6E
:104E34001B74222BF9121367124EAB240A80DA1268
:104E44004EAB240C124EBF60107A1074232BF9124F
:104E54001367124EAB240C80C0124EB4124EBF60C6
:104E64002A7A1074242BF9121367124EB4F582E8CF
:104E7400124C9D2410FCA3E0124EA2900AF6E0A46A
:104E84002425F9121367124EB4808E90080DE06049
:104E9400031212291212177901740C0255053400F9
:104EA400FD7A0475F00622900819E0F8A3E0C82200
:104EB400900819E0F8A3E0C8240822F582E8340039
:104EC400F583124ECCEC4D22E0FCA3E0FD2274F4F9
:104ED4001217AB74F2121754EAFEEBFFE9C3940AFB
:104EE4005004EE4F70047902803E85188285198340
:104EF400AC82AD837A0E75F006E9A42420F912136E
:104F04006DE9F5087020750A06750B00780A121908
:104F1400BE740212179FAC82AD83EEFAEFFB12103F
:104F240061740212176AA9080246E074F41217ABFE
:104F3400EAFEEBFF750800750A06750B00780A1285
:104F440019BEEEFCEFFDE50875F00EA4F8A9F074A7
:104F54008128FA740739FB121073740212176AE974
:104F64006004A908800B0508E508C3940A40C879C1
:104F74000A0246E574F71217AB74F0121754EAFEEE
:104F8400EBFF750800851882851983AC82AD837A9E
:104F94001075F006E508A42423F912136DE9702CAA
:104FA4007C1079FF851882851983AA82AB8312103D
:104FB400D9E97018EEFCEFFD851882851983AA8261
:104FC400AB831205CFE97004A908800B0508E50836
:104FD400C3940A40B0790A741012176A025081749B
:104FE400F71217AB750800E50875F00EA4F8A9F0E0
:104FF400748128FE740739FFEEFCEFFD7A0E75F01C
:1050040006E508A42420F912136DE9602C7C067DC2
:105014000079FFEEFAEFFB1210797C067D0079FF30
:10502400EE2406FAEF3400FB121079EE240CF5821C
:10503400EF3400F583E4F0A3F00508E508C3940A0F
:1050440040A590080DE06003121229121217802D5A
:1050540074F71217AB7E007F007C0679FFEF75F0C2
:105064000EA4FAABF074812AFA74073BFB1210D930
:10507400E970010E0FEFC3940A40DEEEF97F0102DE
:10508400187D74F71217AB7E00EEF91211FF0EEEC5
:10509400C3940A5003E960F180E374F31217AB740C
:1050A400CB121754E9FE900AF6E06E701B7A017B6E
:1050B40000900765E0F91210BB7A027B0090076547
:1050C400E0F91210BB12123575F006EEA4FF74203D
:1050D4002FF508742712179FAC82AD837A0EA908A6
:1050E40012136DE960030251D87C0679FF7427120C
:1050F400179FAA82AB831210D9E960030251D87CAE
:105104000E7D0079FF742712179FAA82AB831210B9
:10511400797C1B7D0079FF740C12179FAA82AB83E4
:105124001210797C0C7D0079FF851882851983AA79
:1051340082AB83121079742712179FAC82AD837AE5
:105144000EA908121367E9F508740C12179FAC82B4
:10515400AD837A1B74212FF9121367E9F509740CD6
:1051640012179FAC82AD837A1B74222FF912136736
:10517400E9F50A740C12179FAC82AD837A1074237C
:105184002FF9121367E9F50B740C12179FAC82AD5B
:10519400837A1074242FF9121367E9F50C740C1236
:1051A400179FAC82AD837A0474252FF9121367E933
:1051B400FF851882851983AC82AD837A0C74702EB6
:1051C400F9121367E9F8E509450A450B450C4F4800
:1051D40042088003750800A908743512176A7F0510
:1051E40002187D74F71217ABE9900765F01211ED00
:1051F40002508174F41217ABEAFEEBFF5480700383
:1052040002528F900765E0F912109D8A088B09EA13
:105214004509607078018A828B83E02450603D14D4
:10522400600624E1604F8052A3A3A3A3E0704E8ADA
:10523400828B83A3A3A3A3A3A3A31219D58A828BCE
:1052440083A3A3A3A3A3124ECC8A828B83A3A3120A
:10525400532E1211AB740212176A8021A3A3A3A3C5
:10526400E0641E701879008A828B83A3A312532EE4
:105274001211A580081211B7E9F8E86007AA08AB73
:105284000912108BEEFAEF64808065EE54026023FD
:105294007C007D007A007B001211D5E960117A014F
:1052A4007B00900765E0F91210B5EE6402803F7A46
:1052B400028046EEA2E0503F12530212532E121205
:1052C4002FE9602F125703601F124ACA8808890900
:1052D400E8450960137C00790112530212532E85AC
:1052E40008828509831217A9121235EE6401FAEFB8
:1052F400FB80087A0180027A007B000246E5900870
:1053040019E0F8A3124AE2A3227F0202187DC082A8
:10531400C083900765E0F98A828B83A312532E120F
:105324000857803B850882850983E0FAA3E0FB22C5
:10533400C082C08374FF1217541211F3E9C394029C
:10534400851882851983400474028002740AF0ACC3
:1053540082AD837A0179051206DD740112176AD0D1
:1053640083D08202013574F21217AB74E812175419
:10537400EAFEEBFF890A8C088D097C187D00790010
:10538400851882851983AA82AB83121079851882C5
:10539400851983EEF0A3EFF0900767E0C0E0740294
:1053A40012179FD0E0F0900768E0C0E07403121772
:1053B4009FD0E0F0900AF5E0C0E0741712179FD078
:1053C400E0F0741512179FE054FEF8A3E0F9900A78
:1053D400F4E0A2E0E433FAE84AF8741512179F12D5
:1053E4005514A2E15004D2F08002C2F0E854FDFA50
:1053F400A2F0E43333F8EA48F8741512179F1255F3
:1054040014A2E35004D2F08002C2F0E854F7FAA2E6
:10541400F0E433F50C750D007403780C1217411287
:10542400550D12179F125514A2E45004D2F08002B5
:10543400C2F0E854EFFAA2F0E433F50C7404780CEB
:1054440012174112550D12179F125514A2E550045C
:10545400D2F08002C2F0E854DFFAA2F0E433F50C93
:105464007405780C12174112550D12179F1255141A
:10547400A2E25004D2F08002C2F0E854FBFAA2F097
:10548400E433F50C7402780C12174112550D1217FF
:105494009FE8F0A3E9F0900768E0601D750C1078B0
:1054A4000C1219BE7C697D07740612179FAA82AB81
:1054B40083121061740212176A900779E06011E593
:1054C4000A6009741512179FE04402F07801800203
:1054D4007800741412179FE048F0900766E06004A7
:1054E400780480027800741412179FE048F0AC0826
:1054F400AD09851882851983AA82AB831205F374DA
:105504001812176A7F0602187DEA450CF8741522F2
:10551400E8F0A3E9F0900AF4E02274F31217AB74F4
:10552400E5121754EAFEEBFF8C098D0A7428121752
:105534009FE0F50C75F006E9A4F87408650A700498
:1055440074228002742128F50B7C1B7D0079008570
:105554001882851983AA82AB8312107985188285F3
:105564001983AC82AD837A1BA90B12136DE97032D7
:10557400741A12179FE024F9C3940A5025E50CF518
:105584000B780B1219C2740112179FAC82AD83E51C
:1055940009A2E0E433F9EEFAEFFB120605740112F6
:1055A400176A741B0251DF74F71217AB1208CF7518
:1055B4000800E50875F00EA4F8A9F0748128FE74BB
:1055C4000739FF7C0679FFEEFAEFFB1210D9E97078
:1055D40009EEFAEFFB79001208D50508E508C39433
:1055E4000A40CF02508174F61217AB74FD1217549F
:1055F400EAFEEBFF90081B125706703975081D75FB
:10560400090878081219BE7508027509007808128D
:1056140019BE7508F475098F78081219BE7CFF7DD0
:10562400FF7A017B0012071F740612176A90081B89
:10563400EAF0A3EBF090081B12570670030256ED34
:10564400E4F508F50978081219BE740412179F8549
:10565400820885830978081219BE740412179F857D
:10566400820885830978081219BE90081D1219D57D
:10567400790290081B1256FB120845740812176A27
:10568400E97034851882851983E0FA740112179F32
:10569400E0F9EA2400F508E439F509EA4509601758
:1056A40078081219BE90081B125305A31256FB1258
:1056B40011AB740212176AE4F508F5097808121997
:1056C400BE90081D1219D57CFF7DFF90081B125354
:1056D4002E12072B740412176A90081BEAF0A3EB2E
:1056E400F090081B12570670047901800279007447
:1056F4000312176A02530D124ECCEEFAEFFB2290FE
:10570400077FE0F8A3E0F9E84922C082C08390084B
:1057140019125706601090081912532E12108B900C
:105724000819E4F0A3F0900AF6740AF0025363C077
:1057340082C0839061907404F0A37448F0A3E4F0F1
:105744009061807440F09061BC7407F0906187743C
:1057540069F09061B67416F07900120B3F79021269
:105764000B45902734E493F46006E493F9120B1B81
:105774007905120E45025B2EC082C083E9540FF9ED
:10578400906185E0696012E5C654804449F5C6E538
:105794009E547F644970F8E9F053C680E59E547FB7
:1057A40070FA025B2E74F71217ABE5A8FE53A87EBD
:1057B400120B27C2BA539AFEC289759B00C2C21249
:1057C4000B2D75A91175B905120B33D2BA439A0181
:1057D40074805E42A80260C5C082C083906181E487
:1057E400F0A3025B2B75E90075910075BF000201FF
:1057F40035C082C083906181E4F0A374C0F0A3E457
:10580400025B2DC082C08374F81217549003A41253
:105814006A5E70030258E69003A4E0544060237962
:1058240008851882851983AA82AB83120C3B8518DC
:1058340082851983AA82AB831208F39003A4E054EF
:10584400BFF0E054806010790C7A657B05120C3B44
:105854009003A4E0547FF0E0A2E0500F7900120B13
:105864003F1208F99003A4E054FEF0E05402600FE4
:105874007901120B3F1208F99003A4E054FDF0E003
:105884005404600F7900120B451208FF9003A4E042
:1058940054FBF0E05408600F7901120B451208FF25
:1058A4009003A4E054F7F0E05410600F7902120B57
:1058B400451208FF9003A4E054EFF0E05420600F79
:1058C4007903120B451208FF9003A4E054DFF0A300
:1058D400E05401600D120B511209059003A5E05428
:1058E400FEF0740812176A025B2EC082C083E9605E
:1058F4000514602A804F90619A7433F0A37455F0B4
:105904009061A0743AF090053FE064017009C2917F
:105914009003A67467802D9003A67461802690611D
:105924009A743FF0A3745AF09061A0747FF09005CC
:105934003FE064017009D2919003A67471800590D0
:1059440003A6746AF0025B2EC082C083E9600B1464
:10595400600D14601714600C802090273880159017
:105964002739801090053FE06401700590273A8044
:105974000390273BE493906186F0025B2E74EE1251
:1059840017AB74F4121754851882851983AC82AD51
:105994008375838F7582BB740412166790273893BE
:1059A400F46003025AAB907808E0C39402500302F7
:1059B4005A8B740412179FAC82AD8375838F7582E2
:1059C400267408121667FC7EFF7FFF8E0C7D008C08
:1059D4008285820E800F74086D606D74096D606835
:1059E400740A6D60638D08750900740278081217D3
:1059F40041125AB5121624A909E50AC9F888107487
:105A0400187808121565E5104508FAE9FBE50EC398
:105A140033F8E433F9740412179FE58228F582E51C
:105A24008339125FB5C3E89AE99B4008E8C39AF842
:105A3400E99B8006EAC398F8EB99F9C3E89EE99FCD
:105A44005006E8FEE9FF8D0C0DEDC39413408774F6
:105A5400FF6E700374FF6F6024850C08740278086D
:105A6400121741125AB5121624851882851983E536
:105A740082250EF582E583126454E508F00CECC32C
:105A8400940450030259CB75080175090078081273
:105A940019BE740212179FAC82AD837ACE7B0912B1
:105AA4001271740212176A740C12176A7F0A0218B0
:105AB4007D74482508F58274783509F583780822C1
:105AC400C082C083906186E0F890273BE4936870BD
:105AD4000990273AE493906186F09061AE7468F07F
:105AE400A3746AF090624574FBF0A304F053F4FDD0
:105AF40043FE0290053F7401F09061A0E0643A70A7
:105B040004790080027901120B3F025B2EC082C02F
:105B1400839004F1E06401700A9004F6E060047973
:105B24000C800279008003F0A3F0D083D0820201BC
:105B340035C082C08375E1F19004F4E0604D1460D7
